{
	"mappingeg.sol": {
		"mappings": {
			"abi": [
				{
					"inputs": [],
					"name": "Updateaddress",
					"outputs": [],
					"stateMutability": "nonpayable",
					"type": "function"
				},
				{
					"inputs": [
						{
							"internalType": "uint256",
							"name": "_n1",
							"type": "uint256"
						},
						{
							"internalType": "uint256",
							"name": "_n2",
							"type": "uint256"
						}
					],
					"name": "getmapping",
					"outputs": [
						{
							"internalType": "bool",
							"name": "",
							"type": "bool"
						}
					],
					"stateMutability": "view",
					"type": "function"
				},
				{
					"inputs": [
						{
							"internalType": "string",
							"name": "",
							"type": "string"
						}
					],
					"name": "mymapping1",
					"outputs": [
						{
							"internalType": "bool",
							"name": "",
							"type": "bool"
						}
					],
					"stateMutability": "view",
					"type": "function"
				},
				{
					"inputs": [
						{
							"internalType": "address",
							"name": "",
							"type": "address"
						}
					],
					"name": "mymapping2",
					"outputs": [
						{
							"internalType": "bool",
							"name": "",
							"type": "bool"
						}
					],
					"stateMutability": "view",
					"type": "function"
				},
				{
					"inputs": [
						{
							"internalType": "uint256",
							"name": "",
							"type": "uint256"
						},
						{
							"internalType": "uint256",
							"name": "",
							"type": "uint256"
						}
					],
					"name": "nestedmapping",
					"outputs": [
						{
							"internalType": "bool",
							"name": "",
							"type": "bool"
						}
					],
					"stateMutability": "view",
					"type": "function"
				},
				{
					"inputs": [
						{
							"internalType": "string",
							"name": "_mystring",
							"type": "string"
						}
					],
					"name": "setmapping",
					"outputs": [],
					"stateMutability": "nonpayable",
					"type": "function"
				},
				{
					"inputs": [
						{
							"internalType": "uint256",
							"name": "_n1",
							"type": "uint256"
						},
						{
							"internalType": "uint256",
							"name": "_n2",
							"type": "uint256"
						},
						{
							"internalType": "bool",
							"name": "_value",
							"type": "bool"
						}
					],
					"name": "setmapping",
					"outputs": [],
					"stateMutability": "nonpayable",
					"type": "function"
				}
			],
			"devdoc": {
				"kind": "dev",
				"methods": {},
				"version": 1
			},
			"evm": {
				"assembly": "    /* \"mappingeg.sol\":28:687  contract mappings{... */\n  mstore(0x40, 0x80)\n  callvalue\n  dup1\n  iszero\n  tag_1\n  jumpi\n  0x00\n  dup1\n  revert\ntag_1:\n  pop\n  dataSize(sub_0)\n  dup1\n  dataOffset(sub_0)\n  0x00\n  codecopy\n  0x00\n  return\nstop\n\nsub_0: assembly {\n        /* \"mappingeg.sol\":28:687  contract mappings{... */\n      mstore(0x40, 0x80)\n      callvalue\n      dup1\n      iszero\n      tag_1\n      jumpi\n      0x00\n      dup1\n      revert\n    tag_1:\n      pop\n      jumpi(tag_2, lt(calldatasize, 0x04))\n      shr(0xe0, calldataload(0x00))\n      dup1\n      0xaf09ce22\n      gt\n      tag_10\n      jumpi\n      dup1\n      0xaf09ce22\n      eq\n      tag_6\n      jumpi\n      dup1\n      0xb95ea404\n      eq\n      tag_7\n      jumpi\n      dup1\n      0xd9e01d9d\n      eq\n      tag_8\n      jumpi\n      dup1\n      0xda77d4e4\n      eq\n      tag_9\n      jumpi\n      jump(tag_2)\n    tag_10:\n      dup1\n      0x208718dc\n      eq\n      tag_3\n      jumpi\n      dup1\n      0x24083b8b\n      eq\n      tag_4\n      jumpi\n      dup1\n      0x4ed989f0\n      eq\n      tag_5\n      jumpi\n    tag_2:\n      0x00\n      dup1\n      revert\n        /* \"mappingeg.sol\":219:325  function setmapping(string memory _mystring) public{... */\n    tag_3:\n      tag_11\n      0x04\n      dup1\n      calldatasize\n      sub\n      dup2\n      add\n      swap1\n      tag_12\n      swap2\n      swap1\n      tag_13\n      jump\t// in\n    tag_12:\n      tag_14\n      jump\t// in\n    tag_11:\n      stop\n        /* \"mappingeg.sol\":152:207  mapping(uint=>mapping(uint=>bool)) public nestedmapping */\n    tag_4:\n      tag_15\n      0x04\n      dup1\n      calldatasize\n      sub\n      dup2\n      add\n      swap1\n      tag_16\n      swap2\n      swap1\n      tag_17\n      jump\t// in\n    tag_16:\n      tag_18\n      jump\t// in\n    tag_15:\n      mload(0x40)\n      tag_19\n      swap2\n      swap1\n      tag_20\n      jump\t// in\n    tag_19:\n      mload(0x40)\n      dup1\n      swap2\n      sub\n      swap1\n      return\n        /* \"mappingeg.sol\":102:142  mapping(address=>bool) public mymapping2 */\n    tag_5:\n      tag_21\n      0x04\n      dup1\n      calldatasize\n      sub\n      dup2\n      add\n      swap1\n      tag_22\n      swap2\n      swap1\n      tag_23\n      jump\t// in\n    tag_22:\n      tag_24\n      jump\t// in\n    tag_21:\n      mload(0x40)\n      tag_25\n      swap2\n      swap1\n      tag_20\n      jump\t// in\n    tag_25:\n      mload(0x40)\n      dup1\n      swap2\n      sub\n      swap1\n      return\n        /* \"mappingeg.sol\":432:551  function setmapping(uint _n1,uint _n2,bool _value) public {... */\n    tag_6:\n      tag_26\n      0x04\n      dup1\n      calldatasize\n      sub\n      dup2\n      add\n      swap1\n      tag_27\n      swap2\n      swap1\n      tag_28\n      jump\t// in\n    tag_27:\n      tag_29\n      jump\t// in\n    tag_26:\n      stop\n        /* \"mappingeg.sol\":335:422  function Updateaddress() public{... */\n    tag_7:\n      tag_30\n      tag_31\n      jump\t// in\n    tag_30:\n      stop\n        /* \"mappingeg.sol\":54:93  mapping(string=>bool) public mymapping1 */\n    tag_8:\n      tag_32\n      0x04\n      dup1\n      calldatasize\n      sub\n      dup2\n      add\n      swap1\n      tag_33\n      swap2\n      swap1\n      tag_13\n      jump\t// in\n    tag_33:\n      tag_34\n      jump\t// in\n    tag_32:\n      mload(0x40)\n      tag_35\n      swap2\n      swap1\n      tag_20\n      jump\t// in\n    tag_35:\n      mload(0x40)\n      dup1\n      swap2\n      sub\n      swap1\n      return\n        /* \"mappingeg.sol\":562:684  function getmapping(uint _n1,uint _n2) public view returns(bool) {... */\n    tag_9:\n      tag_36\n      0x04\n      dup1\n      calldatasize\n      sub\n      dup2\n      add\n      swap1\n      tag_37\n      swap2\n      swap1\n      tag_17\n      jump\t// in\n    tag_37:\n      tag_38\n      jump\t// in\n    tag_36:\n      mload(0x40)\n      tag_39\n      swap2\n      swap1\n      tag_20\n      jump\t// in\n    tag_39:\n      mload(0x40)\n      dup1\n      swap2\n      sub\n      swap1\n      return\n        /* \"mappingeg.sol\":219:325  function setmapping(string memory _mystring) public{... */\n    tag_14:\n        /* \"mappingeg.sol\":308:312  true */\n      0x01\n        /* \"mappingeg.sol\":284:294  mymapping1 */\n      0x00\n        /* \"mappingeg.sol\":295:304  _mystring */\n      dup3\n        /* \"mappingeg.sol\":284:305  mymapping1[_mystring] */\n      mload(0x40)\n      tag_41\n      swap2\n      swap1\n      tag_42\n      jump\t// in\n    tag_41:\n      swap1\n      dup2\n      mstore\n      0x20\n      add\n      mload(0x40)\n      dup1\n      swap2\n      sub\n      swap1\n      keccak256\n      0x00\n        /* \"mappingeg.sol\":284:312  mymapping1[_mystring] = true */\n      0x0100\n      exp\n      dup2\n      sload\n      dup2\n      0xff\n      mul\n      not\n      and\n      swap1\n      dup4\n      iszero\n      iszero\n      mul\n      or\n      swap1\n      sstore\n      pop\n        /* \"mappingeg.sol\":219:325  function setmapping(string memory _mystring) public{... */\n      pop\n      jump\t// out\n        /* \"mappingeg.sol\":152:207  mapping(uint=>mapping(uint=>bool)) public nestedmapping */\n    tag_18:\n      mstore(0x20, 0x02)\n      dup2\n      0x00\n      mstore\n      mstore(0x20, keccak256(0x00, 0x40))\n      dup1\n      0x00\n      mstore\n      keccak256(0x00, 0x40)\n      0x00\n      swap2\n      pop\n      swap2\n      pop\n      swap1\n      sload\n      swap1\n      0x0100\n      exp\n      swap1\n      div\n      0xff\n      and\n      dup2\n      jump\t// out\n        /* \"mappingeg.sol\":102:142  mapping(address=>bool) public mymapping2 */\n    tag_24:\n      mstore(0x20, 0x01)\n      dup1\n      0x00\n      mstore\n      keccak256(0x00, 0x40)\n      0x00\n      swap2\n      pop\n      sload\n      swap1\n      0x0100\n      exp\n      swap1\n      div\n      0xff\n      and\n      dup2\n      jump\t// out\n        /* \"mappingeg.sol\":432:551  function setmapping(uint _n1,uint _n2,bool _value) public {... */\n    tag_29:\n        /* \"mappingeg.sol\":531:537  _value */\n      dup1\n        /* \"mappingeg.sol\":505:518  nestedmapping */\n      0x02\n        /* \"mappingeg.sol\":505:523  nestedmapping[_n1] */\n      0x00\n        /* \"mappingeg.sol\":519:522  _n1 */\n      dup6\n        /* \"mappingeg.sol\":505:523  nestedmapping[_n1] */\n      dup2\n      mstore\n      0x20\n      add\n      swap1\n      dup2\n      mstore\n      0x20\n      add\n      0x00\n      keccak256\n        /* \"mappingeg.sol\":505:528  nestedmapping[_n1][_n2] */\n      0x00\n        /* \"mappingeg.sol\":524:527  _n2 */\n      dup5\n        /* \"mappingeg.sol\":505:528  nestedmapping[_n1][_n2] */\n      dup2\n      mstore\n      0x20\n      add\n      swap1\n      dup2\n      mstore\n      0x20\n      add\n      0x00\n      keccak256\n      0x00\n        /* \"mappingeg.sol\":505:537  nestedmapping[_n1][_n2] = _value */\n      0x0100\n      exp\n      dup2\n      sload\n      dup2\n      0xff\n      mul\n      not\n      and\n      swap1\n      dup4\n      iszero\n      iszero\n      mul\n      or\n      swap1\n      sstore\n      pop\n        /* \"mappingeg.sol\":432:551  function setmapping(uint _n1,uint _n2,bool _value) public {... */\n      pop\n      pop\n      pop\n      jump\t// out\n        /* \"mappingeg.sol\":335:422  function Updateaddress() public{... */\n    tag_31:\n        /* \"mappingeg.sol\":406:410  true */\n      0x01\n        /* \"mappingeg.sol\":381:391  mymapping2 */\n      dup1\n        /* \"mappingeg.sol\":381:403  mymapping2[msg.sender] */\n      0x00\n        /* \"mappingeg.sol\":392:402  msg.sender */\n      caller\n        /* \"mappingeg.sol\":381:403  mymapping2[msg.sender] */\n      0xffffffffffffffffffffffffffffffffffffffff\n      and\n      0xffffffffffffffffffffffffffffffffffffffff\n      and\n      dup2\n      mstore\n      0x20\n      add\n      swap1\n      dup2\n      mstore\n      0x20\n      add\n      0x00\n      keccak256\n      0x00\n        /* \"mappingeg.sol\":381:410  mymapping2[msg.sender] = true */\n      0x0100\n      exp\n      dup2\n      sload\n      dup2\n      0xff\n      mul\n      not\n      and\n      swap1\n      dup4\n      iszero\n      iszero\n      mul\n      or\n      swap1\n      sstore\n      pop\n        /* \"mappingeg.sol\":335:422  function Updateaddress() public{... */\n      jump\t// out\n        /* \"mappingeg.sol\":54:93  mapping(string=>bool) public mymapping1 */\n    tag_34:\n      0x00\n      dup2\n      dup1\n      mload\n      0x20\n      dup2\n      add\n      dup3\n      add\n      dup1\n      mload\n      dup5\n      dup3\n      mstore\n      0x20\n      dup4\n      add\n      0x20\n      dup6\n      add\n      keccak256\n      dup2\n      dup4\n      mstore\n      dup1\n      swap6\n      pop\n      pop\n      pop\n      pop\n      pop\n      pop\n      0x00\n      swap2\n      pop\n      sload\n      swap1\n      0x0100\n      exp\n      swap1\n      div\n      0xff\n      and\n      dup2\n      jump\t// out\n        /* \"mappingeg.sol\":562:684  function getmapping(uint _n1,uint _n2) public view returns(bool) {... */\n    tag_38:\n        /* \"mappingeg.sol\":621:625  bool */\n      0x00\n        /* \"mappingeg.sol\":649:662  nestedmapping */\n      0x02\n        /* \"mappingeg.sol\":649:667  nestedmapping[_n1] */\n      0x00\n        /* \"mappingeg.sol\":663:666  _n1 */\n      dup5\n        /* \"mappingeg.sol\":649:667  nestedmapping[_n1] */\n      dup2\n      mstore\n      0x20\n      add\n      swap1\n      dup2\n      mstore\n      0x20\n      add\n      0x00\n      keccak256\n        /* \"mappingeg.sol\":649:672  nestedmapping[_n1][_n2] */\n      0x00\n        /* \"mappingeg.sol\":668:671  _n2 */\n      dup4\n        /* \"mappingeg.sol\":649:672  nestedmapping[_n1][_n2] */\n      dup2\n      mstore\n      0x20\n      add\n      swap1\n      dup2\n      mstore\n      0x20\n      add\n      0x00\n      keccak256\n      0x00\n      swap1\n      sload\n      swap1\n      0x0100\n      exp\n      swap1\n      div\n      0xff\n      and\n        /* \"mappingeg.sol\":642:672  return nestedmapping[_n1][_n2] */\n      swap1\n      pop\n        /* \"mappingeg.sol\":562:684  function getmapping(uint _n1,uint _n2) public view returns(bool) {... */\n      swap3\n      swap2\n      pop\n      pop\n      jump\t// out\n        /* \"#utility.yul\":7:82   */\n    tag_46:\n        /* \"#utility.yul\":40:46   */\n      0x00\n        /* \"#utility.yul\":73:75   */\n      0x40\n        /* \"#utility.yul\":67:76   */\n      mload\n        /* \"#utility.yul\":57:76   */\n      swap1\n      pop\n        /* \"#utility.yul\":7:82   */\n      swap1\n      jump\t// out\n        /* \"#utility.yul\":88:205   */\n    tag_47:\n        /* \"#utility.yul\":197:198   */\n      0x00\n        /* \"#utility.yul\":194:195   */\n      dup1\n        /* \"#utility.yul\":187:199   */\n      revert\n        /* \"#utility.yul\":211:328   */\n    tag_48:\n        /* \"#utility.yul\":320:321   */\n      0x00\n        /* \"#utility.yul\":317:318   */\n      dup1\n        /* \"#utility.yul\":310:322   */\n      revert\n        /* \"#utility.yul\":334:451   */\n    tag_49:\n        /* \"#utility.yul\":443:444   */\n      0x00\n        /* \"#utility.yul\":440:441   */\n      dup1\n        /* \"#utility.yul\":433:445   */\n      revert\n        /* \"#utility.yul\":457:574   */\n    tag_50:\n        /* \"#utility.yul\":566:567   */\n      0x00\n        /* \"#utility.yul\":563:564   */\n      dup1\n        /* \"#utility.yul\":556:568   */\n      revert\n        /* \"#utility.yul\":580:682   */\n    tag_51:\n        /* \"#utility.yul\":621:627   */\n      0x00\n        /* \"#utility.yul\":672:674   */\n      0x1f\n        /* \"#utility.yul\":668:675   */\n      not\n        /* \"#utility.yul\":663:665   */\n      0x1f\n        /* \"#utility.yul\":656:661   */\n      dup4\n        /* \"#utility.yul\":652:666   */\n      add\n        /* \"#utility.yul\":648:676   */\n      and\n        /* \"#utility.yul\":638:676   */\n      swap1\n      pop\n        /* \"#utility.yul\":580:682   */\n      swap2\n      swap1\n      pop\n      jump\t// out\n        /* \"#utility.yul\":688:868   */\n    tag_52:\n        /* \"#utility.yul\":736:813   */\n      0x4e487b7100000000000000000000000000000000000000000000000000000000\n        /* \"#utility.yul\":733:734   */\n      0x00\n        /* \"#utility.yul\":726:814   */\n      mstore\n        /* \"#utility.yul\":833:837   */\n      0x41\n        /* \"#utility.yul\":830:831   */\n      0x04\n        /* \"#utility.yul\":823:838   */\n      mstore\n        /* \"#utility.yul\":857:861   */\n      0x24\n        /* \"#utility.yul\":854:855   */\n      0x00\n        /* \"#utility.yul\":847:862   */\n      revert\n        /* \"#utility.yul\":874:1155   */\n    tag_53:\n        /* \"#utility.yul\":957:984   */\n      tag_83\n        /* \"#utility.yul\":979:983   */\n      dup3\n        /* \"#utility.yul\":957:984   */\n      tag_51\n      jump\t// in\n    tag_83:\n        /* \"#utility.yul\":949:955   */\n      dup2\n        /* \"#utility.yul\":945:985   */\n      add\n        /* \"#utility.yul\":1087:1093   */\n      dup2\n        /* \"#utility.yul\":1075:1085   */\n      dup2\n        /* \"#utility.yul\":1072:1094   */\n      lt\n        /* \"#utility.yul\":1051:1069   */\n      0xffffffffffffffff\n        /* \"#utility.yul\":1039:1049   */\n      dup3\n        /* \"#utility.yul\":1036:1070   */\n      gt\n        /* \"#utility.yul\":1033:1095   */\n      or\n        /* \"#utility.yul\":1030:1118   */\n      iszero\n      tag_84\n      jumpi\n        /* \"#utility.yul\":1098:1116   */\n      tag_85\n      tag_52\n      jump\t// in\n    tag_85:\n        /* \"#utility.yul\":1030:1118   */\n    tag_84:\n        /* \"#utility.yul\":1138:1148   */\n      dup1\n        /* \"#utility.yul\":1134:1136   */\n      0x40\n        /* \"#utility.yul\":1127:1149   */\n      mstore\n        /* \"#utility.yul\":917:1155   */\n      pop\n        /* \"#utility.yul\":874:1155   */\n      pop\n      pop\n      jump\t// out\n        /* \"#utility.yul\":1161:1290   */\n    tag_54:\n        /* \"#utility.yul\":1195:1201   */\n      0x00\n        /* \"#utility.yul\":1222:1242   */\n      tag_87\n      tag_46\n      jump\t// in\n    tag_87:\n        /* \"#utility.yul\":1212:1242   */\n      swap1\n      pop\n        /* \"#utility.yul\":1251:1284   */\n      tag_88\n        /* \"#utility.yul\":1279:1283   */\n      dup3\n        /* \"#utility.yul\":1271:1277   */\n      dup3\n        /* \"#utility.yul\":1251:1284   */\n      tag_53\n      jump\t// in\n    tag_88:\n        /* \"#utility.yul\":1161:1290   */\n      swap2\n      swap1\n      pop\n      jump\t// out\n        /* \"#utility.yul\":1296:1604   */\n    tag_55:\n        /* \"#utility.yul\":1358:1362   */\n      0x00\n        /* \"#utility.yul\":1448:1466   */\n      0xffffffffffffffff\n        /* \"#utility.yul\":1440:1446   */\n      dup3\n        /* \"#utility.yul\":1437:1467   */\n      gt\n        /* \"#utility.yul\":1434:1490   */\n      iszero\n      tag_90\n      jumpi\n        /* \"#utility.yul\":1470:1488   */\n      tag_91\n      tag_52\n      jump\t// in\n    tag_91:\n        /* \"#utility.yul\":1434:1490   */\n    tag_90:\n        /* \"#utility.yul\":1508:1537   */\n      tag_92\n        /* \"#utility.yul\":1530:1536   */\n      dup3\n        /* \"#utility.yul\":1508:1537   */\n      tag_51\n      jump\t// in\n    tag_92:\n        /* \"#utility.yul\":1500:1537   */\n      swap1\n      pop\n        /* \"#utility.yul\":1592:1596   */\n      0x20\n        /* \"#utility.yul\":1586:1590   */\n      dup2\n        /* \"#utility.yul\":1582:1597   */\n      add\n        /* \"#utility.yul\":1574:1597   */\n      swap1\n      pop\n        /* \"#utility.yul\":1296:1604   */\n      swap2\n      swap1\n      pop\n      jump\t// out\n        /* \"#utility.yul\":1610:1764   */\n    tag_56:\n        /* \"#utility.yul\":1694:1700   */\n      dup3\n        /* \"#utility.yul\":1689:1692   */\n      dup2\n        /* \"#utility.yul\":1684:1687   */\n      dup4\n        /* \"#utility.yul\":1671:1701   */\n      calldatacopy\n        /* \"#utility.yul\":1756:1757   */\n      0x00\n        /* \"#utility.yul\":1747:1753   */\n      dup4\n        /* \"#utility.yul\":1742:1745   */\n      dup4\n        /* \"#utility.yul\":1738:1754   */\n      add\n        /* \"#utility.yul\":1731:1758   */\n      mstore\n        /* \"#utility.yul\":1610:1764   */\n      pop\n      pop\n      pop\n      jump\t// out\n        /* \"#utility.yul\":1770:2182   */\n    tag_57:\n        /* \"#utility.yul\":1848:1853   */\n      0x00\n        /* \"#utility.yul\":1873:1939   */\n      tag_95\n        /* \"#utility.yul\":1889:1938   */\n      tag_96\n        /* \"#utility.yul\":1931:1937   */\n      dup5\n        /* \"#utility.yul\":1889:1938   */\n      tag_55\n      jump\t// in\n    tag_96:\n        /* \"#utility.yul\":1873:1939   */\n      tag_54\n      jump\t// in\n    tag_95:\n        /* \"#utility.yul\":1864:1939   */\n      swap1\n      pop\n        /* \"#utility.yul\":1962:1968   */\n      dup3\n        /* \"#utility.yul\":1955:1960   */\n      dup2\n        /* \"#utility.yul\":1948:1969   */\n      mstore\n        /* \"#utility.yul\":2000:2004   */\n      0x20\n        /* \"#utility.yul\":1993:1998   */\n      dup2\n        /* \"#utility.yul\":1989:2005   */\n      add\n        /* \"#utility.yul\":2038:2041   */\n      dup5\n        /* \"#utility.yul\":2029:2035   */\n      dup5\n        /* \"#utility.yul\":2024:2027   */\n      dup5\n        /* \"#utility.yul\":2020:2036   */\n      add\n        /* \"#utility.yul\":2017:2042   */\n      gt\n        /* \"#utility.yul\":2014:2126   */\n      iszero\n      tag_97\n      jumpi\n        /* \"#utility.yul\":2045:2124   */\n      tag_98\n      tag_50\n      jump\t// in\n    tag_98:\n        /* \"#utility.yul\":2014:2126   */\n    tag_97:\n        /* \"#utility.yul\":2135:2176   */\n      tag_99\n        /* \"#utility.yul\":2169:2175   */\n      dup5\n        /* \"#utility.yul\":2164:2167   */\n      dup3\n        /* \"#utility.yul\":2159:2162   */\n      dup6\n        /* \"#utility.yul\":2135:2176   */\n      tag_56\n      jump\t// in\n    tag_99:\n        /* \"#utility.yul\":1854:2182   */\n      pop\n        /* \"#utility.yul\":1770:2182   */\n      swap4\n      swap3\n      pop\n      pop\n      pop\n      jump\t// out\n        /* \"#utility.yul\":2202:2542   */\n    tag_58:\n        /* \"#utility.yul\":2258:2263   */\n      0x00\n        /* \"#utility.yul\":2307:2310   */\n      dup3\n        /* \"#utility.yul\":2300:2304   */\n      0x1f\n        /* \"#utility.yul\":2292:2298   */\n      dup4\n        /* \"#utility.yul\":2288:2305   */\n      add\n        /* \"#utility.yul\":2284:2311   */\n      slt\n        /* \"#utility.yul\":2274:2396   */\n      tag_101\n      jumpi\n        /* \"#utility.yul\":2315:2394   */\n      tag_102\n      tag_49\n      jump\t// in\n    tag_102:\n        /* \"#utility.yul\":2274:2396   */\n    tag_101:\n        /* \"#utility.yul\":2432:2438   */\n      dup2\n        /* \"#utility.yul\":2419:2439   */\n      calldataload\n        /* \"#utility.yul\":2457:2536   */\n      tag_103\n        /* \"#utility.yul\":2532:2535   */\n      dup5\n        /* \"#utility.yul\":2524:2530   */\n      dup3\n        /* \"#utility.yul\":2517:2521   */\n      0x20\n        /* \"#utility.yul\":2509:2515   */\n      dup7\n        /* \"#utility.yul\":2505:2522   */\n      add\n        /* \"#utility.yul\":2457:2536   */\n      tag_57\n      jump\t// in\n    tag_103:\n        /* \"#utility.yul\":2448:2536   */\n      swap2\n      pop\n        /* \"#utility.yul\":2264:2542   */\n      pop\n        /* \"#utility.yul\":2202:2542   */\n      swap3\n      swap2\n      pop\n      pop\n      jump\t// out\n        /* \"#utility.yul\":2548:3057   */\n    tag_13:\n        /* \"#utility.yul\":2617:2623   */\n      0x00\n        /* \"#utility.yul\":2666:2668   */\n      0x20\n        /* \"#utility.yul\":2654:2663   */\n      dup3\n        /* \"#utility.yul\":2645:2652   */\n      dup5\n        /* \"#utility.yul\":2641:2664   */\n      sub\n        /* \"#utility.yul\":2637:2669   */\n      slt\n        /* \"#utility.yul\":2634:2753   */\n      iszero\n      tag_105\n      jumpi\n        /* \"#utility.yul\":2672:2751   */\n      tag_106\n      tag_47\n      jump\t// in\n    tag_106:\n        /* \"#utility.yul\":2634:2753   */\n    tag_105:\n        /* \"#utility.yul\":2820:2821   */\n      0x00\n        /* \"#utility.yul\":2809:2818   */\n      dup3\n        /* \"#utility.yul\":2805:2822   */\n      add\n        /* \"#utility.yul\":2792:2823   */\n      calldataload\n        /* \"#utility.yul\":2850:2868   */\n      0xffffffffffffffff\n        /* \"#utility.yul\":2842:2848   */\n      dup2\n        /* \"#utility.yul\":2839:2869   */\n      gt\n        /* \"#utility.yul\":2836:2953   */\n      iszero\n      tag_107\n      jumpi\n        /* \"#utility.yul\":2872:2951   */\n      tag_108\n      tag_48\n      jump\t// in\n    tag_108:\n        /* \"#utility.yul\":2836:2953   */\n    tag_107:\n        /* \"#utility.yul\":2977:3040   */\n      tag_109\n        /* \"#utility.yul\":3032:3039   */\n      dup5\n        /* \"#utility.yul\":3023:3029   */\n      dup3\n        /* \"#utility.yul\":3012:3021   */\n      dup6\n        /* \"#utility.yul\":3008:3030   */\n      add\n        /* \"#utility.yul\":2977:3040   */\n      tag_58\n      jump\t// in\n    tag_109:\n        /* \"#utility.yul\":2967:3040   */\n      swap2\n      pop\n        /* \"#utility.yul\":2763:3050   */\n      pop\n        /* \"#utility.yul\":2548:3057   */\n      swap3\n      swap2\n      pop\n      pop\n      jump\t// out\n        /* \"#utility.yul\":3063:3140   */\n    tag_59:\n        /* \"#utility.yul\":3100:3107   */\n      0x00\n        /* \"#utility.yul\":3129:3134   */\n      dup2\n        /* \"#utility.yul\":3118:3134   */\n      swap1\n      pop\n        /* \"#utility.yul\":3063:3140   */\n      swap2\n      swap1\n      pop\n      jump\t// out\n        /* \"#utility.yul\":3146:3268   */\n    tag_60:\n        /* \"#utility.yul\":3219:3243   */\n      tag_112\n        /* \"#utility.yul\":3237:3242   */\n      dup2\n        /* \"#utility.yul\":3219:3243   */\n      tag_59\n      jump\t// in\n    tag_112:\n        /* \"#utility.yul\":3212:3217   */\n      dup2\n        /* \"#utility.yul\":3209:3244   */\n      eq\n        /* \"#utility.yul\":3199:3262   */\n      tag_113\n      jumpi\n        /* \"#utility.yul\":3258:3259   */\n      0x00\n        /* \"#utility.yul\":3255:3256   */\n      dup1\n        /* \"#utility.yul\":3248:3260   */\n      revert\n        /* \"#utility.yul\":3199:3262   */\n    tag_113:\n        /* \"#utility.yul\":3146:3268   */\n      pop\n      jump\t// out\n        /* \"#utility.yul\":3274:3413   */\n    tag_61:\n        /* \"#utility.yul\":3320:3325   */\n      0x00\n        /* \"#utility.yul\":3358:3364   */\n      dup2\n        /* \"#utility.yul\":3345:3365   */\n      calldataload\n        /* \"#utility.yul\":3336:3365   */\n      swap1\n      pop\n        /* \"#utility.yul\":3374:3407   */\n      tag_115\n        /* \"#utility.yul\":3401:3406   */\n      dup2\n        /* \"#utility.yul\":3374:3407   */\n      tag_60\n      jump\t// in\n    tag_115:\n        /* \"#utility.yul\":3274:3413   */\n      swap3\n      swap2\n      pop\n      pop\n      jump\t// out\n        /* \"#utility.yul\":3419:3893   */\n    tag_17:\n        /* \"#utility.yul\":3487:3493   */\n      0x00\n        /* \"#utility.yul\":3495:3501   */\n      dup1\n        /* \"#utility.yul\":3544:3546   */\n      0x40\n        /* \"#utility.yul\":3532:3541   */\n      dup4\n        /* \"#utility.yul\":3523:3530   */\n      dup6\n        /* \"#utility.yul\":3519:3542   */\n      sub\n        /* \"#utility.yul\":3515:3547   */\n      slt\n        /* \"#utility.yul\":3512:3631   */\n      iszero\n      tag_117\n      jumpi\n        /* \"#utility.yul\":3550:3629   */\n      tag_118\n      tag_47\n      jump\t// in\n    tag_118:\n        /* \"#utility.yul\":3512:3631   */\n    tag_117:\n        /* \"#utility.yul\":3670:3671   */\n      0x00\n        /* \"#utility.yul\":3695:3748   */\n      tag_119\n        /* \"#utility.yul\":3740:3747   */\n      dup6\n        /* \"#utility.yul\":3731:3737   */\n      dup3\n        /* \"#utility.yul\":3720:3729   */\n      dup7\n        /* \"#utility.yul\":3716:3738   */\n      add\n        /* \"#utility.yul\":3695:3748   */\n      tag_61\n      jump\t// in\n    tag_119:\n        /* \"#utility.yul\":3685:3748   */\n      swap3\n      pop\n        /* \"#utility.yul\":3641:3758   */\n      pop\n        /* \"#utility.yul\":3797:3799   */\n      0x20\n        /* \"#utility.yul\":3823:3876   */\n      tag_120\n        /* \"#utility.yul\":3868:3875   */\n      dup6\n        /* \"#utility.yul\":3859:3865   */\n      dup3\n        /* \"#utility.yul\":3848:3857   */\n      dup7\n        /* \"#utility.yul\":3844:3866   */\n      add\n        /* \"#utility.yul\":3823:3876   */\n      tag_61\n      jump\t// in\n    tag_120:\n        /* \"#utility.yul\":3813:3876   */\n      swap2\n      pop\n        /* \"#utility.yul\":3768:3886   */\n      pop\n        /* \"#utility.yul\":3419:3893   */\n      swap3\n      pop\n      swap3\n      swap1\n      pop\n      jump\t// out\n        /* \"#utility.yul\":3899:3989   */\n    tag_62:\n        /* \"#utility.yul\":3933:3940   */\n      0x00\n        /* \"#utility.yul\":3976:3981   */\n      dup2\n        /* \"#utility.yul\":3969:3982   */\n      iszero\n        /* \"#utility.yul\":3962:3983   */\n      iszero\n        /* \"#utility.yul\":3951:3983   */\n      swap1\n      pop\n        /* \"#utility.yul\":3899:3989   */\n      swap2\n      swap1\n      pop\n      jump\t// out\n        /* \"#utility.yul\":3995:4104   */\n    tag_63:\n        /* \"#utility.yul\":4076:4097   */\n      tag_123\n        /* \"#utility.yul\":4091:4096   */\n      dup2\n        /* \"#utility.yul\":4076:4097   */\n      tag_62\n      jump\t// in\n    tag_123:\n        /* \"#utility.yul\":4071:4074   */\n      dup3\n        /* \"#utility.yul\":4064:4098   */\n      mstore\n        /* \"#utility.yul\":3995:4104   */\n      pop\n      pop\n      jump\t// out\n        /* \"#utility.yul\":4110:4320   */\n    tag_20:\n        /* \"#utility.yul\":4197:4201   */\n      0x00\n        /* \"#utility.yul\":4235:4237   */\n      0x20\n        /* \"#utility.yul\":4224:4233   */\n      dup3\n        /* \"#utility.yul\":4220:4238   */\n      add\n        /* \"#utility.yul\":4212:4238   */\n      swap1\n      pop\n        /* \"#utility.yul\":4248:4313   */\n      tag_125\n        /* \"#utility.yul\":4310:4311   */\n      0x00\n        /* \"#utility.yul\":4299:4308   */\n      dup4\n        /* \"#utility.yul\":4295:4312   */\n      add\n        /* \"#utility.yul\":4286:4292   */\n      dup5\n        /* \"#utility.yul\":4248:4313   */\n      tag_63\n      jump\t// in\n    tag_125:\n        /* \"#utility.yul\":4110:4320   */\n      swap3\n      swap2\n      pop\n      pop\n      jump\t// out\n        /* \"#utility.yul\":4326:4452   */\n    tag_64:\n        /* \"#utility.yul\":4363:4370   */\n      0x00\n        /* \"#utility.yul\":4403:4445   */\n      0xffffffffffffffffffffffffffffffffffffffff\n        /* \"#utility.yul\":4396:4401   */\n      dup3\n        /* \"#utility.yul\":4392:4446   */\n      and\n        /* \"#utility.yul\":4381:4446   */\n      swap1\n      pop\n        /* \"#utility.yul\":4326:4452   */\n      swap2\n      swap1\n      pop\n      jump\t// out\n        /* \"#utility.yul\":4458:4554   */\n    tag_65:\n        /* \"#utility.yul\":4495:4502   */\n      0x00\n        /* \"#utility.yul\":4524:4548   */\n      tag_128\n        /* \"#utility.yul\":4542:4547   */\n      dup3\n        /* \"#utility.yul\":4524:4548   */\n      tag_64\n      jump\t// in\n    tag_128:\n        /* \"#utility.yul\":4513:4548   */\n      swap1\n      pop\n        /* \"#utility.yul\":4458:4554   */\n      swap2\n      swap1\n      pop\n      jump\t// out\n        /* \"#utility.yul\":4560:4682   */\n    tag_66:\n        /* \"#utility.yul\":4633:4657   */\n      tag_130\n        /* \"#utility.yul\":4651:4656   */\n      dup2\n        /* \"#utility.yul\":4633:4657   */\n      tag_65\n      jump\t// in\n    tag_130:\n        /* \"#utility.yul\":4626:4631   */\n      dup2\n        /* \"#utility.yul\":4623:4658   */\n      eq\n        /* \"#utility.yul\":4613:4676   */\n      tag_131\n      jumpi\n        /* \"#utility.yul\":4672:4673   */\n      0x00\n        /* \"#utility.yul\":4669:4670   */\n      dup1\n        /* \"#utility.yul\":4662:4674   */\n      revert\n        /* \"#utility.yul\":4613:4676   */\n    tag_131:\n        /* \"#utility.yul\":4560:4682   */\n      pop\n      jump\t// out\n        /* \"#utility.yul\":4688:4827   */\n    tag_67:\n        /* \"#utility.yul\":4734:4739   */\n      0x00\n        /* \"#utility.yul\":4772:4778   */\n      dup2\n        /* \"#utility.yul\":4759:4779   */\n      calldataload\n        /* \"#utility.yul\":4750:4779   */\n      swap1\n      pop\n        /* \"#utility.yul\":4788:4821   */\n      tag_133\n        /* \"#utility.yul\":4815:4820   */\n      dup2\n        /* \"#utility.yul\":4788:4821   */\n      tag_66\n      jump\t// in\n    tag_133:\n        /* \"#utility.yul\":4688:4827   */\n      swap3\n      swap2\n      pop\n      pop\n      jump\t// out\n        /* \"#utility.yul\":4833:5162   */\n    tag_23:\n        /* \"#utility.yul\":4892:4898   */\n      0x00\n        /* \"#utility.yul\":4941:4943   */\n      0x20\n        /* \"#utility.yul\":4929:4938   */\n      dup3\n        /* \"#utility.yul\":4920:4927   */\n      dup5\n        /* \"#utility.yul\":4916:4939   */\n      sub\n        /* \"#utility.yul\":4912:4944   */\n      slt\n        /* \"#utility.yul\":4909:5028   */\n      iszero\n      tag_135\n      jumpi\n        /* \"#utility.yul\":4947:5026   */\n      tag_136\n      tag_47\n      jump\t// in\n    tag_136:\n        /* \"#utility.yul\":4909:5028   */\n    tag_135:\n        /* \"#utility.yul\":5067:5068   */\n      0x00\n        /* \"#utility.yul\":5092:5145   */\n      tag_137\n        /* \"#utility.yul\":5137:5144   */\n      dup5\n        /* \"#utility.yul\":5128:5134   */\n      dup3\n        /* \"#utility.yul\":5117:5126   */\n      dup6\n        /* \"#utility.yul\":5113:5135   */\n      add\n        /* \"#utility.yul\":5092:5145   */\n      tag_67\n      jump\t// in\n    tag_137:\n        /* \"#utility.yul\":5082:5145   */\n      swap2\n      pop\n        /* \"#utility.yul\":5038:5155   */\n      pop\n        /* \"#utility.yul\":4833:5162   */\n      swap3\n      swap2\n      pop\n      pop\n      jump\t// out\n        /* \"#utility.yul\":5168:5284   */\n    tag_68:\n        /* \"#utility.yul\":5238:5259   */\n      tag_139\n        /* \"#utility.yul\":5253:5258   */\n      dup2\n        /* \"#utility.yul\":5238:5259   */\n      tag_62\n      jump\t// in\n    tag_139:\n        /* \"#utility.yul\":5231:5236   */\n      dup2\n        /* \"#utility.yul\":5228:5260   */\n      eq\n        /* \"#utility.yul\":5218:5278   */\n      tag_140\n      jumpi\n        /* \"#utility.yul\":5274:5275   */\n      0x00\n        /* \"#utility.yul\":5271:5272   */\n      dup1\n        /* \"#utility.yul\":5264:5276   */\n      revert\n        /* \"#utility.yul\":5218:5278   */\n    tag_140:\n        /* \"#utility.yul\":5168:5284   */\n      pop\n      jump\t// out\n        /* \"#utility.yul\":5290:5423   */\n    tag_69:\n        /* \"#utility.yul\":5333:5338   */\n      0x00\n        /* \"#utility.yul\":5371:5377   */\n      dup2\n        /* \"#utility.yul\":5358:5378   */\n      calldataload\n        /* \"#utility.yul\":5349:5378   */\n      swap1\n      pop\n        /* \"#utility.yul\":5387:5417   */\n      tag_142\n        /* \"#utility.yul\":5411:5416   */\n      dup2\n        /* \"#utility.yul\":5387:5417   */\n      tag_68\n      jump\t// in\n    tag_142:\n        /* \"#utility.yul\":5290:5423   */\n      swap3\n      swap2\n      pop\n      pop\n      jump\t// out\n        /* \"#utility.yul\":5429:6042   */\n    tag_28:\n        /* \"#utility.yul\":5503:5509   */\n      0x00\n        /* \"#utility.yul\":5511:5517   */\n      dup1\n        /* \"#utility.yul\":5519:5525   */\n      0x00\n        /* \"#utility.yul\":5568:5570   */\n      0x60\n        /* \"#utility.yul\":5556:5565   */\n      dup5\n        /* \"#utility.yul\":5547:5554   */\n      dup7\n        /* \"#utility.yul\":5543:5566   */\n      sub\n        /* \"#utility.yul\":5539:5571   */\n      slt\n        /* \"#utility.yul\":5536:5655   */\n      iszero\n      tag_144\n      jumpi\n        /* \"#utility.yul\":5574:5653   */\n      tag_145\n      tag_47\n      jump\t// in\n    tag_145:\n        /* \"#utility.yul\":5536:5655   */\n    tag_144:\n        /* \"#utility.yul\":5694:5695   */\n      0x00\n        /* \"#utility.yul\":5719:5772   */\n      tag_146\n        /* \"#utility.yul\":5764:5771   */\n      dup7\n        /* \"#utility.yul\":5755:5761   */\n      dup3\n        /* \"#utility.yul\":5744:5753   */\n      dup8\n        /* \"#utility.yul\":5740:5762   */\n      add\n        /* \"#utility.yul\":5719:5772   */\n      tag_61\n      jump\t// in\n    tag_146:\n        /* \"#utility.yul\":5709:5772   */\n      swap4\n      pop\n        /* \"#utility.yul\":5665:5782   */\n      pop\n        /* \"#utility.yul\":5821:5823   */\n      0x20\n        /* \"#utility.yul\":5847:5900   */\n      tag_147\n        /* \"#utility.yul\":5892:5899   */\n      dup7\n        /* \"#utility.yul\":5883:5889   */\n      dup3\n        /* \"#utility.yul\":5872:5881   */\n      dup8\n        /* \"#utility.yul\":5868:5890   */\n      add\n        /* \"#utility.yul\":5847:5900   */\n      tag_61\n      jump\t// in\n    tag_147:\n        /* \"#utility.yul\":5837:5900   */\n      swap3\n      pop\n        /* \"#utility.yul\":5792:5910   */\n      pop\n        /* \"#utility.yul\":5949:5951   */\n      0x40\n        /* \"#utility.yul\":5975:6025   */\n      tag_148\n        /* \"#utility.yul\":6017:6024   */\n      dup7\n        /* \"#utility.yul\":6008:6014   */\n      dup3\n        /* \"#utility.yul\":5997:6006   */\n      dup8\n        /* \"#utility.yul\":5993:6015   */\n      add\n        /* \"#utility.yul\":5975:6025   */\n      tag_69\n      jump\t// in\n    tag_148:\n        /* \"#utility.yul\":5965:6025   */\n      swap2\n      pop\n        /* \"#utility.yul\":5920:6035   */\n      pop\n        /* \"#utility.yul\":5429:6042   */\n      swap3\n      pop\n      swap3\n      pop\n      swap3\n      jump\t// out\n        /* \"#utility.yul\":6048:6147   */\n    tag_70:\n        /* \"#utility.yul\":6100:6106   */\n      0x00\n        /* \"#utility.yul\":6134:6139   */\n      dup2\n        /* \"#utility.yul\":6128:6140   */\n      mload\n        /* \"#utility.yul\":6118:6140   */\n      swap1\n      pop\n        /* \"#utility.yul\":6048:6147   */\n      swap2\n      swap1\n      pop\n      jump\t// out\n        /* \"#utility.yul\":6153:6301   */\n    tag_71:\n        /* \"#utility.yul\":6255:6266   */\n      0x00\n        /* \"#utility.yul\":6292:6295   */\n      dup2\n        /* \"#utility.yul\":6277:6295   */\n      swap1\n      pop\n        /* \"#utility.yul\":6153:6301   */\n      swap3\n      swap2\n      pop\n      pop\n      jump\t// out\n        /* \"#utility.yul\":6307:6614   */\n    tag_72:\n        /* \"#utility.yul\":6375:6376   */\n      0x00\n        /* \"#utility.yul\":6385:6498   */\n    tag_152:\n        /* \"#utility.yul\":6399:6405   */\n      dup4\n        /* \"#utility.yul\":6396:6397   */\n      dup2\n        /* \"#utility.yul\":6393:6406   */\n      lt\n        /* \"#utility.yul\":6385:6498   */\n      iszero\n      tag_154\n      jumpi\n        /* \"#utility.yul\":6484:6485   */\n      dup1\n        /* \"#utility.yul\":6479:6482   */\n      dup3\n        /* \"#utility.yul\":6475:6486   */\n      add\n        /* \"#utility.yul\":6469:6487   */\n      mload\n        /* \"#utility.yul\":6465:6466   */\n      dup2\n        /* \"#utility.yul\":6460:6463   */\n      dup5\n        /* \"#utility.yul\":6456:6467   */\n      add\n        /* \"#utility.yul\":6449:6488   */\n      mstore\n        /* \"#utility.yul\":6421:6423   */\n      0x20\n        /* \"#utility.yul\":6418:6419   */\n      dup2\n        /* \"#utility.yul\":6414:6424   */\n      add\n        /* \"#utility.yul\":6409:6424   */\n      swap1\n      pop\n        /* \"#utility.yul\":6385:6498   */\n      jump(tag_152)\n    tag_154:\n        /* \"#utility.yul\":6516:6522   */\n      dup4\n        /* \"#utility.yul\":6513:6514   */\n      dup2\n        /* \"#utility.yul\":6510:6523   */\n      gt\n        /* \"#utility.yul\":6507:6608   */\n      iszero\n      tag_155\n      jumpi\n        /* \"#utility.yul\":6596:6597   */\n      0x00\n        /* \"#utility.yul\":6587:6593   */\n      dup5\n        /* \"#utility.yul\":6582:6585   */\n      dup5\n        /* \"#utility.yul\":6578:6594   */\n      add\n        /* \"#utility.yul\":6571:6598   */\n      mstore\n        /* \"#utility.yul\":6507:6608   */\n    tag_155:\n        /* \"#utility.yul\":6356:6614   */\n      pop\n        /* \"#utility.yul\":6307:6614   */\n      pop\n      pop\n      pop\n      jump\t// out\n        /* \"#utility.yul\":6620:6997   */\n    tag_73:\n        /* \"#utility.yul\":6726:6729   */\n      0x00\n        /* \"#utility.yul\":6754:6793   */\n      tag_157\n        /* \"#utility.yul\":6787:6792   */\n      dup3\n        /* \"#utility.yul\":6754:6793   */\n      tag_70\n      jump\t// in\n    tag_157:\n        /* \"#utility.yul\":6809:6898   */\n      tag_158\n        /* \"#utility.yul\":6891:6897   */\n      dup2\n        /* \"#utility.yul\":6886:6889   */\n      dup6\n        /* \"#utility.yul\":6809:6898   */\n      tag_71\n      jump\t// in\n    tag_158:\n        /* \"#utility.yul\":6802:6898   */\n      swap4\n      pop\n        /* \"#utility.yul\":6907:6959   */\n      tag_159\n        /* \"#utility.yul\":6952:6958   */\n      dup2\n        /* \"#utility.yul\":6947:6950   */\n      dup6\n        /* \"#utility.yul\":6940:6944   */\n      0x20\n        /* \"#utility.yul\":6933:6938   */\n      dup7\n        /* \"#utility.yul\":6929:6945   */\n      add\n        /* \"#utility.yul\":6907:6959   */\n      tag_72\n      jump\t// in\n    tag_159:\n        /* \"#utility.yul\":6984:6990   */\n      dup1\n        /* \"#utility.yul\":6979:6982   */\n      dup5\n        /* \"#utility.yul\":6975:6991   */\n      add\n        /* \"#utility.yul\":6968:6991   */\n      swap2\n      pop\n        /* \"#utility.yul\":6730:6997   */\n      pop\n        /* \"#utility.yul\":6620:6997   */\n      swap3\n      swap2\n      pop\n      pop\n      jump\t// out\n        /* \"#utility.yul\":7003:7278   */\n    tag_42:\n        /* \"#utility.yul\":7135:7138   */\n      0x00\n        /* \"#utility.yul\":7157:7252   */\n      tag_161\n        /* \"#utility.yul\":7248:7251   */\n      dup3\n        /* \"#utility.yul\":7239:7245   */\n      dup5\n        /* \"#utility.yul\":7157:7252   */\n      tag_73\n      jump\t// in\n    tag_161:\n        /* \"#utility.yul\":7150:7252   */\n      swap2\n      pop\n        /* \"#utility.yul\":7269:7272   */\n      dup2\n        /* \"#utility.yul\":7262:7272   */\n      swap1\n      pop\n        /* \"#utility.yul\":7003:7278   */\n      swap3\n      swap2\n      pop\n      pop\n      jump\t// out\n\n    auxdata: 0xa2646970667358221220a3093ec8ae1877d15203b468f04b544658a185c079367852577509742900318b64736f6c634300080f0033\n}\n",
				"bytecode": {
					"linkReferences": {},
					"object": "608060405234801561001057600080fd5b50610739806100206000396000f3fe608060405234801561001057600080fd5b506004361061007d5760003560e01c8063af09ce221161005b578063af09ce22146100fe578063b95ea4041461011a578063d9e01d9d14610124578063da77d4e4146101545761007d565b8063208718dc1461008257806324083b8b1461009e5780634ed989f0146100ce575b600080fd5b61009c60048036038101906100979190610473565b610184565b005b6100b860048036038101906100b391906104f2565b6101be565b6040516100c5919061054d565b60405180910390f35b6100e860048036038101906100e391906105c6565b6101ed565b6040516100f5919061054d565b60405180910390f35b6101186004803603810190610113919061061f565b61020d565b005b61012261024e565b005b61013e60048036038101906101399190610473565b6102a7565b60405161014b919061054d565b60405180910390f35b61016e600480360381019061016991906104f2565b6102dd565b60405161017b919061054d565b60405180910390f35b600160008260405161019691906106ec565b908152602001604051809103902060006101000a81548160ff02191690831515021790555050565b60026020528160005260406000206020528060005260406000206000915091509054906101000a900460ff1681565b60016020528060005260406000206000915054906101000a900460ff1681565b8060026000858152602001908152602001600020600084815260200190815260200160002060006101000a81548160ff021916908315150217905550505050565b60018060003373ffffffffffffffffffffffffffffffffffffffff1673ffffffffffffffffffffffffffffffffffffffff16815260200190815260200160002060006101000a81548160ff021916908315150217905550565b6000818051602081018201805184825260208301602085012081835280955050505050506000915054906101000a900460ff1681565b600060026000848152602001908152602001600020600083815260200190815260200160002060009054906101000a900460ff16905092915050565b6000604051905090565b600080fd5b600080fd5b600080fd5b600080fd5b6000601f19601f8301169050919050565b7f4e487b7100000000000000000000000000000000000000000000000000000000600052604160045260246000fd5b61038082610337565b810181811067ffffffffffffffff8211171561039f5761039e610348565b5b80604052505050565b60006103b2610319565b90506103be8282610377565b919050565b600067ffffffffffffffff8211156103de576103dd610348565b5b6103e782610337565b9050602081019050919050565b82818337600083830152505050565b6000610416610411846103c3565b6103a8565b90508281526020810184848401111561043257610431610332565b5b61043d8482856103f4565b509392505050565b600082601f83011261045a5761045961032d565b5b813561046a848260208601610403565b91505092915050565b60006020828403121561048957610488610323565b5b600082013567ffffffffffffffff8111156104a7576104a6610328565b5b6104b384828501610445565b91505092915050565b6000819050919050565b6104cf816104bc565b81146104da57600080fd5b50565b6000813590506104ec816104c6565b92915050565b6000806040838503121561050957610508610323565b5b6000610517858286016104dd565b9250506020610528858286016104dd565b9150509250929050565b60008115159050919050565b61054781610532565b82525050565b6000602082019050610562600083018461053e565b92915050565b600073ffffffffffffffffffffffffffffffffffffffff82169050919050565b600061059382610568565b9050919050565b6105a381610588565b81146105ae57600080fd5b50565b6000813590506105c08161059a565b92915050565b6000602082840312156105dc576105db610323565b5b60006105ea848285016105b1565b91505092915050565b6105fc81610532565b811461060757600080fd5b50565b600081359050610619816105f3565b92915050565b60008060006060848603121561063857610637610323565b5b6000610646868287016104dd565b9350506020610657868287016104dd565b92505060406106688682870161060a565b9150509250925092565b600081519050919050565b600081905092915050565b60005b838110156106a657808201518184015260208101905061068b565b838111156106b5576000848401525b50505050565b60006106c682610672565b6106d0818561067d565b93506106e0818560208601610688565b80840191505092915050565b60006106f882846106bb565b91508190509291505056fea2646970667358221220a3093ec8ae1877d15203b468f04b544658a185c079367852577509742900318b64736f6c634300080f0033",
					"opcodes": "PUSH1 0x80 PUSH1 0x40 MSTORE CALLVALUE DUP1 ISZERO PUSH2 0x10 JUMPI PUSH1 0x0 DUP1 REVERT JUMPDEST POP PUSH2 0x739 DUP1 PUSH2 0x20 PUSH1 0x0 CODECOPY PUSH1 0x0 RETURN INVALID PUSH1 0x80 PUSH1 0x40 MSTORE CALLVALUE DUP1 ISZERO PUSH2 0x10 JUMPI PUSH1 0x0 DUP1 REVERT JUMPDEST POP PUSH1 0x4 CALLDATASIZE LT PUSH2 0x7D JUMPI PUSH1 0x0 CALLDATALOAD PUSH1 0xE0 SHR DUP1 PUSH4 0xAF09CE22 GT PUSH2 0x5B JUMPI DUP1 PUSH4 0xAF09CE22 EQ PUSH2 0xFE JUMPI DUP1 PUSH4 0xB95EA404 EQ PUSH2 0x11A JUMPI DUP1 PUSH4 0xD9E01D9D EQ PUSH2 0x124 JUMPI DUP1 PUSH4 0xDA77D4E4 EQ PUSH2 0x154 JUMPI PUSH2 0x7D JUMP JUMPDEST DUP1 PUSH4 0x208718DC EQ PUSH2 0x82 JUMPI DUP1 PUSH4 0x24083B8B EQ PUSH2 0x9E JUMPI DUP1 PUSH4 0x4ED989F0 EQ PUSH2 0xCE JUMPI JUMPDEST PUSH1 0x0 DUP1 REVERT JUMPDEST PUSH2 0x9C PUSH1 0x4 DUP1 CALLDATASIZE SUB DUP2 ADD SWAP1 PUSH2 0x97 SWAP2 SWAP1 PUSH2 0x473 JUMP JUMPDEST PUSH2 0x184 JUMP JUMPDEST STOP JUMPDEST PUSH2 0xB8 PUSH1 0x4 DUP1 CALLDATASIZE SUB DUP2 ADD SWAP1 PUSH2 0xB3 SWAP2 SWAP1 PUSH2 0x4F2 JUMP JUMPDEST PUSH2 0x1BE JUMP JUMPDEST PUSH1 0x40 MLOAD PUSH2 0xC5 SWAP2 SWAP1 PUSH2 0x54D JUMP JUMPDEST PUSH1 0x40 MLOAD DUP1 SWAP2 SUB SWAP1 RETURN JUMPDEST PUSH2 0xE8 PUSH1 0x4 DUP1 CALLDATASIZE SUB DUP2 ADD SWAP1 PUSH2 0xE3 SWAP2 SWAP1 PUSH2 0x5C6 JUMP JUMPDEST PUSH2 0x1ED JUMP JUMPDEST PUSH1 0x40 MLOAD PUSH2 0xF5 SWAP2 SWAP1 PUSH2 0x54D JUMP JUMPDEST PUSH1 0x40 MLOAD DUP1 SWAP2 SUB SWAP1 RETURN JUMPDEST PUSH2 0x118 PUSH1 0x4 DUP1 CALLDATASIZE SUB DUP2 ADD SWAP1 PUSH2 0x113 SWAP2 SWAP1 PUSH2 0x61F JUMP JUMPDEST PUSH2 0x20D JUMP JUMPDEST STOP JUMPDEST PUSH2 0x122 PUSH2 0x24E JUMP JUMPDEST STOP JUMPDEST PUSH2 0x13E PUSH1 0x4 DUP1 CALLDATASIZE SUB DUP2 ADD SWAP1 PUSH2 0x139 SWAP2 SWAP1 PUSH2 0x473 JUMP JUMPDEST PUSH2 0x2A7 JUMP JUMPDEST PUSH1 0x40 MLOAD PUSH2 0x14B SWAP2 SWAP1 PUSH2 0x54D JUMP JUMPDEST PUSH1 0x40 MLOAD DUP1 SWAP2 SUB SWAP1 RETURN JUMPDEST PUSH2 0x16E PUSH1 0x4 DUP1 CALLDATASIZE SUB DUP2 ADD SWAP1 PUSH2 0x169 SWAP2 SWAP1 PUSH2 0x4F2 JUMP JUMPDEST PUSH2 0x2DD JUMP JUMPDEST PUSH1 0x40 MLOAD PUSH2 0x17B SWAP2 SWAP1 PUSH2 0x54D JUMP JUMPDEST PUSH1 0x40 MLOAD DUP1 SWAP2 SUB SWAP1 RETURN JUMPDEST PUSH1 0x1 PUSH1 0x0 DUP3 PUSH1 0x40 MLOAD PUSH2 0x196 SWAP2 SWAP1 PUSH2 0x6EC JUMP JUMPDEST SWAP1 DUP2 MSTORE PUSH1 0x20 ADD PUSH1 0x40 MLOAD DUP1 SWAP2 SUB SWAP1 KECCAK256 PUSH1 0x0 PUSH2 0x100 EXP DUP2 SLOAD DUP2 PUSH1 0xFF MUL NOT AND SWAP1 DUP4 ISZERO ISZERO MUL OR SWAP1 SSTORE POP POP JUMP JUMPDEST PUSH1 0x2 PUSH1 0x20 MSTORE DUP2 PUSH1 0x0 MSTORE PUSH1 0x40 PUSH1 0x0 KECCAK256 PUSH1 0x20 MSTORE DUP1 PUSH1 0x0 MSTORE PUSH1 0x40 PUSH1 0x0 KECCAK256 PUSH1 0x0 SWAP2 POP SWAP2 POP SWAP1 SLOAD SWAP1 PUSH2 0x100 EXP SWAP1 DIV PUSH1 0xFF AND DUP2 JUMP JUMPDEST PUSH1 0x1 PUSH1 0x20 MSTORE DUP1 PUSH1 0x0 MSTORE PUSH1 0x40 PUSH1 0x0 KECCAK256 PUSH1 0x0 SWAP2 POP SLOAD SWAP1 PUSH2 0x100 EXP SWAP1 DIV PUSH1 0xFF AND DUP2 JUMP JUMPDEST DUP1 PUSH1 0x2 PUSH1 0x0 DUP6 DUP2 MSTORE PUSH1 0x20 ADD SWAP1 DUP2 MSTORE PUSH1 0x20 ADD PUSH1 0x0 KECCAK256 PUSH1 0x0 DUP5 DUP2 MSTORE PUSH1 0x20 ADD SWAP1 DUP2 MSTORE PUSH1 0x20 ADD PUSH1 0x0 KECCAK256 PUSH1 0x0 PUSH2 0x100 EXP DUP2 SLOAD DUP2 PUSH1 0xFF MUL NOT AND SWAP1 DUP4 ISZERO ISZERO MUL OR SWAP1 SSTORE POP POP POP POP JUMP JUMPDEST PUSH1 0x1 DUP1 PUSH1 0x0 CALLER PUSH20 0xFFFFFFFFFFFFFFFFFFFFFFFFFFFFFFFFFFFFFFFF AND PUSH20 0xFFFFFFFFFFFFFFFFFFFFFFFFFFFFFFFFFFFFFFFF AND DUP2 MSTORE PUSH1 0x20 ADD SWAP1 DUP2 MSTORE PUSH1 0x20 ADD PUSH1 0x0 KECCAK256 PUSH1 0x0 PUSH2 0x100 EXP DUP2 SLOAD DUP2 PUSH1 0xFF MUL NOT AND SWAP1 DUP4 ISZERO ISZERO MUL OR SWAP1 SSTORE POP JUMP JUMPDEST PUSH1 0x0 DUP2 DUP1 MLOAD PUSH1 0x20 DUP2 ADD DUP3 ADD DUP1 MLOAD DUP5 DUP3 MSTORE PUSH1 0x20 DUP4 ADD PUSH1 0x20 DUP6 ADD KECCAK256 DUP2 DUP4 MSTORE DUP1 SWAP6 POP POP POP POP POP POP PUSH1 0x0 SWAP2 POP SLOAD SWAP1 PUSH2 0x100 EXP SWAP1 DIV PUSH1 0xFF AND DUP2 JUMP JUMPDEST PUSH1 0x0 PUSH1 0x2 PUSH1 0x0 DUP5 DUP2 MSTORE PUSH1 0x20 ADD SWAP1 DUP2 MSTORE PUSH1 0x20 ADD PUSH1 0x0 KECCAK256 PUSH1 0x0 DUP4 DUP2 MSTORE PUSH1 0x20 ADD SWAP1 DUP2 MSTORE PUSH1 0x20 ADD PUSH1 0x0 KECCAK256 PUSH1 0x0 SWAP1 SLOAD SWAP1 PUSH2 0x100 EXP SWAP1 DIV PUSH1 0xFF AND SWAP1 POP SWAP3 SWAP2 POP POP JUMP JUMPDEST PUSH1 0x0 PUSH1 0x40 MLOAD SWAP1 POP SWAP1 JUMP JUMPDEST PUSH1 0x0 DUP1 REVERT JUMPDEST PUSH1 0x0 DUP1 REVERT JUMPDEST PUSH1 0x0 DUP1 REVERT JUMPDEST PUSH1 0x0 DUP1 REVERT JUMPDEST PUSH1 0x0 PUSH1 0x1F NOT PUSH1 0x1F DUP4 ADD AND SWAP1 POP SWAP2 SWAP1 POP JUMP JUMPDEST PUSH32 0x4E487B7100000000000000000000000000000000000000000000000000000000 PUSH1 0x0 MSTORE PUSH1 0x41 PUSH1 0x4 MSTORE PUSH1 0x24 PUSH1 0x0 REVERT JUMPDEST PUSH2 0x380 DUP3 PUSH2 0x337 JUMP JUMPDEST DUP2 ADD DUP2 DUP2 LT PUSH8 0xFFFFFFFFFFFFFFFF DUP3 GT OR ISZERO PUSH2 0x39F JUMPI PUSH2 0x39E PUSH2 0x348 JUMP JUMPDEST JUMPDEST DUP1 PUSH1 0x40 MSTORE POP POP POP JUMP JUMPDEST PUSH1 0x0 PUSH2 0x3B2 PUSH2 0x319 JUMP JUMPDEST SWAP1 POP PUSH2 0x3BE DUP3 DUP3 PUSH2 0x377 JUMP JUMPDEST SWAP2 SWAP1 POP JUMP JUMPDEST PUSH1 0x0 PUSH8 0xFFFFFFFFFFFFFFFF DUP3 GT ISZERO PUSH2 0x3DE JUMPI PUSH2 0x3DD PUSH2 0x348 JUMP JUMPDEST JUMPDEST PUSH2 0x3E7 DUP3 PUSH2 0x337 JUMP JUMPDEST SWAP1 POP PUSH1 0x20 DUP2 ADD SWAP1 POP SWAP2 SWAP1 POP JUMP JUMPDEST DUP3 DUP2 DUP4 CALLDATACOPY PUSH1 0x0 DUP4 DUP4 ADD MSTORE POP POP POP JUMP JUMPDEST PUSH1 0x0 PUSH2 0x416 PUSH2 0x411 DUP5 PUSH2 0x3C3 JUMP JUMPDEST PUSH2 0x3A8 JUMP JUMPDEST SWAP1 POP DUP3 DUP2 MSTORE PUSH1 0x20 DUP2 ADD DUP5 DUP5 DUP5 ADD GT ISZERO PUSH2 0x432 JUMPI PUSH2 0x431 PUSH2 0x332 JUMP JUMPDEST JUMPDEST PUSH2 0x43D DUP5 DUP3 DUP6 PUSH2 0x3F4 JUMP JUMPDEST POP SWAP4 SWAP3 POP POP POP JUMP JUMPDEST PUSH1 0x0 DUP3 PUSH1 0x1F DUP4 ADD SLT PUSH2 0x45A JUMPI PUSH2 0x459 PUSH2 0x32D JUMP JUMPDEST JUMPDEST DUP2 CALLDATALOAD PUSH2 0x46A DUP5 DUP3 PUSH1 0x20 DUP7 ADD PUSH2 0x403 JUMP JUMPDEST SWAP2 POP POP SWAP3 SWAP2 POP POP JUMP JUMPDEST PUSH1 0x0 PUSH1 0x20 DUP3 DUP5 SUB SLT ISZERO PUSH2 0x489 JUMPI PUSH2 0x488 PUSH2 0x323 JUMP JUMPDEST JUMPDEST PUSH1 0x0 DUP3 ADD CALLDATALOAD PUSH8 0xFFFFFFFFFFFFFFFF DUP2 GT ISZERO PUSH2 0x4A7 JUMPI PUSH2 0x4A6 PUSH2 0x328 JUMP JUMPDEST JUMPDEST PUSH2 0x4B3 DUP5 DUP3 DUP6 ADD PUSH2 0x445 JUMP JUMPDEST SWAP2 POP POP SWAP3 SWAP2 POP POP JUMP JUMPDEST PUSH1 0x0 DUP2 SWAP1 POP SWAP2 SWAP1 POP JUMP JUMPDEST PUSH2 0x4CF DUP2 PUSH2 0x4BC JUMP JUMPDEST DUP2 EQ PUSH2 0x4DA JUMPI PUSH1 0x0 DUP1 REVERT JUMPDEST POP JUMP JUMPDEST PUSH1 0x0 DUP2 CALLDATALOAD SWAP1 POP PUSH2 0x4EC DUP2 PUSH2 0x4C6 JUMP JUMPDEST SWAP3 SWAP2 POP POP JUMP JUMPDEST PUSH1 0x0 DUP1 PUSH1 0x40 DUP4 DUP6 SUB SLT ISZERO PUSH2 0x509 JUMPI PUSH2 0x508 PUSH2 0x323 JUMP JUMPDEST JUMPDEST PUSH1 0x0 PUSH2 0x517 DUP6 DUP3 DUP7 ADD PUSH2 0x4DD JUMP JUMPDEST SWAP3 POP POP PUSH1 0x20 PUSH2 0x528 DUP6 DUP3 DUP7 ADD PUSH2 0x4DD JUMP JUMPDEST SWAP2 POP POP SWAP3 POP SWAP3 SWAP1 POP JUMP JUMPDEST PUSH1 0x0 DUP2 ISZERO ISZERO SWAP1 POP SWAP2 SWAP1 POP JUMP JUMPDEST PUSH2 0x547 DUP2 PUSH2 0x532 JUMP JUMPDEST DUP3 MSTORE POP POP JUMP JUMPDEST PUSH1 0x0 PUSH1 0x20 DUP3 ADD SWAP1 POP PUSH2 0x562 PUSH1 0x0 DUP4 ADD DUP5 PUSH2 0x53E JUMP JUMPDEST SWAP3 SWAP2 POP POP JUMP JUMPDEST PUSH1 0x0 PUSH20 0xFFFFFFFFFFFFFFFFFFFFFFFFFFFFFFFFFFFFFFFF DUP3 AND SWAP1 POP SWAP2 SWAP1 POP JUMP JUMPDEST PUSH1 0x0 PUSH2 0x593 DUP3 PUSH2 0x568 JUMP JUMPDEST SWAP1 POP SWAP2 SWAP1 POP JUMP JUMPDEST PUSH2 0x5A3 DUP2 PUSH2 0x588 JUMP JUMPDEST DUP2 EQ PUSH2 0x5AE JUMPI PUSH1 0x0 DUP1 REVERT JUMPDEST POP JUMP JUMPDEST PUSH1 0x0 DUP2 CALLDATALOAD SWAP1 POP PUSH2 0x5C0 DUP2 PUSH2 0x59A JUMP JUMPDEST SWAP3 SWAP2 POP POP JUMP JUMPDEST PUSH1 0x0 PUSH1 0x20 DUP3 DUP5 SUB SLT ISZERO PUSH2 0x5DC JUMPI PUSH2 0x5DB PUSH2 0x323 JUMP JUMPDEST JUMPDEST PUSH1 0x0 PUSH2 0x5EA DUP5 DUP3 DUP6 ADD PUSH2 0x5B1 JUMP JUMPDEST SWAP2 POP POP SWAP3 SWAP2 POP POP JUMP JUMPDEST PUSH2 0x5FC DUP2 PUSH2 0x532 JUMP JUMPDEST DUP2 EQ PUSH2 0x607 JUMPI PUSH1 0x0 DUP1 REVERT JUMPDEST POP JUMP JUMPDEST PUSH1 0x0 DUP2 CALLDATALOAD SWAP1 POP PUSH2 0x619 DUP2 PUSH2 0x5F3 JUMP JUMPDEST SWAP3 SWAP2 POP POP JUMP JUMPDEST PUSH1 0x0 DUP1 PUSH1 0x0 PUSH1 0x60 DUP5 DUP7 SUB SLT ISZERO PUSH2 0x638 JUMPI PUSH2 0x637 PUSH2 0x323 JUMP JUMPDEST JUMPDEST PUSH1 0x0 PUSH2 0x646 DUP7 DUP3 DUP8 ADD PUSH2 0x4DD JUMP JUMPDEST SWAP4 POP POP PUSH1 0x20 PUSH2 0x657 DUP7 DUP3 DUP8 ADD PUSH2 0x4DD JUMP JUMPDEST SWAP3 POP POP PUSH1 0x40 PUSH2 0x668 DUP7 DUP3 DUP8 ADD PUSH2 0x60A JUMP JUMPDEST SWAP2 POP POP SWAP3 POP SWAP3 POP SWAP3 JUMP JUMPDEST PUSH1 0x0 DUP2 MLOAD SWAP1 POP SWAP2 SWAP1 POP JUMP JUMPDEST PUSH1 0x0 DUP2 SWAP1 POP SWAP3 SWAP2 POP POP JUMP JUMPDEST PUSH1 0x0 JUMPDEST DUP4 DUP2 LT ISZERO PUSH2 0x6A6 JUMPI DUP1 DUP3 ADD MLOAD DUP2 DUP5 ADD MSTORE PUSH1 0x20 DUP2 ADD SWAP1 POP PUSH2 0x68B JUMP JUMPDEST DUP4 DUP2 GT ISZERO PUSH2 0x6B5 JUMPI PUSH1 0x0 DUP5 DUP5 ADD MSTORE JUMPDEST POP POP POP POP JUMP JUMPDEST PUSH1 0x0 PUSH2 0x6C6 DUP3 PUSH2 0x672 JUMP JUMPDEST PUSH2 0x6D0 DUP2 DUP6 PUSH2 0x67D JUMP JUMPDEST SWAP4 POP PUSH2 0x6E0 DUP2 DUP6 PUSH1 0x20 DUP7 ADD PUSH2 0x688 JUMP JUMPDEST DUP1 DUP5 ADD SWAP2 POP POP SWAP3 SWAP2 POP POP JUMP JUMPDEST PUSH1 0x0 PUSH2 0x6F8 DUP3 DUP5 PUSH2 0x6BB JUMP JUMPDEST SWAP2 POP DUP2 SWAP1 POP SWAP3 SWAP2 POP POP JUMP INVALID LOG2 PUSH5 0x6970667358 0x22 SLT KECCAK256 LOG3 MULMOD RETURNDATACOPY 0xC8 0xAE XOR PUSH24 0xD15203B468F04B544658A185C07936785257750974290031 DUP12 PUSH5 0x736F6C6343 STOP ADDMOD 0xF STOP CALLER "
				},
				"gasEstimates": {
					"creation": {
						"codeDepositCost": "369800",
						"executionCost": "405",
						"totalCost": "370205"
					},
					"external": {
						"Updateaddress()": "24522",
						"getmapping(uint256,uint256)": "infinite",
						"mymapping1(string)": "infinite",
						"mymapping2(address)": "2890",
						"nestedmapping(uint256,uint256)": "infinite",
						"setmapping(string)": "infinite",
						"setmapping(uint256,uint256,bool)": "infinite"
					}
				},
				"methodIdentifiers": {
					"Updateaddress()": "b95ea404",
					"getmapping(uint256,uint256)": "da77d4e4",
					"mymapping1(string)": "d9e01d9d",
					"mymapping2(address)": "4ed989f0",
					"nestedmapping(uint256,uint256)": "24083b8b",
					"setmapping(string)": "208718dc",
					"setmapping(uint256,uint256,bool)": "af09ce22"
				}
			},
			"storageLayout": {
				"storage": [
					{
						"astId": 5,
						"contract": "mappingeg.sol:mappings",
						"label": "mymapping1",
						"offset": 0,
						"slot": "0",
						"type": "t_mapping(t_string_memory_ptr,t_bool)"
					},
					{
						"astId": 9,
						"contract": "mappingeg.sol:mappings",
						"label": "mymapping2",
						"offset": 0,
						"slot": "1",
						"type": "t_mapping(t_address,t_bool)"
					},
					{
						"astId": 15,
						"contract": "mappingeg.sol:mappings",
						"label": "nestedmapping",
						"offset": 0,
						"slot": "2",
						"type": "t_mapping(t_uint256,t_mapping(t_uint256,t_bool))"
					}
				],
				"types": {
					"t_address": {
						"encoding": "inplace",
						"label": "address",
						"numberOfBytes": "20"
					},
					"t_bool": {
						"encoding": "inplace",
						"label": "bool",
						"numberOfBytes": "1"
					},
					"t_mapping(t_address,t_bool)": {
						"encoding": "mapping",
						"key": "t_address",
						"label": "mapping(address => bool)",
						"numberOfBytes": "32",
						"value": "t_bool"
					},
					"t_mapping(t_string_memory_ptr,t_bool)": {
						"encoding": "mapping",
						"key": "t_string_memory_ptr",
						"label": "mapping(string => bool)",
						"numberOfBytes": "32",
						"value": "t_bool"
					},
					"t_mapping(t_uint256,t_bool)": {
						"encoding": "mapping",
						"key": "t_uint256",
						"label": "mapping(uint256 => bool)",
						"numberOfBytes": "32",
						"value": "t_bool"
					},
					"t_mapping(t_uint256,t_mapping(t_uint256,t_bool))": {
						"encoding": "mapping",
						"key": "t_uint256",
						"label": "mapping(uint256 => mapping(uint256 => bool))",
						"numberOfBytes": "32",
						"value": "t_mapping(t_uint256,t_bool)"
					},
					"t_string_memory_ptr": {
						"encoding": "bytes",
						"label": "string",
						"numberOfBytes": "32"
					},
					"t_uint256": {
						"encoding": "inplace",
						"label": "uint256",
						"numberOfBytes": "32"
					}
				}
			},
			"userdoc": {
				"kind": "user",
				"methods": {},
				"version": 1
			}
		}
	}
}