{
	"memory&data.sol": {
		"demo": {
			"abi": [
				{
					"inputs": [
						{
							"internalType": "uint256",
							"name": "",
							"type": "uint256"
						}
					],
					"name": "arr",
					"outputs": [
						{
							"internalType": "uint256",
							"name": "",
							"type": "uint256"
						}
					],
					"stateMutability": "view",
					"type": "function"
				},
				{
					"inputs": [
						{
							"internalType": "uint256[5]",
							"name": "arr2",
							"type": "uint256[5]"
						}
					],
					"name": "f1memory",
					"outputs": [],
					"stateMutability": "nonpayable",
					"type": "function"
				},
				{
					"inputs": [],
					"name": "fmemory",
					"outputs": [
						{
							"internalType": "uint256[5]",
							"name": "arr2",
							"type": "uint256[5]"
						}
					],
					"stateMutability": "view",
					"type": "function"
				},
				{
					"inputs": [
						{
							"internalType": "uint256[5]",
							"name": "arr1",
							"type": "uint256[5]"
						}
					],
					"name": "insert",
					"outputs": [],
					"stateMutability": "nonpayable",
					"type": "function"
				}
			],
			"devdoc": {
				"kind": "dev",
				"methods": {},
				"version": 1
			},
			"evm": {
				"assembly": "    /* \"memory&data.sol\":66:420  contract demo{... */\n  mstore(0x40, 0x80)\n  callvalue\n  dup1\n  iszero\n  tag_1\n  jumpi\n  0x00\n  dup1\n  revert\ntag_1:\n  pop\n  dataSize(sub_0)\n  dup1\n  dataOffset(sub_0)\n  0x00\n  codecopy\n  0x00\n  return\nstop\n\nsub_0: assembly {\n        /* \"memory&data.sol\":66:420  contract demo{... */\n      mstore(0x40, 0x80)\n      callvalue\n      dup1\n      iszero\n      tag_1\n      jumpi\n      0x00\n      dup1\n      revert\n    tag_1:\n      pop\n      jumpi(tag_2, lt(calldatasize, 0x04))\n      shr(0xe0, calldataload(0x00))\n      dup1\n      0x71e5ee5f\n      eq\n      tag_3\n      jumpi\n      dup1\n      0x8436e639\n      eq\n      tag_4\n      jumpi\n      dup1\n      0x9f87bd86\n      eq\n      tag_5\n      jumpi\n      dup1\n      0xac03fa0f\n      eq\n      tag_6\n      jumpi\n    tag_2:\n      0x00\n      dup1\n      revert\n        /* \"memory&data.sol\":87:105  uint[5] public arr */\n    tag_3:\n      tag_7\n      0x04\n      dup1\n      calldatasize\n      sub\n      dup2\n      add\n      swap1\n      tag_8\n      swap2\n      swap1\n      tag_9\n      jump\t// in\n    tag_8:\n      tag_10\n      jump\t// in\n    tag_7:\n      mload(0x40)\n      tag_11\n      swap2\n      swap1\n      tag_12\n      jump\t// in\n    tag_11:\n      mload(0x40)\n      dup1\n      swap2\n      sub\n      swap1\n      return\n        /* \"memory&data.sol\":115:202  function insert(uint[5] calldata arr1) public {... */\n    tag_4:\n      tag_13\n      0x04\n      dup1\n      calldatasize\n      sub\n      dup2\n      add\n      swap1\n      tag_14\n      swap2\n      swap1\n      tag_15\n      jump\t// in\n    tag_14:\n      tag_16\n      jump\t// in\n    tag_13:\n      stop\n        /* \"memory&data.sol\":318:410  function fmemory() public view returns(uint[5] memory arr2){... */\n    tag_5:\n      tag_17\n      tag_18\n      jump\t// in\n    tag_17:\n      mload(0x40)\n      tag_19\n      swap2\n      swap1\n      tag_20\n      jump\t// in\n    tag_19:\n      mload(0x40)\n      dup1\n      swap2\n      sub\n      swap1\n      return\n        /* \"memory&data.sol\":210:308  function f1memory(uint[5] memory arr2)public  {... */\n    tag_6:\n      tag_21\n      0x04\n      dup1\n      calldatasize\n      sub\n      dup2\n      add\n      swap1\n      tag_22\n      swap2\n      swap1\n      tag_23\n      jump\t// in\n    tag_22:\n      tag_24\n      jump\t// in\n    tag_21:\n      stop\n        /* \"memory&data.sol\":87:105  uint[5] public arr */\n    tag_10:\n      0x00\n      dup2\n      0x05\n      dup2\n      lt\n      tag_25\n      jumpi\n      0x00\n      dup1\n      revert\n    tag_25:\n      add\n      0x00\n      swap2\n      pop\n      swap1\n      pop\n      sload\n      dup2\n      jump\t// out\n        /* \"memory&data.sol\":115:202  function insert(uint[5] calldata arr1) public {... */\n    tag_16:\n        /* \"memory&data.sol\":179:183  arr1 */\n      dup1\n        /* \"memory&data.sol\":173:176  arr */\n      0x00\n        /* \"memory&data.sol\":173:183  arr = arr1 */\n      swap1\n      0x05\n      tag_28\n      swap3\n      swap2\n      swap1\n      tag_29\n      jump\t// in\n    tag_28:\n      pop\n        /* \"memory&data.sol\":115:202  function insert(uint[5] calldata arr1) public {... */\n      pop\n      jump\t// out\n        /* \"memory&data.sol\":318:410  function fmemory() public view returns(uint[5] memory arr2){... */\n    tag_18:\n        /* \"memory&data.sol\":357:376  uint[5] memory arr2 */\n      tag_30\n      tag_31\n      jump\t// in\n    tag_30:\n        /* \"memory&data.sol\":397:400  arr */\n      0x00\n        /* \"memory&data.sol\":390:400  return arr */\n      0x05\n      dup1\n      0x20\n      mul\n      mload(0x40)\n      swap1\n      dup2\n      add\n      0x40\n      mstore\n      dup1\n      swap3\n      swap2\n      swap1\n      dup3\n      0x05\n      dup1\n      iszero\n      tag_33\n      jumpi\n      0x20\n      mul\n      dup3\n      add\n      swap2\n    tag_34:\n      dup2\n      sload\n      dup2\n      mstore\n      0x20\n      add\n      swap1\n      0x01\n      add\n      swap1\n      dup1\n      dup4\n      gt\n      tag_34\n      jumpi\n    tag_33:\n      pop\n      pop\n      pop\n      pop\n      pop\n      swap1\n      pop\n        /* \"memory&data.sol\":318:410  function fmemory() public view returns(uint[5] memory arr2){... */\n      swap1\n      jump\t// out\n        /* \"memory&data.sol\":210:308  function f1memory(uint[5] memory arr2)public  {... */\n    tag_24:\n        /* \"memory&data.sol\":272:276  arr2 */\n      dup1\n        /* \"memory&data.sol\":266:269  arr */\n      0x00\n        /* \"memory&data.sol\":266:276  arr = arr2 */\n      swap1\n      0x05\n      tag_36\n      swap3\n      swap2\n      swap1\n      tag_37\n      jump\t// in\n    tag_36:\n      pop\n        /* \"memory&data.sol\":295:298  100 */\n      0x64\n        /* \"memory&data.sol\":286:289  arr */\n      0x00\n        /* \"memory&data.sol\":290:291  0 */\n      dup1\n        /* \"memory&data.sol\":286:292  arr[0] */\n      0x05\n      dup2\n      lt\n      tag_38\n      jumpi\n      tag_39\n      tag_40\n      jump\t// in\n    tag_39:\n    tag_38:\n      add\n        /* \"memory&data.sol\":286:298  arr[0] = 100 */\n      dup2\n      swap1\n      sstore\n      pop\n        /* \"memory&data.sol\":210:308  function f1memory(uint[5] memory arr2)public  {... */\n      pop\n      jump\t// out\n    tag_29:\n      dup3\n      0x05\n      dup2\n      add\n      swap3\n      dup3\n      iszero\n      tag_42\n      jumpi\n      swap2\n      0x20\n      mul\n      dup3\n      add\n    tag_43:\n      dup3\n      dup2\n      gt\n      iszero\n      tag_44\n      jumpi\n      dup3\n      calldataload\n      dup3\n      sstore\n      swap2\n      0x20\n      add\n      swap2\n      swap1\n      0x01\n      add\n      swap1\n      jump(tag_43)\n    tag_44:\n    tag_42:\n      pop\n      swap1\n      pop\n      tag_45\n      swap2\n      swap1\n      tag_46\n      jump\t// in\n    tag_45:\n      pop\n      swap1\n      jump\t// out\n    tag_31:\n      mload(0x40)\n      dup1\n      0xa0\n      add\n      0x40\n      mstore\n      dup1\n      0x05\n      swap1\n      0x20\n      dup3\n      mul\n      dup1\n      calldatasize\n      dup4\n      calldatacopy\n      dup1\n      dup3\n      add\n      swap2\n      pop\n      pop\n      swap1\n      pop\n      pop\n      swap1\n      jump\t// out\n    tag_37:\n      dup3\n      0x05\n      dup2\n      add\n      swap3\n      dup3\n      iszero\n      tag_47\n      jumpi\n      swap2\n      0x20\n      mul\n      dup3\n      add\n    tag_48:\n      dup3\n      dup2\n      gt\n      iszero\n      tag_49\n      jumpi\n      dup3\n      mload\n      dup3\n      sstore\n      swap2\n      0x20\n      add\n      swap2\n      swap1\n      0x01\n      add\n      swap1\n      jump(tag_48)\n    tag_49:\n    tag_47:\n      pop\n      swap1\n      pop\n      tag_50\n      swap2\n      swap1\n      tag_46\n      jump\t// in\n    tag_50:\n      pop\n      swap1\n      jump\t// out\n    tag_46:\n    tag_51:\n      dup1\n      dup3\n      gt\n      iszero\n      tag_52\n      jumpi\n      0x00\n      dup2\n      0x00\n      swap1\n      sstore\n      pop\n      0x01\n      add\n      jump(tag_51)\n    tag_52:\n      pop\n      swap1\n      jump\t// out\n        /* \"#utility.yul\":7:82   */\n    tag_53:\n        /* \"#utility.yul\":40:46   */\n      0x00\n        /* \"#utility.yul\":73:75   */\n      0x40\n        /* \"#utility.yul\":67:76   */\n      mload\n        /* \"#utility.yul\":57:76   */\n      swap1\n      pop\n        /* \"#utility.yul\":7:82   */\n      swap1\n      jump\t// out\n        /* \"#utility.yul\":88:205   */\n    tag_54:\n        /* \"#utility.yul\":197:198   */\n      0x00\n        /* \"#utility.yul\":194:195   */\n      dup1\n        /* \"#utility.yul\":187:199   */\n      revert\n        /* \"#utility.yul\":334:411   */\n    tag_56:\n        /* \"#utility.yul\":371:378   */\n      0x00\n        /* \"#utility.yul\":400:405   */\n      dup2\n        /* \"#utility.yul\":389:405   */\n      swap1\n      pop\n        /* \"#utility.yul\":334:411   */\n      swap2\n      swap1\n      pop\n      jump\t// out\n        /* \"#utility.yul\":417:539   */\n    tag_57:\n        /* \"#utility.yul\":490:514   */\n      tag_83\n        /* \"#utility.yul\":508:513   */\n      dup2\n        /* \"#utility.yul\":490:514   */\n      tag_56\n      jump\t// in\n    tag_83:\n        /* \"#utility.yul\":483:488   */\n      dup2\n        /* \"#utility.yul\":480:515   */\n      eq\n        /* \"#utility.yul\":470:533   */\n      tag_84\n      jumpi\n        /* \"#utility.yul\":529:530   */\n      0x00\n        /* \"#utility.yul\":526:527   */\n      dup1\n        /* \"#utility.yul\":519:531   */\n      revert\n        /* \"#utility.yul\":470:533   */\n    tag_84:\n        /* \"#utility.yul\":417:539   */\n      pop\n      jump\t// out\n        /* \"#utility.yul\":545:684   */\n    tag_58:\n        /* \"#utility.yul\":591:596   */\n      0x00\n        /* \"#utility.yul\":629:635   */\n      dup2\n        /* \"#utility.yul\":616:636   */\n      calldataload\n        /* \"#utility.yul\":607:636   */\n      swap1\n      pop\n        /* \"#utility.yul\":645:678   */\n      tag_86\n        /* \"#utility.yul\":672:677   */\n      dup2\n        /* \"#utility.yul\":645:678   */\n      tag_57\n      jump\t// in\n    tag_86:\n        /* \"#utility.yul\":545:684   */\n      swap3\n      swap2\n      pop\n      pop\n      jump\t// out\n        /* \"#utility.yul\":690:1019   */\n    tag_9:\n        /* \"#utility.yul\":749:755   */\n      0x00\n        /* \"#utility.yul\":798:800   */\n      0x20\n        /* \"#utility.yul\":786:795   */\n      dup3\n        /* \"#utility.yul\":777:784   */\n      dup5\n        /* \"#utility.yul\":773:796   */\n      sub\n        /* \"#utility.yul\":769:801   */\n      slt\n        /* \"#utility.yul\":766:885   */\n      iszero\n      tag_88\n      jumpi\n        /* \"#utility.yul\":804:883   */\n      tag_89\n      tag_54\n      jump\t// in\n    tag_89:\n        /* \"#utility.yul\":766:885   */\n    tag_88:\n        /* \"#utility.yul\":924:925   */\n      0x00\n        /* \"#utility.yul\":949:1002   */\n      tag_90\n        /* \"#utility.yul\":994:1001   */\n      dup5\n        /* \"#utility.yul\":985:991   */\n      dup3\n        /* \"#utility.yul\":974:983   */\n      dup6\n        /* \"#utility.yul\":970:992   */\n      add\n        /* \"#utility.yul\":949:1002   */\n      tag_58\n      jump\t// in\n    tag_90:\n        /* \"#utility.yul\":939:1002   */\n      swap2\n      pop\n        /* \"#utility.yul\":895:1012   */\n      pop\n        /* \"#utility.yul\":690:1019   */\n      swap3\n      swap2\n      pop\n      pop\n      jump\t// out\n        /* \"#utility.yul\":1025:1143   */\n    tag_59:\n        /* \"#utility.yul\":1112:1136   */\n      tag_92\n        /* \"#utility.yul\":1130:1135   */\n      dup2\n        /* \"#utility.yul\":1112:1136   */\n      tag_56\n      jump\t// in\n    tag_92:\n        /* \"#utility.yul\":1107:1110   */\n      dup3\n        /* \"#utility.yul\":1100:1137   */\n      mstore\n        /* \"#utility.yul\":1025:1143   */\n      pop\n      pop\n      jump\t// out\n        /* \"#utility.yul\":1149:1371   */\n    tag_12:\n        /* \"#utility.yul\":1242:1246   */\n      0x00\n        /* \"#utility.yul\":1280:1282   */\n      0x20\n        /* \"#utility.yul\":1269:1278   */\n      dup3\n        /* \"#utility.yul\":1265:1283   */\n      add\n        /* \"#utility.yul\":1257:1283   */\n      swap1\n      pop\n        /* \"#utility.yul\":1293:1364   */\n      tag_94\n        /* \"#utility.yul\":1361:1362   */\n      0x00\n        /* \"#utility.yul\":1350:1359   */\n      dup4\n        /* \"#utility.yul\":1346:1363   */\n      add\n        /* \"#utility.yul\":1337:1343   */\n      dup5\n        /* \"#utility.yul\":1293:1364   */\n      tag_59\n      jump\t// in\n    tag_94:\n        /* \"#utility.yul\":1149:1371   */\n      swap3\n      swap2\n      pop\n      pop\n      jump\t// out\n        /* \"#utility.yul\":1377:1494   */\n    tag_60:\n        /* \"#utility.yul\":1486:1487   */\n      0x00\n        /* \"#utility.yul\":1483:1484   */\n      dup1\n        /* \"#utility.yul\":1476:1488   */\n      revert\n        /* \"#utility.yul\":1518:1767   */\n    tag_61:\n        /* \"#utility.yul\":1589:1597   */\n      0x00\n        /* \"#utility.yul\":1620:1626   */\n      dup2\n        /* \"#utility.yul\":1608:1626   */\n      swap1\n      pop\n        /* \"#utility.yul\":1673:1676   */\n      dup3\n        /* \"#utility.yul\":1665:1669   */\n      0x20\n        /* \"#utility.yul\":1659:1663   */\n      0x05\n        /* \"#utility.yul\":1655:1670   */\n      mul\n        /* \"#utility.yul\":1645:1653   */\n      dup3\n        /* \"#utility.yul\":1641:1671   */\n      add\n        /* \"#utility.yul\":1638:1677   */\n      gt\n        /* \"#utility.yul\":1635:1761   */\n      iszero\n      tag_97\n      jumpi\n        /* \"#utility.yul\":1680:1759   */\n      tag_98\n      tag_60\n      jump\t// in\n    tag_98:\n        /* \"#utility.yul\":1635:1761   */\n    tag_97:\n        /* \"#utility.yul\":1518:1767   */\n      swap3\n      swap2\n      pop\n      pop\n      jump\t// out\n        /* \"#utility.yul\":1773:2153   */\n    tag_15:\n        /* \"#utility.yul\":1857:1863   */\n      0x00\n        /* \"#utility.yul\":1906:1909   */\n      0xa0\n        /* \"#utility.yul\":1894:1903   */\n      dup3\n        /* \"#utility.yul\":1885:1892   */\n      dup5\n        /* \"#utility.yul\":1881:1904   */\n      sub\n        /* \"#utility.yul\":1877:1910   */\n      slt\n        /* \"#utility.yul\":1874:1994   */\n      iszero\n      tag_100\n      jumpi\n        /* \"#utility.yul\":1913:1992   */\n      tag_101\n      tag_54\n      jump\t// in\n    tag_101:\n        /* \"#utility.yul\":1874:1994   */\n    tag_100:\n        /* \"#utility.yul\":2033:2034   */\n      0x00\n        /* \"#utility.yul\":2058:2136   */\n      tag_102\n        /* \"#utility.yul\":2128:2135   */\n      dup5\n        /* \"#utility.yul\":2119:2125   */\n      dup3\n        /* \"#utility.yul\":2108:2117   */\n      dup6\n        /* \"#utility.yul\":2104:2126   */\n      add\n        /* \"#utility.yul\":2058:2136   */\n      tag_61\n      jump\t// in\n    tag_102:\n        /* \"#utility.yul\":2048:2136   */\n      swap2\n      pop\n        /* \"#utility.yul\":2004:2146   */\n      pop\n        /* \"#utility.yul\":1773:2153   */\n      swap3\n      swap2\n      pop\n      pop\n      jump\t// out\n        /* \"#utility.yul\":2159:2263   */\n    tag_62:\n        /* \"#utility.yul\":2224:2230   */\n      0x00\n        /* \"#utility.yul\":2252:2256   */\n      0x05\n        /* \"#utility.yul\":2242:2256   */\n      swap1\n      pop\n        /* \"#utility.yul\":2159:2263   */\n      swap2\n      swap1\n      pop\n      jump\t// out\n        /* \"#utility.yul\":2269:2412   */\n    tag_63:\n        /* \"#utility.yul\":2366:2377   */\n      0x00\n        /* \"#utility.yul\":2403:2406   */\n      dup2\n        /* \"#utility.yul\":2388:2406   */\n      swap1\n      pop\n        /* \"#utility.yul\":2269:2412   */\n      swap3\n      swap2\n      pop\n      pop\n      jump\t// out\n        /* \"#utility.yul\":2418:2516   */\n    tag_64:\n        /* \"#utility.yul\":2483:2487   */\n      0x00\n        /* \"#utility.yul\":2506:2509   */\n      dup2\n        /* \"#utility.yul\":2498:2509   */\n      swap1\n      pop\n        /* \"#utility.yul\":2418:2516   */\n      swap2\n      swap1\n      pop\n      jump\t// out\n        /* \"#utility.yul\":2522:2630   */\n    tag_65:\n        /* \"#utility.yul\":2599:2623   */\n      tag_107\n        /* \"#utility.yul\":2617:2622   */\n      dup2\n        /* \"#utility.yul\":2599:2623   */\n      tag_56\n      jump\t// in\n    tag_107:\n        /* \"#utility.yul\":2594:2597   */\n      dup3\n        /* \"#utility.yul\":2587:2624   */\n      mstore\n        /* \"#utility.yul\":2522:2630   */\n      pop\n      pop\n      jump\t// out\n        /* \"#utility.yul\":2636:2815   */\n    tag_66:\n        /* \"#utility.yul\":2705:2715   */\n      0x00\n        /* \"#utility.yul\":2726:2772   */\n      tag_109\n        /* \"#utility.yul\":2768:2771   */\n      dup4\n        /* \"#utility.yul\":2760:2766   */\n      dup4\n        /* \"#utility.yul\":2726:2772   */\n      tag_65\n      jump\t// in\n    tag_109:\n        /* \"#utility.yul\":2804:2808   */\n      0x20\n        /* \"#utility.yul\":2799:2802   */\n      dup4\n        /* \"#utility.yul\":2795:2809   */\n      add\n        /* \"#utility.yul\":2781:2809   */\n      swap1\n      pop\n        /* \"#utility.yul\":2636:2815   */\n      swap3\n      swap2\n      pop\n      pop\n      jump\t// out\n        /* \"#utility.yul\":2821:2932   */\n    tag_67:\n        /* \"#utility.yul\":2889:2893   */\n      0x00\n        /* \"#utility.yul\":2921:2925   */\n      0x20\n        /* \"#utility.yul\":2916:2919   */\n      dup3\n        /* \"#utility.yul\":2912:2926   */\n      add\n        /* \"#utility.yul\":2904:2926   */\n      swap1\n      pop\n        /* \"#utility.yul\":2821:2932   */\n      swap2\n      swap1\n      pop\n      jump\t// out\n        /* \"#utility.yul\":2970:3664   */\n    tag_68:\n        /* \"#utility.yul\":3106:3158   */\n      tag_112\n        /* \"#utility.yul\":3152:3157   */\n      dup2\n        /* \"#utility.yul\":3106:3158   */\n      tag_62\n      jump\t// in\n    tag_112:\n        /* \"#utility.yul\":3174:3258   */\n      tag_113\n        /* \"#utility.yul\":3251:3257   */\n      dup2\n        /* \"#utility.yul\":3246:3249   */\n      dup5\n        /* \"#utility.yul\":3174:3258   */\n      tag_63\n      jump\t// in\n    tag_113:\n        /* \"#utility.yul\":3167:3258   */\n      swap3\n      pop\n        /* \"#utility.yul\":3282:3336   */\n      tag_114\n        /* \"#utility.yul\":3330:3335   */\n      dup3\n        /* \"#utility.yul\":3282:3336   */\n      tag_64\n      jump\t// in\n    tag_114:\n        /* \"#utility.yul\":3359:3366   */\n      dup1\n        /* \"#utility.yul\":3390:3391   */\n      0x00\n        /* \"#utility.yul\":3375:3657   */\n    tag_115:\n        /* \"#utility.yul\":3400:3406   */\n      dup4\n        /* \"#utility.yul\":3397:3398   */\n      dup2\n        /* \"#utility.yul\":3394:3407   */\n      lt\n        /* \"#utility.yul\":3375:3657   */\n      iszero\n      tag_117\n      jumpi\n        /* \"#utility.yul\":3476:3482   */\n      dup2\n        /* \"#utility.yul\":3470:3483   */\n      mload\n        /* \"#utility.yul\":3503:3566   */\n      tag_118\n        /* \"#utility.yul\":3562:3565   */\n      dup8\n        /* \"#utility.yul\":3547:3560   */\n      dup3\n        /* \"#utility.yul\":3503:3566   */\n      tag_66\n      jump\t// in\n    tag_118:\n        /* \"#utility.yul\":3496:3566   */\n      swap7\n      pop\n        /* \"#utility.yul\":3589:3647   */\n      tag_119\n        /* \"#utility.yul\":3640:3646   */\n      dup4\n        /* \"#utility.yul\":3589:3647   */\n      tag_67\n      jump\t// in\n    tag_119:\n        /* \"#utility.yul\":3579:3647   */\n      swap3\n      pop\n        /* \"#utility.yul\":3435:3657   */\n      pop\n        /* \"#utility.yul\":3422:3423   */\n      0x01\n        /* \"#utility.yul\":3419:3420   */\n      dup2\n        /* \"#utility.yul\":3415:3424   */\n      add\n        /* \"#utility.yul\":3410:3424   */\n      swap1\n      pop\n        /* \"#utility.yul\":3375:3657   */\n      jump(tag_115)\n    tag_117:\n        /* \"#utility.yul\":3379:3393   */\n      pop\n        /* \"#utility.yul\":3082:3664   */\n      pop\n      pop\n      pop\n        /* \"#utility.yul\":2970:3664   */\n      pop\n      pop\n      jump\t// out\n        /* \"#utility.yul\":3670:3985   */\n    tag_20:\n        /* \"#utility.yul\":3809:3813   */\n      0x00\n        /* \"#utility.yul\":3847:3850   */\n      0xa0\n        /* \"#utility.yul\":3836:3845   */\n      dup3\n        /* \"#utility.yul\":3832:3851   */\n      add\n        /* \"#utility.yul\":3824:3851   */\n      swap1\n      pop\n        /* \"#utility.yul\":3861:3978   */\n      tag_121\n        /* \"#utility.yul\":3975:3976   */\n      0x00\n        /* \"#utility.yul\":3964:3973   */\n      dup4\n        /* \"#utility.yul\":3960:3977   */\n      add\n        /* \"#utility.yul\":3951:3957   */\n      dup5\n        /* \"#utility.yul\":3861:3978   */\n      tag_68\n      jump\t// in\n    tag_121:\n        /* \"#utility.yul\":3670:3985   */\n      swap3\n      swap2\n      pop\n      pop\n      jump\t// out\n        /* \"#utility.yul\":3991:4108   */\n    tag_69:\n        /* \"#utility.yul\":4100:4101   */\n      0x00\n        /* \"#utility.yul\":4097:4098   */\n      dup1\n        /* \"#utility.yul\":4090:4102   */\n      revert\n        /* \"#utility.yul\":4114:4216   */\n    tag_70:\n        /* \"#utility.yul\":4155:4161   */\n      0x00\n        /* \"#utility.yul\":4206:4208   */\n      0x1f\n        /* \"#utility.yul\":4202:4209   */\n      not\n        /* \"#utility.yul\":4197:4199   */\n      0x1f\n        /* \"#utility.yul\":4190:4195   */\n      dup4\n        /* \"#utility.yul\":4186:4200   */\n      add\n        /* \"#utility.yul\":4182:4210   */\n      and\n        /* \"#utility.yul\":4172:4210   */\n      swap1\n      pop\n        /* \"#utility.yul\":4114:4216   */\n      swap2\n      swap1\n      pop\n      jump\t// out\n        /* \"#utility.yul\":4222:4402   */\n    tag_71:\n        /* \"#utility.yul\":4270:4347   */\n      0x4e487b7100000000000000000000000000000000000000000000000000000000\n        /* \"#utility.yul\":4267:4268   */\n      0x00\n        /* \"#utility.yul\":4260:4348   */\n      mstore\n        /* \"#utility.yul\":4367:4371   */\n      0x41\n        /* \"#utility.yul\":4364:4365   */\n      0x04\n        /* \"#utility.yul\":4357:4372   */\n      mstore\n        /* \"#utility.yul\":4391:4395   */\n      0x24\n        /* \"#utility.yul\":4388:4389   */\n      0x00\n        /* \"#utility.yul\":4381:4396   */\n      revert\n        /* \"#utility.yul\":4408:4689   */\n    tag_72:\n        /* \"#utility.yul\":4491:4518   */\n      tag_126\n        /* \"#utility.yul\":4513:4517   */\n      dup3\n        /* \"#utility.yul\":4491:4518   */\n      tag_70\n      jump\t// in\n    tag_126:\n        /* \"#utility.yul\":4483:4489   */\n      dup2\n        /* \"#utility.yul\":4479:4519   */\n      add\n        /* \"#utility.yul\":4621:4627   */\n      dup2\n        /* \"#utility.yul\":4609:4619   */\n      dup2\n        /* \"#utility.yul\":4606:4628   */\n      lt\n        /* \"#utility.yul\":4585:4603   */\n      0xffffffffffffffff\n        /* \"#utility.yul\":4573:4583   */\n      dup3\n        /* \"#utility.yul\":4570:4604   */\n      gt\n        /* \"#utility.yul\":4567:4629   */\n      or\n        /* \"#utility.yul\":4564:4652   */\n      iszero\n      tag_127\n      jumpi\n        /* \"#utility.yul\":4632:4650   */\n      tag_128\n      tag_71\n      jump\t// in\n    tag_128:\n        /* \"#utility.yul\":4564:4652   */\n    tag_127:\n        /* \"#utility.yul\":4672:4682   */\n      dup1\n        /* \"#utility.yul\":4668:4670   */\n      0x40\n        /* \"#utility.yul\":4661:4683   */\n      mstore\n        /* \"#utility.yul\":4451:4689   */\n      pop\n        /* \"#utility.yul\":4408:4689   */\n      pop\n      pop\n      jump\t// out\n        /* \"#utility.yul\":4695:4824   */\n    tag_73:\n        /* \"#utility.yul\":4729:4735   */\n      0x00\n        /* \"#utility.yul\":4756:4776   */\n      tag_130\n      tag_53\n      jump\t// in\n    tag_130:\n        /* \"#utility.yul\":4746:4776   */\n      swap1\n      pop\n        /* \"#utility.yul\":4785:4818   */\n      tag_131\n        /* \"#utility.yul\":4813:4817   */\n      dup3\n        /* \"#utility.yul\":4805:4811   */\n      dup3\n        /* \"#utility.yul\":4785:4818   */\n      tag_72\n      jump\t// in\n    tag_131:\n        /* \"#utility.yul\":4695:4824   */\n      swap2\n      swap1\n      pop\n      jump\t// out\n        /* \"#utility.yul\":4830:5079   */\n    tag_74:\n        /* \"#utility.yul\":4905:4909   */\n      0x00\n        /* \"#utility.yul\":4995:5013   */\n      0xffffffffffffffff\n        /* \"#utility.yul\":4987:4993   */\n      dup3\n        /* \"#utility.yul\":4984:5014   */\n      gt\n        /* \"#utility.yul\":4981:5037   */\n      iszero\n      tag_133\n      jumpi\n        /* \"#utility.yul\":5017:5035   */\n      tag_134\n      tag_71\n      jump\t// in\n    tag_134:\n        /* \"#utility.yul\":4981:5037   */\n    tag_133:\n        /* \"#utility.yul\":5067:5071   */\n      0x20\n        /* \"#utility.yul\":5059:5065   */\n      dup3\n        /* \"#utility.yul\":5055:5072   */\n      mul\n        /* \"#utility.yul\":5047:5072   */\n      swap1\n      pop\n        /* \"#utility.yul\":4830:5079   */\n      swap2\n      swap1\n      pop\n      jump\t// out\n        /* \"#utility.yul\":5103:5746   */\n    tag_75:\n        /* \"#utility.yul\":5197:5202   */\n      0x00\n        /* \"#utility.yul\":5222:5301   */\n      tag_136\n        /* \"#utility.yul\":5238:5300   */\n      tag_137\n        /* \"#utility.yul\":5293:5299   */\n      dup5\n        /* \"#utility.yul\":5238:5300   */\n      tag_74\n      jump\t// in\n    tag_137:\n        /* \"#utility.yul\":5222:5301   */\n      tag_73\n      jump\t// in\n    tag_136:\n        /* \"#utility.yul\":5213:5301   */\n      swap1\n      pop\n        /* \"#utility.yul\":5321:5326   */\n      dup1\n        /* \"#utility.yul\":5374:5378   */\n      0x20\n        /* \"#utility.yul\":5366:5372   */\n      dup5\n        /* \"#utility.yul\":5362:5379   */\n      mul\n        /* \"#utility.yul\":5354:5360   */\n      dup4\n        /* \"#utility.yul\":5350:5380   */\n      add\n        /* \"#utility.yul\":5403:5406   */\n      dup6\n        /* \"#utility.yul\":5395:5401   */\n      dup2\n        /* \"#utility.yul\":5392:5407   */\n      gt\n        /* \"#utility.yul\":5389:5511   */\n      iszero\n      tag_138\n      jumpi\n        /* \"#utility.yul\":5422:5501   */\n      tag_139\n      tag_60\n      jump\t// in\n    tag_139:\n        /* \"#utility.yul\":5389:5511   */\n    tag_138:\n        /* \"#utility.yul\":5537:5543   */\n      dup4\n        /* \"#utility.yul\":5520:5740   */\n    tag_140:\n        /* \"#utility.yul\":5554:5560   */\n      dup2\n        /* \"#utility.yul\":5549:5552   */\n      dup2\n        /* \"#utility.yul\":5546:5561   */\n      lt\n        /* \"#utility.yul\":5520:5740   */\n      iszero\n      tag_142\n      jumpi\n        /* \"#utility.yul\":5629:5632   */\n      dup1\n        /* \"#utility.yul\":5658:5695   */\n      tag_143\n        /* \"#utility.yul\":5691:5694   */\n      dup9\n        /* \"#utility.yul\":5679:5689   */\n      dup3\n        /* \"#utility.yul\":5658:5695   */\n      tag_58\n      jump\t// in\n    tag_143:\n        /* \"#utility.yul\":5653:5656   */\n      dup5\n        /* \"#utility.yul\":5646:5696   */\n      mstore\n        /* \"#utility.yul\":5725:5729   */\n      0x20\n        /* \"#utility.yul\":5720:5723   */\n      dup5\n        /* \"#utility.yul\":5716:5730   */\n      add\n        /* \"#utility.yul\":5709:5730   */\n      swap4\n      pop\n        /* \"#utility.yul\":5596:5740   */\n      pop\n        /* \"#utility.yul\":5580:5584   */\n      0x20\n        /* \"#utility.yul\":5575:5578   */\n      dup2\n        /* \"#utility.yul\":5571:5585   */\n      add\n        /* \"#utility.yul\":5564:5585   */\n      swap1\n      pop\n        /* \"#utility.yul\":5520:5740   */\n      jump(tag_140)\n    tag_142:\n        /* \"#utility.yul\":5524:5545   */\n      pop\n        /* \"#utility.yul\":5203:5746   */\n      pop\n      pop\n        /* \"#utility.yul\":5103:5746   */\n      swap4\n      swap3\n      pop\n      pop\n      pop\n      jump\t// out\n        /* \"#utility.yul\":5770:6109   */\n    tag_76:\n        /* \"#utility.yul\":5839:5844   */\n      0x00\n        /* \"#utility.yul\":5888:5891   */\n      dup3\n        /* \"#utility.yul\":5881:5885   */\n      0x1f\n        /* \"#utility.yul\":5873:5879   */\n      dup4\n        /* \"#utility.yul\":5869:5886   */\n      add\n        /* \"#utility.yul\":5865:5892   */\n      slt\n        /* \"#utility.yul\":5855:5977   */\n      tag_145\n      jumpi\n        /* \"#utility.yul\":5896:5975   */\n      tag_146\n      tag_69\n      jump\t// in\n    tag_146:\n        /* \"#utility.yul\":5855:5977   */\n    tag_145:\n        /* \"#utility.yul\":6000:6004   */\n      0x05\n        /* \"#utility.yul\":6022:6103   */\n      tag_147\n        /* \"#utility.yul\":6099:6102   */\n      dup5\n        /* \"#utility.yul\":6091:6097   */\n      dup3\n        /* \"#utility.yul\":6083:6089   */\n      dup6\n        /* \"#utility.yul\":6022:6103   */\n      tag_75\n      jump\t// in\n    tag_147:\n        /* \"#utility.yul\":6013:6103   */\n      swap2\n      pop\n        /* \"#utility.yul\":5845:6109   */\n      pop\n        /* \"#utility.yul\":5770:6109   */\n      swap3\n      swap2\n      pop\n      pop\n      jump\t// out\n        /* \"#utility.yul\":6115:6491   */\n    tag_23:\n        /* \"#utility.yul\":6197:6203   */\n      0x00\n        /* \"#utility.yul\":6246:6249   */\n      0xa0\n        /* \"#utility.yul\":6234:6243   */\n      dup3\n        /* \"#utility.yul\":6225:6232   */\n      dup5\n        /* \"#utility.yul\":6221:6244   */\n      sub\n        /* \"#utility.yul\":6217:6250   */\n      slt\n        /* \"#utility.yul\":6214:6334   */\n      iszero\n      tag_149\n      jumpi\n        /* \"#utility.yul\":6253:6332   */\n      tag_150\n      tag_54\n      jump\t// in\n    tag_150:\n        /* \"#utility.yul\":6214:6334   */\n    tag_149:\n        /* \"#utility.yul\":6373:6374   */\n      0x00\n        /* \"#utility.yul\":6398:6474   */\n      tag_151\n        /* \"#utility.yul\":6466:6473   */\n      dup5\n        /* \"#utility.yul\":6457:6463   */\n      dup3\n        /* \"#utility.yul\":6446:6455   */\n      dup6\n        /* \"#utility.yul\":6442:6464   */\n      add\n        /* \"#utility.yul\":6398:6474   */\n      tag_76\n      jump\t// in\n    tag_151:\n        /* \"#utility.yul\":6388:6474   */\n      swap2\n      pop\n        /* \"#utility.yul\":6344:6484   */\n      pop\n        /* \"#utility.yul\":6115:6491   */\n      swap3\n      swap2\n      pop\n      pop\n      jump\t// out\n        /* \"#utility.yul\":6497:6677   */\n    tag_40:\n        /* \"#utility.yul\":6545:6622   */\n      0x4e487b7100000000000000000000000000000000000000000000000000000000\n        /* \"#utility.yul\":6542:6543   */\n      0x00\n        /* \"#utility.yul\":6535:6623   */\n      mstore\n        /* \"#utility.yul\":6642:6646   */\n      0x32\n        /* \"#utility.yul\":6639:6640   */\n      0x04\n        /* \"#utility.yul\":6632:6647   */\n      mstore\n        /* \"#utility.yul\":6666:6670   */\n      0x24\n        /* \"#utility.yul\":6663:6664   */\n      0x00\n        /* \"#utility.yul\":6656:6671   */\n      revert\n\n    auxdata: 0xa264697066735822122024eee706568a6cdd47254741ed899b5dfcabc806f26a6070178cf8bbb97fd53c64736f6c63430008110033\n}\n",
				"bytecode": {
					"linkReferences": {},
					"object": "608060405234801561001057600080fd5b506105cb806100206000396000f3fe608060405234801561001057600080fd5b506004361061004c5760003560e01c806371e5ee5f146100515780638436e639146100815780639f87bd861461009d578063ac03fa0f146100bb575b600080fd5b61006b60048036038101906100669190610286565b6100d7565b60405161007891906102c2565b60405180910390f35b61009b60048036038101906100969190610304565b6100f2565b005b6100a5610107565b6040516100b291906103dc565b60405180910390f35b6100d560048036038101906100d09190610539565b610152565b005b600081600581106100e757600080fd5b016000915090505481565b806000906005610103929190610182565b5050565b61010f6101c2565b6000600580602002604051908101604052809291908260058015610148576020028201915b815481526020019060010190808311610134575b5050505050905090565b8060009060056101639291906101e4565b5060646000806005811061017a57610179610566565b5b018190555050565b82600581019282156101b1579160200282015b828111156101b0578235825591602001919060010190610195565b5b5090506101be9190610224565b5090565b6040518060a00160405280600590602082028036833780820191505090505090565b8260058101928215610213579160200282015b828111156102125782518255916020019190600101906101f7565b5b5090506102209190610224565b5090565b5b8082111561023d576000816000905550600101610225565b5090565b6000604051905090565b600080fd5b6000819050919050565b61026381610250565b811461026e57600080fd5b50565b6000813590506102808161025a565b92915050565b60006020828403121561029c5761029b61024b565b5b60006102aa84828501610271565b91505092915050565b6102bc81610250565b82525050565b60006020820190506102d760008301846102b3565b92915050565b600080fd5b6000819050826020600502820111156102fe576102fd6102dd565b5b92915050565b600060a0828403121561031a5761031961024b565b5b6000610328848285016102e2565b91505092915050565b600060059050919050565b600081905092915050565b6000819050919050565b61035a81610250565b82525050565b600061036c8383610351565b60208301905092915050565b6000602082019050919050565b61038e81610331565b610398818461033c565b92506103a382610347565b8060005b838110156103d45781516103bb8782610360565b96506103c683610378565b9250506001810190506103a7565b505050505050565b600060a0820190506103f16000830184610385565b92915050565b600080fd5b6000601f19601f8301169050919050565b7f4e487b7100000000000000000000000000000000000000000000000000000000600052604160045260246000fd5b610445826103fc565b810181811067ffffffffffffffff821117156104645761046361040d565b5b80604052505050565b6000610477610241565b9050610483828261043c565b919050565b600067ffffffffffffffff8211156104a3576104a261040d565b5b602082029050919050565b60006104c16104bc84610488565b61046d565b905080602084028301858111156104db576104da6102dd565b5b835b8181101561050457806104f08882610271565b8452602084019350506020810190506104dd565b5050509392505050565b600082601f830112610523576105226103f7565b5b60056105308482856104ae565b91505092915050565b600060a0828403121561054f5761054e61024b565b5b600061055d8482850161050e565b91505092915050565b7f4e487b7100000000000000000000000000000000000000000000000000000000600052603260045260246000fdfea264697066735822122024eee706568a6cdd47254741ed899b5dfcabc806f26a6070178cf8bbb97fd53c64736f6c63430008110033",
					"opcodes": "PUSH1 0x80 PUSH1 0x40 MSTORE CALLVALUE DUP1 ISZERO PUSH2 0x10 JUMPI PUSH1 0x0 DUP1 REVERT JUMPDEST POP PUSH2 0x5CB DUP1 PUSH2 0x20 PUSH1 0x0 CODECOPY PUSH1 0x0 RETURN INVALID PUSH1 0x80 PUSH1 0x40 MSTORE CALLVALUE DUP1 ISZERO PUSH2 0x10 JUMPI PUSH1 0x0 DUP1 REVERT JUMPDEST POP PUSH1 0x4 CALLDATASIZE LT PUSH2 0x4C JUMPI PUSH1 0x0 CALLDATALOAD PUSH1 0xE0 SHR DUP1 PUSH4 0x71E5EE5F EQ PUSH2 0x51 JUMPI DUP1 PUSH4 0x8436E639 EQ PUSH2 0x81 JUMPI DUP1 PUSH4 0x9F87BD86 EQ PUSH2 0x9D JUMPI DUP1 PUSH4 0xAC03FA0F EQ PUSH2 0xBB JUMPI JUMPDEST PUSH1 0x0 DUP1 REVERT JUMPDEST PUSH2 0x6B PUSH1 0x4 DUP1 CALLDATASIZE SUB DUP2 ADD SWAP1 PUSH2 0x66 SWAP2 SWAP1 PUSH2 0x286 JUMP JUMPDEST PUSH2 0xD7 JUMP JUMPDEST PUSH1 0x40 MLOAD PUSH2 0x78 SWAP2 SWAP1 PUSH2 0x2C2 JUMP JUMPDEST PUSH1 0x40 MLOAD DUP1 SWAP2 SUB SWAP1 RETURN JUMPDEST PUSH2 0x9B PUSH1 0x4 DUP1 CALLDATASIZE SUB DUP2 ADD SWAP1 PUSH2 0x96 SWAP2 SWAP1 PUSH2 0x304 JUMP JUMPDEST PUSH2 0xF2 JUMP JUMPDEST STOP JUMPDEST PUSH2 0xA5 PUSH2 0x107 JUMP JUMPDEST PUSH1 0x40 MLOAD PUSH2 0xB2 SWAP2 SWAP1 PUSH2 0x3DC JUMP JUMPDEST PUSH1 0x40 MLOAD DUP1 SWAP2 SUB SWAP1 RETURN JUMPDEST PUSH2 0xD5 PUSH1 0x4 DUP1 CALLDATASIZE SUB DUP2 ADD SWAP1 PUSH2 0xD0 SWAP2 SWAP1 PUSH2 0x539 JUMP JUMPDEST PUSH2 0x152 JUMP JUMPDEST STOP JUMPDEST PUSH1 0x0 DUP2 PUSH1 0x5 DUP2 LT PUSH2 0xE7 JUMPI PUSH1 0x0 DUP1 REVERT JUMPDEST ADD PUSH1 0x0 SWAP2 POP SWAP1 POP SLOAD DUP2 JUMP JUMPDEST DUP1 PUSH1 0x0 SWAP1 PUSH1 0x5 PUSH2 0x103 SWAP3 SWAP2 SWAP1 PUSH2 0x182 JUMP JUMPDEST POP POP JUMP JUMPDEST PUSH2 0x10F PUSH2 0x1C2 JUMP JUMPDEST PUSH1 0x0 PUSH1 0x5 DUP1 PUSH1 0x20 MUL PUSH1 0x40 MLOAD SWAP1 DUP2 ADD PUSH1 0x40 MSTORE DUP1 SWAP3 SWAP2 SWAP1 DUP3 PUSH1 0x5 DUP1 ISZERO PUSH2 0x148 JUMPI PUSH1 0x20 MUL DUP3 ADD SWAP2 JUMPDEST DUP2 SLOAD DUP2 MSTORE PUSH1 0x20 ADD SWAP1 PUSH1 0x1 ADD SWAP1 DUP1 DUP4 GT PUSH2 0x134 JUMPI JUMPDEST POP POP POP POP POP SWAP1 POP SWAP1 JUMP JUMPDEST DUP1 PUSH1 0x0 SWAP1 PUSH1 0x5 PUSH2 0x163 SWAP3 SWAP2 SWAP1 PUSH2 0x1E4 JUMP JUMPDEST POP PUSH1 0x64 PUSH1 0x0 DUP1 PUSH1 0x5 DUP2 LT PUSH2 0x17A JUMPI PUSH2 0x179 PUSH2 0x566 JUMP JUMPDEST JUMPDEST ADD DUP2 SWAP1 SSTORE POP POP JUMP JUMPDEST DUP3 PUSH1 0x5 DUP2 ADD SWAP3 DUP3 ISZERO PUSH2 0x1B1 JUMPI SWAP2 PUSH1 0x20 MUL DUP3 ADD JUMPDEST DUP3 DUP2 GT ISZERO PUSH2 0x1B0 JUMPI DUP3 CALLDATALOAD DUP3 SSTORE SWAP2 PUSH1 0x20 ADD SWAP2 SWAP1 PUSH1 0x1 ADD SWAP1 PUSH2 0x195 JUMP JUMPDEST JUMPDEST POP SWAP1 POP PUSH2 0x1BE SWAP2 SWAP1 PUSH2 0x224 JUMP JUMPDEST POP SWAP1 JUMP JUMPDEST PUSH1 0x40 MLOAD DUP1 PUSH1 0xA0 ADD PUSH1 0x40 MSTORE DUP1 PUSH1 0x5 SWAP1 PUSH1 0x20 DUP3 MUL DUP1 CALLDATASIZE DUP4 CALLDATACOPY DUP1 DUP3 ADD SWAP2 POP POP SWAP1 POP POP SWAP1 JUMP JUMPDEST DUP3 PUSH1 0x5 DUP2 ADD SWAP3 DUP3 ISZERO PUSH2 0x213 JUMPI SWAP2 PUSH1 0x20 MUL DUP3 ADD JUMPDEST DUP3 DUP2 GT ISZERO PUSH2 0x212 JUMPI DUP3 MLOAD DUP3 SSTORE SWAP2 PUSH1 0x20 ADD SWAP2 SWAP1 PUSH1 0x1 ADD SWAP1 PUSH2 0x1F7 JUMP JUMPDEST JUMPDEST POP SWAP1 POP PUSH2 0x220 SWAP2 SWAP1 PUSH2 0x224 JUMP JUMPDEST POP SWAP1 JUMP JUMPDEST JUMPDEST DUP1 DUP3 GT ISZERO PUSH2 0x23D JUMPI PUSH1 0x0 DUP2 PUSH1 0x0 SWAP1 SSTORE POP PUSH1 0x1 ADD PUSH2 0x225 JUMP JUMPDEST POP SWAP1 JUMP JUMPDEST PUSH1 0x0 PUSH1 0x40 MLOAD SWAP1 POP SWAP1 JUMP JUMPDEST PUSH1 0x0 DUP1 REVERT JUMPDEST PUSH1 0x0 DUP2 SWAP1 POP SWAP2 SWAP1 POP JUMP JUMPDEST PUSH2 0x263 DUP2 PUSH2 0x250 JUMP JUMPDEST DUP2 EQ PUSH2 0x26E JUMPI PUSH1 0x0 DUP1 REVERT JUMPDEST POP JUMP JUMPDEST PUSH1 0x0 DUP2 CALLDATALOAD SWAP1 POP PUSH2 0x280 DUP2 PUSH2 0x25A JUMP JUMPDEST SWAP3 SWAP2 POP POP JUMP JUMPDEST PUSH1 0x0 PUSH1 0x20 DUP3 DUP5 SUB SLT ISZERO PUSH2 0x29C JUMPI PUSH2 0x29B PUSH2 0x24B JUMP JUMPDEST JUMPDEST PUSH1 0x0 PUSH2 0x2AA DUP5 DUP3 DUP6 ADD PUSH2 0x271 JUMP JUMPDEST SWAP2 POP POP SWAP3 SWAP2 POP POP JUMP JUMPDEST PUSH2 0x2BC DUP2 PUSH2 0x250 JUMP JUMPDEST DUP3 MSTORE POP POP JUMP JUMPDEST PUSH1 0x0 PUSH1 0x20 DUP3 ADD SWAP1 POP PUSH2 0x2D7 PUSH1 0x0 DUP4 ADD DUP5 PUSH2 0x2B3 JUMP JUMPDEST SWAP3 SWAP2 POP POP JUMP JUMPDEST PUSH1 0x0 DUP1 REVERT JUMPDEST PUSH1 0x0 DUP2 SWAP1 POP DUP3 PUSH1 0x20 PUSH1 0x5 MUL DUP3 ADD GT ISZERO PUSH2 0x2FE JUMPI PUSH2 0x2FD PUSH2 0x2DD JUMP JUMPDEST JUMPDEST SWAP3 SWAP2 POP POP JUMP JUMPDEST PUSH1 0x0 PUSH1 0xA0 DUP3 DUP5 SUB SLT ISZERO PUSH2 0x31A JUMPI PUSH2 0x319 PUSH2 0x24B JUMP JUMPDEST JUMPDEST PUSH1 0x0 PUSH2 0x328 DUP5 DUP3 DUP6 ADD PUSH2 0x2E2 JUMP JUMPDEST SWAP2 POP POP SWAP3 SWAP2 POP POP JUMP JUMPDEST PUSH1 0x0 PUSH1 0x5 SWAP1 POP SWAP2 SWAP1 POP JUMP JUMPDEST PUSH1 0x0 DUP2 SWAP1 POP SWAP3 SWAP2 POP POP JUMP JUMPDEST PUSH1 0x0 DUP2 SWAP1 POP SWAP2 SWAP1 POP JUMP JUMPDEST PUSH2 0x35A DUP2 PUSH2 0x250 JUMP JUMPDEST DUP3 MSTORE POP POP JUMP JUMPDEST PUSH1 0x0 PUSH2 0x36C DUP4 DUP4 PUSH2 0x351 JUMP JUMPDEST PUSH1 0x20 DUP4 ADD SWAP1 POP SWAP3 SWAP2 POP POP JUMP JUMPDEST PUSH1 0x0 PUSH1 0x20 DUP3 ADD SWAP1 POP SWAP2 SWAP1 POP JUMP JUMPDEST PUSH2 0x38E DUP2 PUSH2 0x331 JUMP JUMPDEST PUSH2 0x398 DUP2 DUP5 PUSH2 0x33C JUMP JUMPDEST SWAP3 POP PUSH2 0x3A3 DUP3 PUSH2 0x347 JUMP JUMPDEST DUP1 PUSH1 0x0 JUMPDEST DUP4 DUP2 LT ISZERO PUSH2 0x3D4 JUMPI DUP2 MLOAD PUSH2 0x3BB DUP8 DUP3 PUSH2 0x360 JUMP JUMPDEST SWAP7 POP PUSH2 0x3C6 DUP4 PUSH2 0x378 JUMP JUMPDEST SWAP3 POP POP PUSH1 0x1 DUP2 ADD SWAP1 POP PUSH2 0x3A7 JUMP JUMPDEST POP POP POP POP POP POP JUMP JUMPDEST PUSH1 0x0 PUSH1 0xA0 DUP3 ADD SWAP1 POP PUSH2 0x3F1 PUSH1 0x0 DUP4 ADD DUP5 PUSH2 0x385 JUMP JUMPDEST SWAP3 SWAP2 POP POP JUMP JUMPDEST PUSH1 0x0 DUP1 REVERT JUMPDEST PUSH1 0x0 PUSH1 0x1F NOT PUSH1 0x1F DUP4 ADD AND SWAP1 POP SWAP2 SWAP1 POP JUMP JUMPDEST PUSH32 0x4E487B7100000000000000000000000000000000000000000000000000000000 PUSH1 0x0 MSTORE PUSH1 0x41 PUSH1 0x4 MSTORE PUSH1 0x24 PUSH1 0x0 REVERT JUMPDEST PUSH2 0x445 DUP3 PUSH2 0x3FC JUMP JUMPDEST DUP2 ADD DUP2 DUP2 LT PUSH8 0xFFFFFFFFFFFFFFFF DUP3 GT OR ISZERO PUSH2 0x464 JUMPI PUSH2 0x463 PUSH2 0x40D JUMP JUMPDEST JUMPDEST DUP1 PUSH1 0x40 MSTORE POP POP POP JUMP JUMPDEST PUSH1 0x0 PUSH2 0x477 PUSH2 0x241 JUMP JUMPDEST SWAP1 POP PUSH2 0x483 DUP3 DUP3 PUSH2 0x43C JUMP JUMPDEST SWAP2 SWAP1 POP JUMP JUMPDEST PUSH1 0x0 PUSH8 0xFFFFFFFFFFFFFFFF DUP3 GT ISZERO PUSH2 0x4A3 JUMPI PUSH2 0x4A2 PUSH2 0x40D JUMP JUMPDEST JUMPDEST PUSH1 0x20 DUP3 MUL SWAP1 POP SWAP2 SWAP1 POP JUMP JUMPDEST PUSH1 0x0 PUSH2 0x4C1 PUSH2 0x4BC DUP5 PUSH2 0x488 JUMP JUMPDEST PUSH2 0x46D JUMP JUMPDEST SWAP1 POP DUP1 PUSH1 0x20 DUP5 MUL DUP4 ADD DUP6 DUP2 GT ISZERO PUSH2 0x4DB JUMPI PUSH2 0x4DA PUSH2 0x2DD JUMP JUMPDEST JUMPDEST DUP4 JUMPDEST DUP2 DUP2 LT ISZERO PUSH2 0x504 JUMPI DUP1 PUSH2 0x4F0 DUP9 DUP3 PUSH2 0x271 JUMP JUMPDEST DUP5 MSTORE PUSH1 0x20 DUP5 ADD SWAP4 POP POP PUSH1 0x20 DUP2 ADD SWAP1 POP PUSH2 0x4DD JUMP JUMPDEST POP POP POP SWAP4 SWAP3 POP POP POP JUMP JUMPDEST PUSH1 0x0 DUP3 PUSH1 0x1F DUP4 ADD SLT PUSH2 0x523 JUMPI PUSH2 0x522 PUSH2 0x3F7 JUMP JUMPDEST JUMPDEST PUSH1 0x5 PUSH2 0x530 DUP5 DUP3 DUP6 PUSH2 0x4AE JUMP JUMPDEST SWAP2 POP POP SWAP3 SWAP2 POP POP JUMP JUMPDEST PUSH1 0x0 PUSH1 0xA0 DUP3 DUP5 SUB SLT ISZERO PUSH2 0x54F JUMPI PUSH2 0x54E PUSH2 0x24B JUMP JUMPDEST JUMPDEST PUSH1 0x0 PUSH2 0x55D DUP5 DUP3 DUP6 ADD PUSH2 0x50E JUMP JUMPDEST SWAP2 POP POP SWAP3 SWAP2 POP POP JUMP JUMPDEST PUSH32 0x4E487B7100000000000000000000000000000000000000000000000000000000 PUSH1 0x0 MSTORE PUSH1 0x32 PUSH1 0x4 MSTORE PUSH1 0x24 PUSH1 0x0 REVERT INVALID LOG2 PUSH5 0x6970667358 0x22 SLT KECCAK256 0x24 0xEE 0xE7 MOD JUMP DUP11 PUSH13 0xDD47254741ED899B5DFCABC806 CALLCODE PUSH11 0x6070178CF8BBB97FD53C64 PUSH20 0x6F6C634300081100330000000000000000000000 "
				},
				"gasEstimates": {
					"creation": {
						"codeDepositCost": "296600",
						"executionCost": "337",
						"totalCost": "296937"
					},
					"external": {
						"arr(uint256)": "infinite",
						"f1memory(uint256[5])": "infinite",
						"fmemory()": "infinite",
						"insert(uint256[5])": "infinite"
					}
				},
				"methodIdentifiers": {
					"arr(uint256)": "71e5ee5f",
					"f1memory(uint256[5])": "ac03fa0f",
					"fmemory()": "9f87bd86",
					"insert(uint256[5])": "8436e639"
				}
			},
			"storageLayout": {
				"storage": [
					{
						"astId": 5,
						"contract": "memory&data.sol:demo",
						"label": "arr",
						"offset": 0,
						"slot": "0",
						"type": "t_array(t_uint256)5_storage"
					}
				],
				"types": {
					"t_array(t_uint256)5_storage": {
						"base": "t_uint256",
						"encoding": "inplace",
						"label": "uint256[5]",
						"numberOfBytes": "160"
					},
					"t_uint256": {
						"encoding": "inplace",
						"label": "uint256",
						"numberOfBytes": "32"
					}
				}
			},
			"userdoc": {
				"kind": "user",
				"methods": {},
				"version": 1
			}
		}
	}
}