{
	"message.sol": {
		"message": {
			"abi": [
				{
					"inputs": [],
					"stateMutability": "nonpayable",
					"type": "constructor"
				},
				{
					"inputs": [
						{
							"internalType": "string",
							"name": "_newstring",
							"type": "string"
						}
					],
					"name": "Update",
					"outputs": [],
					"stateMutability": "nonpayable",
					"type": "function"
				},
				{
					"inputs": [],
					"name": "count",
					"outputs": [
						{
							"internalType": "uint256",
							"name": "",
							"type": "uint256"
						}
					],
					"stateMutability": "view",
					"type": "function"
				},
				{
					"inputs": [],
					"name": "myString",
					"outputs": [
						{
							"internalType": "string",
							"name": "",
							"type": "string"
						}
					],
					"stateMutability": "view",
					"type": "function"
				},
				{
					"inputs": [],
					"name": "owneraddress",
					"outputs": [
						{
							"internalType": "address",
							"name": "",
							"type": "address"
						}
					],
					"stateMutability": "view",
					"type": "function"
				}
			],
			"devdoc": {
				"kind": "dev",
				"methods": {},
				"version": 1
			},
			"evm": {
				"assembly": "    /* \"message.sol\":65:461  contract message {... */\n  mstore(0x40, 0x80)\n    /* \"message.sol\":96:133  string public myString = \"blockchain\" */\n  mload(0x40)\n  dup1\n  0x40\n  add\n  0x40\n  mstore\n  dup1\n  0x0a\n  dup2\n  mstore\n  0x20\n  add\n  0x626c6f636b636861696e00000000000000000000000000000000000000000000\n  dup2\n  mstore\n  pop\n  0x00\n  swap1\n  dup2\n  tag_1\n  swap2\n  swap1\n  tag_2\n  jump\t// in\ntag_1:\n  pop\n    /* \"message.sol\":194:195  0 */\n  0x00\n    /* \"message.sol\":174:195  uint public count = 0 */\n  0x02\n  sstore\n    /* \"message.sol\":205:266  constructor(){... */\n  callvalue\n  dup1\n  iszero\n  tag_3\n  jumpi\n  0x00\n  dup1\n  revert\ntag_3:\n  pop\n    /* \"message.sol\":245:255  msg.sender */\n  caller\n    /* \"message.sol\":230:242  owneraddress */\n  0x01\n  0x00\n    /* \"message.sol\":230:255  owneraddress = msg.sender */\n  0x0100\n  exp\n  dup2\n  sload\n  dup2\n  0xffffffffffffffffffffffffffffffffffffffff\n  mul\n  not\n  and\n  swap1\n  dup4\n  0xffffffffffffffffffffffffffffffffffffffff\n  and\n  mul\n  or\n  swap1\n  sstore\n  pop\n    /* \"message.sol\":65:461  contract message {... */\n  jump(tag_6)\n    /* \"#utility.yul\":7:106   */\ntag_7:\n    /* \"#utility.yul\":59:65   */\n  0x00\n    /* \"#utility.yul\":93:98   */\n  dup2\n    /* \"#utility.yul\":87:99   */\n  mload\n    /* \"#utility.yul\":77:99   */\n  swap1\n  pop\n    /* \"#utility.yul\":7:106   */\n  swap2\n  swap1\n  pop\n  jump\t// out\n    /* \"#utility.yul\":112:292   */\ntag_8:\n    /* \"#utility.yul\":160:237   */\n  0x4e487b7100000000000000000000000000000000000000000000000000000000\n    /* \"#utility.yul\":157:158   */\n  0x00\n    /* \"#utility.yul\":150:238   */\n  mstore\n    /* \"#utility.yul\":257:261   */\n  0x41\n    /* \"#utility.yul\":254:255   */\n  0x04\n    /* \"#utility.yul\":247:262   */\n  mstore\n    /* \"#utility.yul\":281:285   */\n  0x24\n    /* \"#utility.yul\":278:279   */\n  0x00\n    /* \"#utility.yul\":271:286   */\n  revert\n    /* \"#utility.yul\":298:478   */\ntag_9:\n    /* \"#utility.yul\":346:423   */\n  0x4e487b7100000000000000000000000000000000000000000000000000000000\n    /* \"#utility.yul\":343:344   */\n  0x00\n    /* \"#utility.yul\":336:424   */\n  mstore\n    /* \"#utility.yul\":443:447   */\n  0x22\n    /* \"#utility.yul\":440:441   */\n  0x04\n    /* \"#utility.yul\":433:448   */\n  mstore\n    /* \"#utility.yul\":467:471   */\n  0x24\n    /* \"#utility.yul\":464:465   */\n  0x00\n    /* \"#utility.yul\":457:472   */\n  revert\n    /* \"#utility.yul\":484:804   */\ntag_10:\n    /* \"#utility.yul\":528:534   */\n  0x00\n    /* \"#utility.yul\":565:566   */\n  0x02\n    /* \"#utility.yul\":559:563   */\n  dup3\n    /* \"#utility.yul\":555:567   */\n  div\n    /* \"#utility.yul\":545:567   */\n  swap1\n  pop\n    /* \"#utility.yul\":612:613   */\n  0x01\n    /* \"#utility.yul\":606:610   */\n  dup3\n    /* \"#utility.yul\":602:614   */\n  and\n    /* \"#utility.yul\":633:651   */\n  dup1\n    /* \"#utility.yul\":623:704   */\n  tag_32\n  jumpi\n    /* \"#utility.yul\":689:693   */\n  0x7f\n    /* \"#utility.yul\":681:687   */\n  dup3\n    /* \"#utility.yul\":677:694   */\n  and\n    /* \"#utility.yul\":667:694   */\n  swap2\n  pop\n    /* \"#utility.yul\":623:704   */\ntag_32:\n    /* \"#utility.yul\":751:753   */\n  0x20\n    /* \"#utility.yul\":743:749   */\n  dup3\n    /* \"#utility.yul\":740:754   */\n  lt\n    /* \"#utility.yul\":720:738   */\n  dup2\n    /* \"#utility.yul\":717:755   */\n  sub\n    /* \"#utility.yul\":714:798   */\n  tag_33\n  jumpi\n    /* \"#utility.yul\":770:788   */\n  tag_34\n  tag_9\n  jump\t// in\ntag_34:\n    /* \"#utility.yul\":714:798   */\ntag_33:\n    /* \"#utility.yul\":535:804   */\n  pop\n    /* \"#utility.yul\":484:804   */\n  swap2\n  swap1\n  pop\n  jump\t// out\n    /* \"#utility.yul\":810:951   */\ntag_11:\n    /* \"#utility.yul\":859:863   */\n  0x00\n    /* \"#utility.yul\":882:885   */\n  dup2\n    /* \"#utility.yul\":874:885   */\n  swap1\n  pop\n    /* \"#utility.yul\":905:908   */\n  dup2\n    /* \"#utility.yul\":902:903   */\n  0x00\n    /* \"#utility.yul\":895:909   */\n  mstore\n    /* \"#utility.yul\":939:943   */\n  0x20\n    /* \"#utility.yul\":936:937   */\n  0x00\n    /* \"#utility.yul\":926:944   */\n  keccak256\n    /* \"#utility.yul\":918:944   */\n  swap1\n  pop\n    /* \"#utility.yul\":810:951   */\n  swap2\n  swap1\n  pop\n  jump\t// out\n    /* \"#utility.yul\":957:1050   */\ntag_12:\n    /* \"#utility.yul\":994:1000   */\n  0x00\n    /* \"#utility.yul\":1041:1043   */\n  0x20\n    /* \"#utility.yul\":1036:1038   */\n  0x1f\n    /* \"#utility.yul\":1029:1034   */\n  dup4\n    /* \"#utility.yul\":1025:1039   */\n  add\n    /* \"#utility.yul\":1021:1044   */\n  div\n    /* \"#utility.yul\":1011:1044   */\n  swap1\n  pop\n    /* \"#utility.yul\":957:1050   */\n  swap2\n  swap1\n  pop\n  jump\t// out\n    /* \"#utility.yul\":1056:1163   */\ntag_13:\n    /* \"#utility.yul\":1100:1108   */\n  0x00\n    /* \"#utility.yul\":1150:1155   */\n  dup3\n    /* \"#utility.yul\":1144:1148   */\n  dup3\n    /* \"#utility.yul\":1140:1156   */\n  shl\n    /* \"#utility.yul\":1119:1156   */\n  swap1\n  pop\n    /* \"#utility.yul\":1056:1163   */\n  swap3\n  swap2\n  pop\n  pop\n  jump\t// out\n    /* \"#utility.yul\":1169:1562   */\ntag_14:\n    /* \"#utility.yul\":1238:1244   */\n  0x00\n    /* \"#utility.yul\":1288:1289   */\n  0x08\n    /* \"#utility.yul\":1276:1286   */\n  dup4\n    /* \"#utility.yul\":1272:1290   */\n  mul\n    /* \"#utility.yul\":1311:1408   */\n  tag_39\n    /* \"#utility.yul\":1341:1407   */\n  0xffffffffffffffffffffffffffffffffffffffffffffffffffffffffffffffff\n    /* \"#utility.yul\":1330:1339   */\n  dup3\n    /* \"#utility.yul\":1311:1408   */\n  tag_13\n  jump\t// in\ntag_39:\n    /* \"#utility.yul\":1429:1468   */\n  tag_40\n    /* \"#utility.yul\":1459:1467   */\n  dup7\n    /* \"#utility.yul\":1448:1457   */\n  dup4\n    /* \"#utility.yul\":1429:1468   */\n  tag_13\n  jump\t// in\ntag_40:\n    /* \"#utility.yul\":1417:1468   */\n  swap6\n  pop\n    /* \"#utility.yul\":1501:1505   */\n  dup1\n    /* \"#utility.yul\":1497:1506   */\n  not\n    /* \"#utility.yul\":1490:1495   */\n  dup5\n    /* \"#utility.yul\":1486:1507   */\n  and\n    /* \"#utility.yul\":1477:1507   */\n  swap4\n  pop\n    /* \"#utility.yul\":1550:1554   */\n  dup1\n    /* \"#utility.yul\":1540:1548   */\n  dup7\n    /* \"#utility.yul\":1536:1555   */\n  and\n    /* \"#utility.yul\":1529:1534   */\n  dup5\n    /* \"#utility.yul\":1526:1556   */\n  or\n    /* \"#utility.yul\":1516:1556   */\n  swap3\n  pop\n    /* \"#utility.yul\":1245:1562   */\n  pop\n  pop\n    /* \"#utility.yul\":1169:1562   */\n  swap4\n  swap3\n  pop\n  pop\n  pop\n  jump\t// out\n    /* \"#utility.yul\":1568:1645   */\ntag_15:\n    /* \"#utility.yul\":1605:1612   */\n  0x00\n    /* \"#utility.yul\":1634:1639   */\n  dup2\n    /* \"#utility.yul\":1623:1639   */\n  swap1\n  pop\n    /* \"#utility.yul\":1568:1645   */\n  swap2\n  swap1\n  pop\n  jump\t// out\n    /* \"#utility.yul\":1651:1711   */\ntag_16:\n    /* \"#utility.yul\":1679:1682   */\n  0x00\n    /* \"#utility.yul\":1700:1705   */\n  dup2\n    /* \"#utility.yul\":1693:1705   */\n  swap1\n  pop\n    /* \"#utility.yul\":1651:1711   */\n  swap2\n  swap1\n  pop\n  jump\t// out\n    /* \"#utility.yul\":1717:1859   */\ntag_17:\n    /* \"#utility.yul\":1767:1776   */\n  0x00\n    /* \"#utility.yul\":1800:1853   */\n  tag_44\n    /* \"#utility.yul\":1818:1852   */\n  tag_45\n    /* \"#utility.yul\":1827:1851   */\n  tag_46\n    /* \"#utility.yul\":1845:1850   */\n  dup5\n    /* \"#utility.yul\":1827:1851   */\n  tag_15\n  jump\t// in\ntag_46:\n    /* \"#utility.yul\":1818:1852   */\n  tag_16\n  jump\t// in\ntag_45:\n    /* \"#utility.yul\":1800:1853   */\n  tag_15\n  jump\t// in\ntag_44:\n    /* \"#utility.yul\":1787:1853   */\n  swap1\n  pop\n    /* \"#utility.yul\":1717:1859   */\n  swap2\n  swap1\n  pop\n  jump\t// out\n    /* \"#utility.yul\":1865:1940   */\ntag_18:\n    /* \"#utility.yul\":1908:1911   */\n  0x00\n    /* \"#utility.yul\":1929:1934   */\n  dup2\n    /* \"#utility.yul\":1922:1934   */\n  swap1\n  pop\n    /* \"#utility.yul\":1865:1940   */\n  swap2\n  swap1\n  pop\n  jump\t// out\n    /* \"#utility.yul\":1946:2215   */\ntag_19:\n    /* \"#utility.yul\":2056:2095   */\n  tag_49\n    /* \"#utility.yul\":2087:2094   */\n  dup4\n    /* \"#utility.yul\":2056:2095   */\n  tag_17\n  jump\t// in\ntag_49:\n    /* \"#utility.yul\":2117:2208   */\n  tag_50\n    /* \"#utility.yul\":2166:2207   */\n  tag_51\n    /* \"#utility.yul\":2190:2206   */\n  dup3\n    /* \"#utility.yul\":2166:2207   */\n  tag_18\n  jump\t// in\ntag_51:\n    /* \"#utility.yul\":2158:2164   */\n  dup5\n    /* \"#utility.yul\":2151:2155   */\n  dup5\n    /* \"#utility.yul\":2145:2156   */\n  sload\n    /* \"#utility.yul\":2117:2208   */\n  tag_14\n  jump\t// in\ntag_50:\n    /* \"#utility.yul\":2111:2115   */\n  dup3\n    /* \"#utility.yul\":2104:2209   */\n  sstore\n    /* \"#utility.yul\":2022:2215   */\n  pop\n    /* \"#utility.yul\":1946:2215   */\n  pop\n  pop\n  pop\n  jump\t// out\n    /* \"#utility.yul\":2221:2294   */\ntag_20:\n    /* \"#utility.yul\":2266:2269   */\n  0x00\n    /* \"#utility.yul\":2221:2294   */\n  swap1\n  jump\t// out\n    /* \"#utility.yul\":2300:2489   */\ntag_21:\n    /* \"#utility.yul\":2377:2409   */\n  tag_54\n  tag_20\n  jump\t// in\ntag_54:\n    /* \"#utility.yul\":2418:2483   */\n  tag_55\n    /* \"#utility.yul\":2476:2482   */\n  dup2\n    /* \"#utility.yul\":2468:2474   */\n  dup5\n    /* \"#utility.yul\":2462:2466   */\n  dup5\n    /* \"#utility.yul\":2418:2483   */\n  tag_19\n  jump\t// in\ntag_55:\n    /* \"#utility.yul\":2353:2489   */\n  pop\n    /* \"#utility.yul\":2300:2489   */\n  pop\n  pop\n  jump\t// out\n    /* \"#utility.yul\":2495:2681   */\ntag_22:\n    /* \"#utility.yul\":2555:2675   */\ntag_57:\n    /* \"#utility.yul\":2572:2575   */\n  dup2\n    /* \"#utility.yul\":2565:2570   */\n  dup2\n    /* \"#utility.yul\":2562:2576   */\n  lt\n    /* \"#utility.yul\":2555:2675   */\n  iszero\n  tag_59\n  jumpi\n    /* \"#utility.yul\":2626:2665   */\n  tag_60\n    /* \"#utility.yul\":2663:2664   */\n  0x00\n    /* \"#utility.yul\":2656:2661   */\n  dup3\n    /* \"#utility.yul\":2626:2665   */\n  tag_21\n  jump\t// in\ntag_60:\n    /* \"#utility.yul\":2599:2600   */\n  0x01\n    /* \"#utility.yul\":2592:2597   */\n  dup2\n    /* \"#utility.yul\":2588:2601   */\n  add\n    /* \"#utility.yul\":2579:2601   */\n  swap1\n  pop\n    /* \"#utility.yul\":2555:2675   */\n  jump(tag_57)\ntag_59:\n    /* \"#utility.yul\":2495:2681   */\n  pop\n  pop\n  jump\t// out\n    /* \"#utility.yul\":2687:3230   */\ntag_23:\n    /* \"#utility.yul\":2788:2790   */\n  0x1f\n    /* \"#utility.yul\":2783:2786   */\n  dup3\n    /* \"#utility.yul\":2780:2791   */\n  gt\n    /* \"#utility.yul\":2777:3223   */\n  iszero\n  tag_62\n  jumpi\n    /* \"#utility.yul\":2822:2860   */\n  tag_63\n    /* \"#utility.yul\":2854:2859   */\n  dup2\n    /* \"#utility.yul\":2822:2860   */\n  tag_11\n  jump\t// in\ntag_63:\n    /* \"#utility.yul\":2906:2935   */\n  tag_64\n    /* \"#utility.yul\":2924:2934   */\n  dup5\n    /* \"#utility.yul\":2906:2935   */\n  tag_12\n  jump\t// in\ntag_64:\n    /* \"#utility.yul\":2896:2904   */\n  dup2\n    /* \"#utility.yul\":2892:2936   */\n  add\n    /* \"#utility.yul\":3089:3091   */\n  0x20\n    /* \"#utility.yul\":3077:3087   */\n  dup6\n    /* \"#utility.yul\":3074:3092   */\n  lt\n    /* \"#utility.yul\":3071:3120   */\n  iszero\n  tag_65\n  jumpi\n    /* \"#utility.yul\":3110:3118   */\n  dup2\n    /* \"#utility.yul\":3095:3118   */\n  swap1\n  pop\n    /* \"#utility.yul\":3071:3120   */\ntag_65:\n    /* \"#utility.yul\":3133:3213   */\n  tag_66\n    /* \"#utility.yul\":3189:3211   */\n  tag_67\n    /* \"#utility.yul\":3207:3210   */\n  dup6\n    /* \"#utility.yul\":3189:3211   */\n  tag_12\n  jump\t// in\ntag_67:\n    /* \"#utility.yul\":3179:3187   */\n  dup4\n    /* \"#utility.yul\":3175:3212   */\n  add\n    /* \"#utility.yul\":3162:3173   */\n  dup3\n    /* \"#utility.yul\":3133:3213   */\n  tag_22\n  jump\t// in\ntag_66:\n    /* \"#utility.yul\":2792:3223   */\n  pop\n  pop\n    /* \"#utility.yul\":2777:3223   */\ntag_62:\n    /* \"#utility.yul\":2687:3230   */\n  pop\n  pop\n  pop\n  jump\t// out\n    /* \"#utility.yul\":3236:3353   */\ntag_24:\n    /* \"#utility.yul\":3290:3298   */\n  0x00\n    /* \"#utility.yul\":3340:3345   */\n  dup3\n    /* \"#utility.yul\":3334:3338   */\n  dup3\n    /* \"#utility.yul\":3330:3346   */\n  shr\n    /* \"#utility.yul\":3309:3346   */\n  swap1\n  pop\n    /* \"#utility.yul\":3236:3353   */\n  swap3\n  swap2\n  pop\n  pop\n  jump\t// out\n    /* \"#utility.yul\":3359:3528   */\ntag_25:\n    /* \"#utility.yul\":3403:3409   */\n  0x00\n    /* \"#utility.yul\":3436:3487   */\n  tag_70\n    /* \"#utility.yul\":3484:3485   */\n  0x00\n    /* \"#utility.yul\":3480:3486   */\n  not\n    /* \"#utility.yul\":3472:3477   */\n  dup5\n    /* \"#utility.yul\":3469:3470   */\n  0x08\n    /* \"#utility.yul\":3465:3478   */\n  mul\n    /* \"#utility.yul\":3436:3487   */\n  tag_24\n  jump\t// in\ntag_70:\n    /* \"#utility.yul\":3432:3488   */\n  not\n    /* \"#utility.yul\":3517:3521   */\n  dup1\n    /* \"#utility.yul\":3511:3515   */\n  dup4\n    /* \"#utility.yul\":3507:3522   */\n  and\n    /* \"#utility.yul\":3497:3522   */\n  swap2\n  pop\n    /* \"#utility.yul\":3410:3528   */\n  pop\n    /* \"#utility.yul\":3359:3528   */\n  swap3\n  swap2\n  pop\n  pop\n  jump\t// out\n    /* \"#utility.yul\":3533:3828   */\ntag_26:\n    /* \"#utility.yul\":3609:3613   */\n  0x00\n    /* \"#utility.yul\":3755:3784   */\n  tag_72\n    /* \"#utility.yul\":3780:3783   */\n  dup4\n    /* \"#utility.yul\":3774:3778   */\n  dup4\n    /* \"#utility.yul\":3755:3784   */\n  tag_25\n  jump\t// in\ntag_72:\n    /* \"#utility.yul\":3747:3784   */\n  swap2\n  pop\n    /* \"#utility.yul\":3817:3820   */\n  dup3\n    /* \"#utility.yul\":3814:3815   */\n  0x02\n    /* \"#utility.yul\":3810:3821   */\n  mul\n    /* \"#utility.yul\":3804:3808   */\n  dup3\n    /* \"#utility.yul\":3801:3822   */\n  or\n    /* \"#utility.yul\":3793:3822   */\n  swap1\n  pop\n    /* \"#utility.yul\":3533:3828   */\n  swap3\n  swap2\n  pop\n  pop\n  jump\t// out\n    /* \"#utility.yul\":3833:5228   */\ntag_2:\n    /* \"#utility.yul\":3950:3987   */\n  tag_74\n    /* \"#utility.yul\":3983:3986   */\n  dup3\n    /* \"#utility.yul\":3950:3987   */\n  tag_7\n  jump\t// in\ntag_74:\n    /* \"#utility.yul\":4052:4070   */\n  0xffffffffffffffff\n    /* \"#utility.yul\":4044:4050   */\n  dup2\n    /* \"#utility.yul\":4041:4071   */\n  gt\n    /* \"#utility.yul\":4038:4094   */\n  iszero\n  tag_75\n  jumpi\n    /* \"#utility.yul\":4074:4092   */\n  tag_76\n  tag_8\n  jump\t// in\ntag_76:\n    /* \"#utility.yul\":4038:4094   */\ntag_75:\n    /* \"#utility.yul\":4118:4156   */\n  tag_77\n    /* \"#utility.yul\":4150:4154   */\n  dup3\n    /* \"#utility.yul\":4144:4155   */\n  sload\n    /* \"#utility.yul\":4118:4156   */\n  tag_10\n  jump\t// in\ntag_77:\n    /* \"#utility.yul\":4203:4270   */\n  tag_78\n    /* \"#utility.yul\":4263:4269   */\n  dup3\n    /* \"#utility.yul\":4255:4261   */\n  dup3\n    /* \"#utility.yul\":4249:4253   */\n  dup6\n    /* \"#utility.yul\":4203:4270   */\n  tag_23\n  jump\t// in\ntag_78:\n    /* \"#utility.yul\":4297:4298   */\n  0x00\n    /* \"#utility.yul\":4321:4325   */\n  0x20\n    /* \"#utility.yul\":4308:4325   */\n  swap1\n  pop\n    /* \"#utility.yul\":4353:4355   */\n  0x1f\n    /* \"#utility.yul\":4345:4351   */\n  dup4\n    /* \"#utility.yul\":4342:4356   */\n  gt\n    /* \"#utility.yul\":4370:4371   */\n  0x01\n    /* \"#utility.yul\":4365:4983   */\n  dup2\n  eq\n  tag_80\n  jumpi\n    /* \"#utility.yul\":5027:5028   */\n  0x00\n    /* \"#utility.yul\":5044:5050   */\n  dup5\n    /* \"#utility.yul\":5041:5118   */\n  iszero\n  tag_81\n  jumpi\n    /* \"#utility.yul\":5093:5102   */\n  dup3\n    /* \"#utility.yul\":5088:5091   */\n  dup8\n    /* \"#utility.yul\":5084:5103   */\n  add\n    /* \"#utility.yul\":5078:5104   */\n  mload\n    /* \"#utility.yul\":5069:5104   */\n  swap1\n  pop\n    /* \"#utility.yul\":5041:5118   */\ntag_81:\n    /* \"#utility.yul\":5144:5211   */\n  tag_82\n    /* \"#utility.yul\":5204:5210   */\n  dup6\n    /* \"#utility.yul\":5197:5202   */\n  dup3\n    /* \"#utility.yul\":5144:5211   */\n  tag_26\n  jump\t// in\ntag_82:\n    /* \"#utility.yul\":5138:5142   */\n  dup7\n    /* \"#utility.yul\":5131:5212   */\n  sstore\n    /* \"#utility.yul\":5000:5222   */\n  pop\n    /* \"#utility.yul\":4335:5222   */\n  jump(tag_79)\n    /* \"#utility.yul\":4365:4983   */\ntag_80:\n    /* \"#utility.yul\":4417:4421   */\n  0x1f\n    /* \"#utility.yul\":4413:4422   */\n  not\n    /* \"#utility.yul\":4405:4411   */\n  dup5\n    /* \"#utility.yul\":4401:4423   */\n  and\n    /* \"#utility.yul\":4451:4488   */\n  tag_83\n    /* \"#utility.yul\":4483:4487   */\n  dup7\n    /* \"#utility.yul\":4451:4488   */\n  tag_11\n  jump\t// in\ntag_83:\n    /* \"#utility.yul\":4510:4511   */\n  0x00\n    /* \"#utility.yul\":4524:4732   */\ntag_84:\n    /* \"#utility.yul\":4538:4545   */\n  dup3\n    /* \"#utility.yul\":4535:4536   */\n  dup2\n    /* \"#utility.yul\":4532:4546   */\n  lt\n    /* \"#utility.yul\":4524:4732   */\n  iszero\n  tag_86\n  jumpi\n    /* \"#utility.yul\":4617:4626   */\n  dup5\n    /* \"#utility.yul\":4612:4615   */\n  dup10\n    /* \"#utility.yul\":4608:4627   */\n  add\n    /* \"#utility.yul\":4602:4628   */\n  mload\n    /* \"#utility.yul\":4594:4600   */\n  dup3\n    /* \"#utility.yul\":4587:4629   */\n  sstore\n    /* \"#utility.yul\":4668:4669   */\n  0x01\n    /* \"#utility.yul\":4660:4666   */\n  dup3\n    /* \"#utility.yul\":4656:4670   */\n  add\n    /* \"#utility.yul\":4646:4670   */\n  swap2\n  pop\n    /* \"#utility.yul\":4715:4717   */\n  0x20\n    /* \"#utility.yul\":4704:4713   */\n  dup6\n    /* \"#utility.yul\":4700:4718   */\n  add\n    /* \"#utility.yul\":4687:4718   */\n  swap5\n  pop\n    /* \"#utility.yul\":4561:4565   */\n  0x20\n    /* \"#utility.yul\":4558:4559   */\n  dup2\n    /* \"#utility.yul\":4554:4566   */\n  add\n    /* \"#utility.yul\":4549:4566   */\n  swap1\n  pop\n    /* \"#utility.yul\":4524:4732   */\n  jump(tag_84)\ntag_86:\n    /* \"#utility.yul\":4760:4766   */\n  dup7\n    /* \"#utility.yul\":4751:4758   */\n  dup4\n    /* \"#utility.yul\":4748:4767   */\n  lt\n    /* \"#utility.yul\":4745:4924   */\n  iszero\n  tag_87\n  jumpi\n    /* \"#utility.yul\":4818:4827   */\n  dup5\n    /* \"#utility.yul\":4813:4816   */\n  dup10\n    /* \"#utility.yul\":4809:4828   */\n  add\n    /* \"#utility.yul\":4803:4829   */\n  mload\n    /* \"#utility.yul\":4861:4909   */\n  tag_88\n    /* \"#utility.yul\":4903:4907   */\n  0x1f\n    /* \"#utility.yul\":4895:4901   */\n  dup10\n    /* \"#utility.yul\":4891:4908   */\n  and\n    /* \"#utility.yul\":4880:4889   */\n  dup3\n    /* \"#utility.yul\":4861:4909   */\n  tag_25\n  jump\t// in\ntag_88:\n    /* \"#utility.yul\":4853:4859   */\n  dup4\n    /* \"#utility.yul\":4846:4910   */\n  sstore\n    /* \"#utility.yul\":4768:4924   */\n  pop\n    /* \"#utility.yul\":4745:4924   */\ntag_87:\n    /* \"#utility.yul\":4970:4971   */\n  0x01\n    /* \"#utility.yul\":4966:4967   */\n  0x02\n    /* \"#utility.yul\":4958:4964   */\n  dup9\n    /* \"#utility.yul\":4954:4968   */\n  mul\n    /* \"#utility.yul\":4950:4972   */\n  add\n    /* \"#utility.yul\":4944:4948   */\n  dup9\n    /* \"#utility.yul\":4937:4973   */\n  sstore\n    /* \"#utility.yul\":4372:4983   */\n  pop\n  pop\n  pop\n    /* \"#utility.yul\":4335:5222   */\ntag_79:\n  pop\n    /* \"#utility.yul\":3925:5228   */\n  pop\n  pop\n  pop\n    /* \"#utility.yul\":3833:5228   */\n  pop\n  pop\n  jump\t// out\n    /* \"message.sol\":65:461  contract message {... */\ntag_6:\n  dataSize(sub_0)\n  dup1\n  dataOffset(sub_0)\n  0x00\n  codecopy\n  0x00\n  return\nstop\n\nsub_0: assembly {\n        /* \"message.sol\":65:461  contract message {... */\n      mstore(0x40, 0x80)\n      callvalue\n      dup1\n      iszero\n      tag_1\n      jumpi\n      0x00\n      dup1\n      revert\n    tag_1:\n      pop\n      jumpi(tag_2, lt(calldatasize, 0x04))\n      shr(0xe0, calldataload(0x00))\n      dup1\n      0x06661abd\n      eq\n      tag_3\n      jumpi\n      dup1\n      0x4795394c\n      eq\n      tag_4\n      jumpi\n      dup1\n      0x492bfa18\n      eq\n      tag_5\n      jumpi\n      dup1\n      0xaaa48425\n      eq\n      tag_6\n      jumpi\n    tag_2:\n      0x00\n      dup1\n      revert\n        /* \"message.sol\":174:195  uint public count = 0 */\n    tag_3:\n      tag_7\n      tag_8\n      jump\t// in\n    tag_7:\n      mload(0x40)\n      tag_9\n      swap2\n      swap1\n      tag_10\n      jump\t// in\n    tag_9:\n      mload(0x40)\n      dup1\n      swap2\n      sub\n      swap1\n      return\n        /* \"message.sol\":274:458  function Update(string memory _newstring) public {... */\n    tag_4:\n      tag_11\n      0x04\n      dup1\n      calldatasize\n      sub\n      dup2\n      add\n      swap1\n      tag_12\n      swap2\n      swap1\n      tag_13\n      jump\t// in\n    tag_12:\n      tag_14\n      jump\t// in\n    tag_11:\n      stop\n        /* \"message.sol\":96:133  string public myString = \"blockchain\" */\n    tag_5:\n      tag_15\n      tag_16\n      jump\t// in\n    tag_15:\n      mload(0x40)\n      tag_17\n      swap2\n      swap1\n      tag_18\n      jump\t// in\n    tag_17:\n      mload(0x40)\n      dup1\n      swap2\n      sub\n      swap1\n      return\n        /* \"message.sol\":140:167  address public owneraddress */\n    tag_6:\n      tag_19\n      tag_20\n      jump\t// in\n    tag_19:\n      mload(0x40)\n      tag_21\n      swap2\n      swap1\n      tag_22\n      jump\t// in\n    tag_21:\n      mload(0x40)\n      dup1\n      swap2\n      sub\n      swap1\n      return\n        /* \"message.sol\":174:195  uint public count = 0 */\n    tag_8:\n      sload(0x02)\n      dup2\n      jump\t// out\n        /* \"message.sol\":274:458  function Update(string memory _newstring) public {... */\n    tag_14:\n        /* \"message.sol\":355:365  msg.sender */\n      caller\n        /* \"message.sol\":339:365  owneraddress == msg.sender */\n      0xffffffffffffffffffffffffffffffffffffffff\n      and\n        /* \"message.sol\":339:351  owneraddress */\n      0x01\n      0x00\n      swap1\n      sload\n      swap1\n      0x0100\n      exp\n      swap1\n      div\n      0xffffffffffffffffffffffffffffffffffffffff\n      and\n        /* \"message.sol\":339:365  owneraddress == msg.sender */\n      0xffffffffffffffffffffffffffffffffffffffff\n      and\n      sub\n        /* \"message.sol\":336:449  if(owneraddress == msg.sender){... */\n      tag_24\n      jumpi\n        /* \"message.sol\":401:411  _newstring */\n      dup1\n        /* \"message.sol\":391:399  myString */\n      0x00\n        /* \"message.sol\":391:411  myString =_newstring */\n      swap1\n      dup2\n      tag_25\n      swap2\n      swap1\n      tag_26\n      jump\t// in\n    tag_25:\n      pop\n        /* \"message.sol\":434:435  1 */\n      0x01\n        /* \"message.sol\":428:433  count */\n      sload(0x02)\n        /* \"message.sol\":428:435  count+1 */\n      tag_27\n      swap2\n      swap1\n      tag_28\n      jump\t// in\n    tag_27:\n        /* \"message.sol\":422:427  count */\n      0x02\n        /* \"message.sol\":422:435  count=count+1 */\n      dup2\n      swap1\n      sstore\n      pop\n        /* \"message.sol\":336:449  if(owneraddress == msg.sender){... */\n    tag_24:\n        /* \"message.sol\":274:458  function Update(string memory _newstring) public {... */\n      pop\n      jump\t// out\n        /* \"message.sol\":96:133  string public myString = \"blockchain\" */\n    tag_16:\n      0x00\n      dup1\n      sload\n      tag_29\n      swap1\n      tag_30\n      jump\t// in\n    tag_29:\n      dup1\n      0x1f\n      add\n      0x20\n      dup1\n      swap2\n      div\n      mul\n      0x20\n      add\n      mload(0x40)\n      swap1\n      dup2\n      add\n      0x40\n      mstore\n      dup1\n      swap3\n      swap2\n      swap1\n      dup2\n      dup2\n      mstore\n      0x20\n      add\n      dup3\n      dup1\n      sload\n      tag_31\n      swap1\n      tag_30\n      jump\t// in\n    tag_31:\n      dup1\n      iszero\n      tag_32\n      jumpi\n      dup1\n      0x1f\n      lt\n      tag_33\n      jumpi\n      0x0100\n      dup1\n      dup4\n      sload\n      div\n      mul\n      dup4\n      mstore\n      swap2\n      0x20\n      add\n      swap2\n      jump(tag_32)\n    tag_33:\n      dup3\n      add\n      swap2\n      swap1\n      0x00\n      mstore\n      keccak256(0x00, 0x20)\n      swap1\n    tag_34:\n      dup2\n      sload\n      dup2\n      mstore\n      swap1\n      0x01\n      add\n      swap1\n      0x20\n      add\n      dup1\n      dup4\n      gt\n      tag_34\n      jumpi\n      dup3\n      swap1\n      sub\n      0x1f\n      and\n      dup3\n      add\n      swap2\n    tag_32:\n      pop\n      pop\n      pop\n      pop\n      pop\n      dup2\n      jump\t// out\n        /* \"message.sol\":140:167  address public owneraddress */\n    tag_20:\n      0x01\n      0x00\n      swap1\n      sload\n      swap1\n      0x0100\n      exp\n      swap1\n      div\n      0xffffffffffffffffffffffffffffffffffffffff\n      and\n      dup2\n      jump\t// out\n        /* \"#utility.yul\":7:84   */\n    tag_35:\n        /* \"#utility.yul\":44:51   */\n      0x00\n        /* \"#utility.yul\":73:78   */\n      dup2\n        /* \"#utility.yul\":62:78   */\n      swap1\n      pop\n        /* \"#utility.yul\":7:84   */\n      swap2\n      swap1\n      pop\n      jump\t// out\n        /* \"#utility.yul\":90:208   */\n    tag_36:\n        /* \"#utility.yul\":177:201   */\n      tag_77\n        /* \"#utility.yul\":195:200   */\n      dup2\n        /* \"#utility.yul\":177:201   */\n      tag_35\n      jump\t// in\n    tag_77:\n        /* \"#utility.yul\":172:175   */\n      dup3\n        /* \"#utility.yul\":165:202   */\n      mstore\n        /* \"#utility.yul\":90:208   */\n      pop\n      pop\n      jump\t// out\n        /* \"#utility.yul\":214:436   */\n    tag_10:\n        /* \"#utility.yul\":307:311   */\n      0x00\n        /* \"#utility.yul\":345:347   */\n      0x20\n        /* \"#utility.yul\":334:343   */\n      dup3\n        /* \"#utility.yul\":330:348   */\n      add\n        /* \"#utility.yul\":322:348   */\n      swap1\n      pop\n        /* \"#utility.yul\":358:429   */\n      tag_79\n        /* \"#utility.yul\":426:427   */\n      0x00\n        /* \"#utility.yul\":415:424   */\n      dup4\n        /* \"#utility.yul\":411:428   */\n      add\n        /* \"#utility.yul\":402:408   */\n      dup5\n        /* \"#utility.yul\":358:429   */\n      tag_36\n      jump\t// in\n    tag_79:\n        /* \"#utility.yul\":214:436   */\n      swap3\n      swap2\n      pop\n      pop\n      jump\t// out\n        /* \"#utility.yul\":442:517   */\n    tag_37:\n        /* \"#utility.yul\":475:481   */\n      0x00\n        /* \"#utility.yul\":508:510   */\n      0x40\n        /* \"#utility.yul\":502:511   */\n      mload\n        /* \"#utility.yul\":492:511   */\n      swap1\n      pop\n        /* \"#utility.yul\":442:517   */\n      swap1\n      jump\t// out\n        /* \"#utility.yul\":523:640   */\n    tag_38:\n        /* \"#utility.yul\":632:633   */\n      0x00\n        /* \"#utility.yul\":629:630   */\n      dup1\n        /* \"#utility.yul\":622:634   */\n      revert\n        /* \"#utility.yul\":646:763   */\n    tag_39:\n        /* \"#utility.yul\":755:756   */\n      0x00\n        /* \"#utility.yul\":752:753   */\n      dup1\n        /* \"#utility.yul\":745:757   */\n      revert\n        /* \"#utility.yul\":769:886   */\n    tag_40:\n        /* \"#utility.yul\":878:879   */\n      0x00\n        /* \"#utility.yul\":875:876   */\n      dup1\n        /* \"#utility.yul\":868:880   */\n      revert\n        /* \"#utility.yul\":892:1009   */\n    tag_41:\n        /* \"#utility.yul\":1001:1002   */\n      0x00\n        /* \"#utility.yul\":998:999   */\n      dup1\n        /* \"#utility.yul\":991:1003   */\n      revert\n        /* \"#utility.yul\":1015:1117   */\n    tag_42:\n        /* \"#utility.yul\":1056:1062   */\n      0x00\n        /* \"#utility.yul\":1107:1109   */\n      0x1f\n        /* \"#utility.yul\":1103:1110   */\n      not\n        /* \"#utility.yul\":1098:1100   */\n      0x1f\n        /* \"#utility.yul\":1091:1096   */\n      dup4\n        /* \"#utility.yul\":1087:1101   */\n      add\n        /* \"#utility.yul\":1083:1111   */\n      and\n        /* \"#utility.yul\":1073:1111   */\n      swap1\n      pop\n        /* \"#utility.yul\":1015:1117   */\n      swap2\n      swap1\n      pop\n      jump\t// out\n        /* \"#utility.yul\":1123:1303   */\n    tag_43:\n        /* \"#utility.yul\":1171:1248   */\n      0x4e487b7100000000000000000000000000000000000000000000000000000000\n        /* \"#utility.yul\":1168:1169   */\n      0x00\n        /* \"#utility.yul\":1161:1249   */\n      mstore\n        /* \"#utility.yul\":1268:1272   */\n      0x41\n        /* \"#utility.yul\":1265:1266   */\n      0x04\n        /* \"#utility.yul\":1258:1273   */\n      mstore\n        /* \"#utility.yul\":1292:1296   */\n      0x24\n        /* \"#utility.yul\":1289:1290   */\n      0x00\n        /* \"#utility.yul\":1282:1297   */\n      revert\n        /* \"#utility.yul\":1309:1590   */\n    tag_44:\n        /* \"#utility.yul\":1392:1419   */\n      tag_88\n        /* \"#utility.yul\":1414:1418   */\n      dup3\n        /* \"#utility.yul\":1392:1419   */\n      tag_42\n      jump\t// in\n    tag_88:\n        /* \"#utility.yul\":1384:1390   */\n      dup2\n        /* \"#utility.yul\":1380:1420   */\n      add\n        /* \"#utility.yul\":1522:1528   */\n      dup2\n        /* \"#utility.yul\":1510:1520   */\n      dup2\n        /* \"#utility.yul\":1507:1529   */\n      lt\n        /* \"#utility.yul\":1486:1504   */\n      0xffffffffffffffff\n        /* \"#utility.yul\":1474:1484   */\n      dup3\n        /* \"#utility.yul\":1471:1505   */\n      gt\n        /* \"#utility.yul\":1468:1530   */\n      or\n        /* \"#utility.yul\":1465:1553   */\n      iszero\n      tag_89\n      jumpi\n        /* \"#utility.yul\":1533:1551   */\n      tag_90\n      tag_43\n      jump\t// in\n    tag_90:\n        /* \"#utility.yul\":1465:1553   */\n    tag_89:\n        /* \"#utility.yul\":1573:1583   */\n      dup1\n        /* \"#utility.yul\":1569:1571   */\n      0x40\n        /* \"#utility.yul\":1562:1584   */\n      mstore\n        /* \"#utility.yul\":1352:1590   */\n      pop\n        /* \"#utility.yul\":1309:1590   */\n      pop\n      pop\n      jump\t// out\n        /* \"#utility.yul\":1596:1725   */\n    tag_45:\n        /* \"#utility.yul\":1630:1636   */\n      0x00\n        /* \"#utility.yul\":1657:1677   */\n      tag_92\n      tag_37\n      jump\t// in\n    tag_92:\n        /* \"#utility.yul\":1647:1677   */\n      swap1\n      pop\n        /* \"#utility.yul\":1686:1719   */\n      tag_93\n        /* \"#utility.yul\":1714:1718   */\n      dup3\n        /* \"#utility.yul\":1706:1712   */\n      dup3\n        /* \"#utility.yul\":1686:1719   */\n      tag_44\n      jump\t// in\n    tag_93:\n        /* \"#utility.yul\":1596:1725   */\n      swap2\n      swap1\n      pop\n      jump\t// out\n        /* \"#utility.yul\":1731:2039   */\n    tag_46:\n        /* \"#utility.yul\":1793:1797   */\n      0x00\n        /* \"#utility.yul\":1883:1901   */\n      0xffffffffffffffff\n        /* \"#utility.yul\":1875:1881   */\n      dup3\n        /* \"#utility.yul\":1872:1902   */\n      gt\n        /* \"#utility.yul\":1869:1925   */\n      iszero\n      tag_95\n      jumpi\n        /* \"#utility.yul\":1905:1923   */\n      tag_96\n      tag_43\n      jump\t// in\n    tag_96:\n        /* \"#utility.yul\":1869:1925   */\n    tag_95:\n        /* \"#utility.yul\":1943:1972   */\n      tag_97\n        /* \"#utility.yul\":1965:1971   */\n      dup3\n        /* \"#utility.yul\":1943:1972   */\n      tag_42\n      jump\t// in\n    tag_97:\n        /* \"#utility.yul\":1935:1972   */\n      swap1\n      pop\n        /* \"#utility.yul\":2027:2031   */\n      0x20\n        /* \"#utility.yul\":2021:2025   */\n      dup2\n        /* \"#utility.yul\":2017:2032   */\n      add\n        /* \"#utility.yul\":2009:2032   */\n      swap1\n      pop\n        /* \"#utility.yul\":1731:2039   */\n      swap2\n      swap1\n      pop\n      jump\t// out\n        /* \"#utility.yul\":2045:2199   */\n    tag_47:\n        /* \"#utility.yul\":2129:2135   */\n      dup3\n        /* \"#utility.yul\":2124:2127   */\n      dup2\n        /* \"#utility.yul\":2119:2122   */\n      dup4\n        /* \"#utility.yul\":2106:2136   */\n      calldatacopy\n        /* \"#utility.yul\":2191:2192   */\n      0x00\n        /* \"#utility.yul\":2182:2188   */\n      dup4\n        /* \"#utility.yul\":2177:2180   */\n      dup4\n        /* \"#utility.yul\":2173:2189   */\n      add\n        /* \"#utility.yul\":2166:2193   */\n      mstore\n        /* \"#utility.yul\":2045:2199   */\n      pop\n      pop\n      pop\n      jump\t// out\n        /* \"#utility.yul\":2205:2617   */\n    tag_48:\n        /* \"#utility.yul\":2283:2288   */\n      0x00\n        /* \"#utility.yul\":2308:2374   */\n      tag_100\n        /* \"#utility.yul\":2324:2373   */\n      tag_101\n        /* \"#utility.yul\":2366:2372   */\n      dup5\n        /* \"#utility.yul\":2324:2373   */\n      tag_46\n      jump\t// in\n    tag_101:\n        /* \"#utility.yul\":2308:2374   */\n      tag_45\n      jump\t// in\n    tag_100:\n        /* \"#utility.yul\":2299:2374   */\n      swap1\n      pop\n        /* \"#utility.yul\":2397:2403   */\n      dup3\n        /* \"#utility.yul\":2390:2395   */\n      dup2\n        /* \"#utility.yul\":2383:2404   */\n      mstore\n        /* \"#utility.yul\":2435:2439   */\n      0x20\n        /* \"#utility.yul\":2428:2433   */\n      dup2\n        /* \"#utility.yul\":2424:2440   */\n      add\n        /* \"#utility.yul\":2473:2476   */\n      dup5\n        /* \"#utility.yul\":2464:2470   */\n      dup5\n        /* \"#utility.yul\":2459:2462   */\n      dup5\n        /* \"#utility.yul\":2455:2471   */\n      add\n        /* \"#utility.yul\":2452:2477   */\n      gt\n        /* \"#utility.yul\":2449:2561   */\n      iszero\n      tag_102\n      jumpi\n        /* \"#utility.yul\":2480:2559   */\n      tag_103\n      tag_41\n      jump\t// in\n    tag_103:\n        /* \"#utility.yul\":2449:2561   */\n    tag_102:\n        /* \"#utility.yul\":2570:2611   */\n      tag_104\n        /* \"#utility.yul\":2604:2610   */\n      dup5\n        /* \"#utility.yul\":2599:2602   */\n      dup3\n        /* \"#utility.yul\":2594:2597   */\n      dup6\n        /* \"#utility.yul\":2570:2611   */\n      tag_47\n      jump\t// in\n    tag_104:\n        /* \"#utility.yul\":2289:2617   */\n      pop\n        /* \"#utility.yul\":2205:2617   */\n      swap4\n      swap3\n      pop\n      pop\n      pop\n      jump\t// out\n        /* \"#utility.yul\":2637:2977   */\n    tag_49:\n        /* \"#utility.yul\":2693:2698   */\n      0x00\n        /* \"#utility.yul\":2742:2745   */\n      dup3\n        /* \"#utility.yul\":2735:2739   */\n      0x1f\n        /* \"#utility.yul\":2727:2733   */\n      dup4\n        /* \"#utility.yul\":2723:2740   */\n      add\n        /* \"#utility.yul\":2719:2746   */\n      slt\n        /* \"#utility.yul\":2709:2831   */\n      tag_106\n      jumpi\n        /* \"#utility.yul\":2750:2829   */\n      tag_107\n      tag_40\n      jump\t// in\n    tag_107:\n        /* \"#utility.yul\":2709:2831   */\n    tag_106:\n        /* \"#utility.yul\":2867:2873   */\n      dup2\n        /* \"#utility.yul\":2854:2874   */\n      calldataload\n        /* \"#utility.yul\":2892:2971   */\n      tag_108\n        /* \"#utility.yul\":2967:2970   */\n      dup5\n        /* \"#utility.yul\":2959:2965   */\n      dup3\n        /* \"#utility.yul\":2952:2956   */\n      0x20\n        /* \"#utility.yul\":2944:2950   */\n      dup7\n        /* \"#utility.yul\":2940:2957   */\n      add\n        /* \"#utility.yul\":2892:2971   */\n      tag_48\n      jump\t// in\n    tag_108:\n        /* \"#utility.yul\":2883:2971   */\n      swap2\n      pop\n        /* \"#utility.yul\":2699:2977   */\n      pop\n        /* \"#utility.yul\":2637:2977   */\n      swap3\n      swap2\n      pop\n      pop\n      jump\t// out\n        /* \"#utility.yul\":2983:3492   */\n    tag_13:\n        /* \"#utility.yul\":3052:3058   */\n      0x00\n        /* \"#utility.yul\":3101:3103   */\n      0x20\n        /* \"#utility.yul\":3089:3098   */\n      dup3\n        /* \"#utility.yul\":3080:3087   */\n      dup5\n        /* \"#utility.yul\":3076:3099   */\n      sub\n        /* \"#utility.yul\":3072:3104   */\n      slt\n        /* \"#utility.yul\":3069:3188   */\n      iszero\n      tag_110\n      jumpi\n        /* \"#utility.yul\":3107:3186   */\n      tag_111\n      tag_38\n      jump\t// in\n    tag_111:\n        /* \"#utility.yul\":3069:3188   */\n    tag_110:\n        /* \"#utility.yul\":3255:3256   */\n      0x00\n        /* \"#utility.yul\":3244:3253   */\n      dup3\n        /* \"#utility.yul\":3240:3257   */\n      add\n        /* \"#utility.yul\":3227:3258   */\n      calldataload\n        /* \"#utility.yul\":3285:3303   */\n      0xffffffffffffffff\n        /* \"#utility.yul\":3277:3283   */\n      dup2\n        /* \"#utility.yul\":3274:3304   */\n      gt\n        /* \"#utility.yul\":3271:3388   */\n      iszero\n      tag_112\n      jumpi\n        /* \"#utility.yul\":3307:3386   */\n      tag_113\n      tag_39\n      jump\t// in\n    tag_113:\n        /* \"#utility.yul\":3271:3388   */\n    tag_112:\n        /* \"#utility.yul\":3412:3475   */\n      tag_114\n        /* \"#utility.yul\":3467:3474   */\n      dup5\n        /* \"#utility.yul\":3458:3464   */\n      dup3\n        /* \"#utility.yul\":3447:3456   */\n      dup6\n        /* \"#utility.yul\":3443:3465   */\n      add\n        /* \"#utility.yul\":3412:3475   */\n      tag_49\n      jump\t// in\n    tag_114:\n        /* \"#utility.yul\":3402:3475   */\n      swap2\n      pop\n        /* \"#utility.yul\":3198:3485   */\n      pop\n        /* \"#utility.yul\":2983:3492   */\n      swap3\n      swap2\n      pop\n      pop\n      jump\t// out\n        /* \"#utility.yul\":3498:3597   */\n    tag_50:\n        /* \"#utility.yul\":3550:3556   */\n      0x00\n        /* \"#utility.yul\":3584:3589   */\n      dup2\n        /* \"#utility.yul\":3578:3590   */\n      mload\n        /* \"#utility.yul\":3568:3590   */\n      swap1\n      pop\n        /* \"#utility.yul\":3498:3597   */\n      swap2\n      swap1\n      pop\n      jump\t// out\n        /* \"#utility.yul\":3603:3772   */\n    tag_51:\n        /* \"#utility.yul\":3687:3698   */\n      0x00\n        /* \"#utility.yul\":3721:3727   */\n      dup3\n        /* \"#utility.yul\":3716:3719   */\n      dup3\n        /* \"#utility.yul\":3709:3728   */\n      mstore\n        /* \"#utility.yul\":3761:3765   */\n      0x20\n        /* \"#utility.yul\":3756:3759   */\n      dup3\n        /* \"#utility.yul\":3752:3766   */\n      add\n        /* \"#utility.yul\":3737:3766   */\n      swap1\n      pop\n        /* \"#utility.yul\":3603:3772   */\n      swap3\n      swap2\n      pop\n      pop\n      jump\t// out\n        /* \"#utility.yul\":3778:4085   */\n    tag_52:\n        /* \"#utility.yul\":3846:3847   */\n      0x00\n        /* \"#utility.yul\":3856:3969   */\n    tag_118:\n        /* \"#utility.yul\":3870:3876   */\n      dup4\n        /* \"#utility.yul\":3867:3868   */\n      dup2\n        /* \"#utility.yul\":3864:3877   */\n      lt\n        /* \"#utility.yul\":3856:3969   */\n      iszero\n      tag_120\n      jumpi\n        /* \"#utility.yul\":3955:3956   */\n      dup1\n        /* \"#utility.yul\":3950:3953   */\n      dup3\n        /* \"#utility.yul\":3946:3957   */\n      add\n        /* \"#utility.yul\":3940:3958   */\n      mload\n        /* \"#utility.yul\":3936:3937   */\n      dup2\n        /* \"#utility.yul\":3931:3934   */\n      dup5\n        /* \"#utility.yul\":3927:3938   */\n      add\n        /* \"#utility.yul\":3920:3959   */\n      mstore\n        /* \"#utility.yul\":3892:3894   */\n      0x20\n        /* \"#utility.yul\":3889:3890   */\n      dup2\n        /* \"#utility.yul\":3885:3895   */\n      add\n        /* \"#utility.yul\":3880:3895   */\n      swap1\n      pop\n        /* \"#utility.yul\":3856:3969   */\n      jump(tag_118)\n    tag_120:\n        /* \"#utility.yul\":3987:3993   */\n      dup4\n        /* \"#utility.yul\":3984:3985   */\n      dup2\n        /* \"#utility.yul\":3981:3994   */\n      gt\n        /* \"#utility.yul\":3978:4079   */\n      iszero\n      tag_121\n      jumpi\n        /* \"#utility.yul\":4067:4068   */\n      0x00\n        /* \"#utility.yul\":4058:4064   */\n      dup5\n        /* \"#utility.yul\":4053:4056   */\n      dup5\n        /* \"#utility.yul\":4049:4065   */\n      add\n        /* \"#utility.yul\":4042:4069   */\n      mstore\n        /* \"#utility.yul\":3978:4079   */\n    tag_121:\n        /* \"#utility.yul\":3827:4085   */\n      pop\n        /* \"#utility.yul\":3778:4085   */\n      pop\n      pop\n      pop\n      jump\t// out\n        /* \"#utility.yul\":4091:4455   */\n    tag_53:\n        /* \"#utility.yul\":4179:4182   */\n      0x00\n        /* \"#utility.yul\":4207:4246   */\n      tag_123\n        /* \"#utility.yul\":4240:4245   */\n      dup3\n        /* \"#utility.yul\":4207:4246   */\n      tag_50\n      jump\t// in\n    tag_123:\n        /* \"#utility.yul\":4262:4333   */\n      tag_124\n        /* \"#utility.yul\":4326:4332   */\n      dup2\n        /* \"#utility.yul\":4321:4324   */\n      dup6\n        /* \"#utility.yul\":4262:4333   */\n      tag_51\n      jump\t// in\n    tag_124:\n        /* \"#utility.yul\":4255:4333   */\n      swap4\n      pop\n        /* \"#utility.yul\":4342:4394   */\n      tag_125\n        /* \"#utility.yul\":4387:4393   */\n      dup2\n        /* \"#utility.yul\":4382:4385   */\n      dup6\n        /* \"#utility.yul\":4375:4379   */\n      0x20\n        /* \"#utility.yul\":4368:4373   */\n      dup7\n        /* \"#utility.yul\":4364:4380   */\n      add\n        /* \"#utility.yul\":4342:4394   */\n      tag_52\n      jump\t// in\n    tag_125:\n        /* \"#utility.yul\":4419:4448   */\n      tag_126\n        /* \"#utility.yul\":4441:4447   */\n      dup2\n        /* \"#utility.yul\":4419:4448   */\n      tag_42\n      jump\t// in\n    tag_126:\n        /* \"#utility.yul\":4414:4417   */\n      dup5\n        /* \"#utility.yul\":4410:4449   */\n      add\n        /* \"#utility.yul\":4403:4449   */\n      swap2\n      pop\n        /* \"#utility.yul\":4183:4455   */\n      pop\n        /* \"#utility.yul\":4091:4455   */\n      swap3\n      swap2\n      pop\n      pop\n      jump\t// out\n        /* \"#utility.yul\":4461:4774   */\n    tag_18:\n        /* \"#utility.yul\":4574:4578   */\n      0x00\n        /* \"#utility.yul\":4612:4614   */\n      0x20\n        /* \"#utility.yul\":4601:4610   */\n      dup3\n        /* \"#utility.yul\":4597:4615   */\n      add\n        /* \"#utility.yul\":4589:4615   */\n      swap1\n      pop\n        /* \"#utility.yul\":4661:4670   */\n      dup2\n        /* \"#utility.yul\":4655:4659   */\n      dup2\n        /* \"#utility.yul\":4651:4671   */\n      sub\n        /* \"#utility.yul\":4647:4648   */\n      0x00\n        /* \"#utility.yul\":4636:4645   */\n      dup4\n        /* \"#utility.yul\":4632:4649   */\n      add\n        /* \"#utility.yul\":4625:4672   */\n      mstore\n        /* \"#utility.yul\":4689:4767   */\n      tag_128\n        /* \"#utility.yul\":4762:4766   */\n      dup2\n        /* \"#utility.yul\":4753:4759   */\n      dup5\n        /* \"#utility.yul\":4689:4767   */\n      tag_53\n      jump\t// in\n    tag_128:\n        /* \"#utility.yul\":4681:4767   */\n      swap1\n      pop\n        /* \"#utility.yul\":4461:4774   */\n      swap3\n      swap2\n      pop\n      pop\n      jump\t// out\n        /* \"#utility.yul\":4780:4906   */\n    tag_54:\n        /* \"#utility.yul\":4817:4824   */\n      0x00\n        /* \"#utility.yul\":4857:4899   */\n      0xffffffffffffffffffffffffffffffffffffffff\n        /* \"#utility.yul\":4850:4855   */\n      dup3\n        /* \"#utility.yul\":4846:4900   */\n      and\n        /* \"#utility.yul\":4835:4900   */\n      swap1\n      pop\n        /* \"#utility.yul\":4780:4906   */\n      swap2\n      swap1\n      pop\n      jump\t// out\n        /* \"#utility.yul\":4912:5008   */\n    tag_55:\n        /* \"#utility.yul\":4949:4956   */\n      0x00\n        /* \"#utility.yul\":4978:5002   */\n      tag_131\n        /* \"#utility.yul\":4996:5001   */\n      dup3\n        /* \"#utility.yul\":4978:5002   */\n      tag_54\n      jump\t// in\n    tag_131:\n        /* \"#utility.yul\":4967:5002   */\n      swap1\n      pop\n        /* \"#utility.yul\":4912:5008   */\n      swap2\n      swap1\n      pop\n      jump\t// out\n        /* \"#utility.yul\":5014:5132   */\n    tag_56:\n        /* \"#utility.yul\":5101:5125   */\n      tag_133\n        /* \"#utility.yul\":5119:5124   */\n      dup2\n        /* \"#utility.yul\":5101:5125   */\n      tag_55\n      jump\t// in\n    tag_133:\n        /* \"#utility.yul\":5096:5099   */\n      dup3\n        /* \"#utility.yul\":5089:5126   */\n      mstore\n        /* \"#utility.yul\":5014:5132   */\n      pop\n      pop\n      jump\t// out\n        /* \"#utility.yul\":5138:5360   */\n    tag_22:\n        /* \"#utility.yul\":5231:5235   */\n      0x00\n        /* \"#utility.yul\":5269:5271   */\n      0x20\n        /* \"#utility.yul\":5258:5267   */\n      dup3\n        /* \"#utility.yul\":5254:5272   */\n      add\n        /* \"#utility.yul\":5246:5272   */\n      swap1\n      pop\n        /* \"#utility.yul\":5282:5353   */\n      tag_135\n        /* \"#utility.yul\":5350:5351   */\n      0x00\n        /* \"#utility.yul\":5339:5348   */\n      dup4\n        /* \"#utility.yul\":5335:5352   */\n      add\n        /* \"#utility.yul\":5326:5332   */\n      dup5\n        /* \"#utility.yul\":5282:5353   */\n      tag_56\n      jump\t// in\n    tag_135:\n        /* \"#utility.yul\":5138:5360   */\n      swap3\n      swap2\n      pop\n      pop\n      jump\t// out\n        /* \"#utility.yul\":5366:5546   */\n    tag_57:\n        /* \"#utility.yul\":5414:5491   */\n      0x4e487b7100000000000000000000000000000000000000000000000000000000\n        /* \"#utility.yul\":5411:5412   */\n      0x00\n        /* \"#utility.yul\":5404:5492   */\n      mstore\n        /* \"#utility.yul\":5511:5515   */\n      0x22\n        /* \"#utility.yul\":5508:5509   */\n      0x04\n        /* \"#utility.yul\":5501:5516   */\n      mstore\n        /* \"#utility.yul\":5535:5539   */\n      0x24\n        /* \"#utility.yul\":5532:5533   */\n      0x00\n        /* \"#utility.yul\":5525:5540   */\n      revert\n        /* \"#utility.yul\":5552:5872   */\n    tag_30:\n        /* \"#utility.yul\":5596:5602   */\n      0x00\n        /* \"#utility.yul\":5633:5634   */\n      0x02\n        /* \"#utility.yul\":5627:5631   */\n      dup3\n        /* \"#utility.yul\":5623:5635   */\n      div\n        /* \"#utility.yul\":5613:5635   */\n      swap1\n      pop\n        /* \"#utility.yul\":5680:5681   */\n      0x01\n        /* \"#utility.yul\":5674:5678   */\n      dup3\n        /* \"#utility.yul\":5670:5682   */\n      and\n        /* \"#utility.yul\":5701:5719   */\n      dup1\n        /* \"#utility.yul\":5691:5772   */\n      tag_138\n      jumpi\n        /* \"#utility.yul\":5757:5761   */\n      0x7f\n        /* \"#utility.yul\":5749:5755   */\n      dup3\n        /* \"#utility.yul\":5745:5762   */\n      and\n        /* \"#utility.yul\":5735:5762   */\n      swap2\n      pop\n        /* \"#utility.yul\":5691:5772   */\n    tag_138:\n        /* \"#utility.yul\":5819:5821   */\n      0x20\n        /* \"#utility.yul\":5811:5817   */\n      dup3\n        /* \"#utility.yul\":5808:5822   */\n      lt\n        /* \"#utility.yul\":5788:5806   */\n      dup2\n        /* \"#utility.yul\":5785:5823   */\n      sub\n        /* \"#utility.yul\":5782:5866   */\n      tag_139\n      jumpi\n        /* \"#utility.yul\":5838:5856   */\n      tag_140\n      tag_57\n      jump\t// in\n    tag_140:\n        /* \"#utility.yul\":5782:5866   */\n    tag_139:\n        /* \"#utility.yul\":5603:5872   */\n      pop\n        /* \"#utility.yul\":5552:5872   */\n      swap2\n      swap1\n      pop\n      jump\t// out\n        /* \"#utility.yul\":5878:6019   */\n    tag_58:\n        /* \"#utility.yul\":5927:5931   */\n      0x00\n        /* \"#utility.yul\":5950:5953   */\n      dup2\n        /* \"#utility.yul\":5942:5953   */\n      swap1\n      pop\n        /* \"#utility.yul\":5973:5976   */\n      dup2\n        /* \"#utility.yul\":5970:5971   */\n      0x00\n        /* \"#utility.yul\":5963:5977   */\n      mstore\n        /* \"#utility.yul\":6007:6011   */\n      0x20\n        /* \"#utility.yul\":6004:6005   */\n      0x00\n        /* \"#utility.yul\":5994:6012   */\n      keccak256\n        /* \"#utility.yul\":5986:6012   */\n      swap1\n      pop\n        /* \"#utility.yul\":5878:6019   */\n      swap2\n      swap1\n      pop\n      jump\t// out\n        /* \"#utility.yul\":6025:6118   */\n    tag_59:\n        /* \"#utility.yul\":6062:6068   */\n      0x00\n        /* \"#utility.yul\":6109:6111   */\n      0x20\n        /* \"#utility.yul\":6104:6106   */\n      0x1f\n        /* \"#utility.yul\":6097:6102   */\n      dup4\n        /* \"#utility.yul\":6093:6107   */\n      add\n        /* \"#utility.yul\":6089:6112   */\n      div\n        /* \"#utility.yul\":6079:6112   */\n      swap1\n      pop\n        /* \"#utility.yul\":6025:6118   */\n      swap2\n      swap1\n      pop\n      jump\t// out\n        /* \"#utility.yul\":6124:6231   */\n    tag_60:\n        /* \"#utility.yul\":6168:6176   */\n      0x00\n        /* \"#utility.yul\":6218:6223   */\n      dup3\n        /* \"#utility.yul\":6212:6216   */\n      dup3\n        /* \"#utility.yul\":6208:6224   */\n      shl\n        /* \"#utility.yul\":6187:6224   */\n      swap1\n      pop\n        /* \"#utility.yul\":6124:6231   */\n      swap3\n      swap2\n      pop\n      pop\n      jump\t// out\n        /* \"#utility.yul\":6237:6630   */\n    tag_61:\n        /* \"#utility.yul\":6306:6312   */\n      0x00\n        /* \"#utility.yul\":6356:6357   */\n      0x08\n        /* \"#utility.yul\":6344:6354   */\n      dup4\n        /* \"#utility.yul\":6340:6358   */\n      mul\n        /* \"#utility.yul\":6379:6476   */\n      tag_145\n        /* \"#utility.yul\":6409:6475   */\n      0xffffffffffffffffffffffffffffffffffffffffffffffffffffffffffffffff\n        /* \"#utility.yul\":6398:6407   */\n      dup3\n        /* \"#utility.yul\":6379:6476   */\n      tag_60\n      jump\t// in\n    tag_145:\n        /* \"#utility.yul\":6497:6536   */\n      tag_146\n        /* \"#utility.yul\":6527:6535   */\n      dup7\n        /* \"#utility.yul\":6516:6525   */\n      dup4\n        /* \"#utility.yul\":6497:6536   */\n      tag_60\n      jump\t// in\n    tag_146:\n        /* \"#utility.yul\":6485:6536   */\n      swap6\n      pop\n        /* \"#utility.yul\":6569:6573   */\n      dup1\n        /* \"#utility.yul\":6565:6574   */\n      not\n        /* \"#utility.yul\":6558:6563   */\n      dup5\n        /* \"#utility.yul\":6554:6575   */\n      and\n        /* \"#utility.yul\":6545:6575   */\n      swap4\n      pop\n        /* \"#utility.yul\":6618:6622   */\n      dup1\n        /* \"#utility.yul\":6608:6616   */\n      dup7\n        /* \"#utility.yul\":6604:6623   */\n      and\n        /* \"#utility.yul\":6597:6602   */\n      dup5\n        /* \"#utility.yul\":6594:6624   */\n      or\n        /* \"#utility.yul\":6584:6624   */\n      swap3\n      pop\n        /* \"#utility.yul\":6313:6630   */\n      pop\n      pop\n        /* \"#utility.yul\":6237:6630   */\n      swap4\n      swap3\n      pop\n      pop\n      pop\n      jump\t// out\n        /* \"#utility.yul\":6636:6696   */\n    tag_62:\n        /* \"#utility.yul\":6664:6667   */\n      0x00\n        /* \"#utility.yul\":6685:6690   */\n      dup2\n        /* \"#utility.yul\":6678:6690   */\n      swap1\n      pop\n        /* \"#utility.yul\":6636:6696   */\n      swap2\n      swap1\n      pop\n      jump\t// out\n        /* \"#utility.yul\":6702:6844   */\n    tag_63:\n        /* \"#utility.yul\":6752:6761   */\n      0x00\n        /* \"#utility.yul\":6785:6838   */\n      tag_149\n        /* \"#utility.yul\":6803:6837   */\n      tag_150\n        /* \"#utility.yul\":6812:6836   */\n      tag_151\n        /* \"#utility.yul\":6830:6835   */\n      dup5\n        /* \"#utility.yul\":6812:6836   */\n      tag_35\n      jump\t// in\n    tag_151:\n        /* \"#utility.yul\":6803:6837   */\n      tag_62\n      jump\t// in\n    tag_150:\n        /* \"#utility.yul\":6785:6838   */\n      tag_35\n      jump\t// in\n    tag_149:\n        /* \"#utility.yul\":6772:6838   */\n      swap1\n      pop\n        /* \"#utility.yul\":6702:6844   */\n      swap2\n      swap1\n      pop\n      jump\t// out\n        /* \"#utility.yul\":6850:6925   */\n    tag_64:\n        /* \"#utility.yul\":6893:6896   */\n      0x00\n        /* \"#utility.yul\":6914:6919   */\n      dup2\n        /* \"#utility.yul\":6907:6919   */\n      swap1\n      pop\n        /* \"#utility.yul\":6850:6925   */\n      swap2\n      swap1\n      pop\n      jump\t// out\n        /* \"#utility.yul\":6931:7200   */\n    tag_65:\n        /* \"#utility.yul\":7041:7080   */\n      tag_154\n        /* \"#utility.yul\":7072:7079   */\n      dup4\n        /* \"#utility.yul\":7041:7080   */\n      tag_63\n      jump\t// in\n    tag_154:\n        /* \"#utility.yul\":7102:7193   */\n      tag_155\n        /* \"#utility.yul\":7151:7192   */\n      tag_156\n        /* \"#utility.yul\":7175:7191   */\n      dup3\n        /* \"#utility.yul\":7151:7192   */\n      tag_64\n      jump\t// in\n    tag_156:\n        /* \"#utility.yul\":7143:7149   */\n      dup5\n        /* \"#utility.yul\":7136:7140   */\n      dup5\n        /* \"#utility.yul\":7130:7141   */\n      sload\n        /* \"#utility.yul\":7102:7193   */\n      tag_61\n      jump\t// in\n    tag_155:\n        /* \"#utility.yul\":7096:7100   */\n      dup3\n        /* \"#utility.yul\":7089:7194   */\n      sstore\n        /* \"#utility.yul\":7007:7200   */\n      pop\n        /* \"#utility.yul\":6931:7200   */\n      pop\n      pop\n      pop\n      jump\t// out\n        /* \"#utility.yul\":7206:7279   */\n    tag_66:\n        /* \"#utility.yul\":7251:7254   */\n      0x00\n        /* \"#utility.yul\":7206:7279   */\n      swap1\n      jump\t// out\n        /* \"#utility.yul\":7285:7474   */\n    tag_67:\n        /* \"#utility.yul\":7362:7394   */\n      tag_159\n      tag_66\n      jump\t// in\n    tag_159:\n        /* \"#utility.yul\":7403:7468   */\n      tag_160\n        /* \"#utility.yul\":7461:7467   */\n      dup2\n        /* \"#utility.yul\":7453:7459   */\n      dup5\n        /* \"#utility.yul\":7447:7451   */\n      dup5\n        /* \"#utility.yul\":7403:7468   */\n      tag_65\n      jump\t// in\n    tag_160:\n        /* \"#utility.yul\":7338:7474   */\n      pop\n        /* \"#utility.yul\":7285:7474   */\n      pop\n      pop\n      jump\t// out\n        /* \"#utility.yul\":7480:7666   */\n    tag_68:\n        /* \"#utility.yul\":7540:7660   */\n    tag_162:\n        /* \"#utility.yul\":7557:7560   */\n      dup2\n        /* \"#utility.yul\":7550:7555   */\n      dup2\n        /* \"#utility.yul\":7547:7561   */\n      lt\n        /* \"#utility.yul\":7540:7660   */\n      iszero\n      tag_164\n      jumpi\n        /* \"#utility.yul\":7611:7650   */\n      tag_165\n        /* \"#utility.yul\":7648:7649   */\n      0x00\n        /* \"#utility.yul\":7641:7646   */\n      dup3\n        /* \"#utility.yul\":7611:7650   */\n      tag_67\n      jump\t// in\n    tag_165:\n        /* \"#utility.yul\":7584:7585   */\n      0x01\n        /* \"#utility.yul\":7577:7582   */\n      dup2\n        /* \"#utility.yul\":7573:7586   */\n      add\n        /* \"#utility.yul\":7564:7586   */\n      swap1\n      pop\n        /* \"#utility.yul\":7540:7660   */\n      jump(tag_162)\n    tag_164:\n        /* \"#utility.yul\":7480:7666   */\n      pop\n      pop\n      jump\t// out\n        /* \"#utility.yul\":7672:8215   */\n    tag_69:\n        /* \"#utility.yul\":7773:7775   */\n      0x1f\n        /* \"#utility.yul\":7768:7771   */\n      dup3\n        /* \"#utility.yul\":7765:7776   */\n      gt\n        /* \"#utility.yul\":7762:8208   */\n      iszero\n      tag_167\n      jumpi\n        /* \"#utility.yul\":7807:7845   */\n      tag_168\n        /* \"#utility.yul\":7839:7844   */\n      dup2\n        /* \"#utility.yul\":7807:7845   */\n      tag_58\n      jump\t// in\n    tag_168:\n        /* \"#utility.yul\":7891:7920   */\n      tag_169\n        /* \"#utility.yul\":7909:7919   */\n      dup5\n        /* \"#utility.yul\":7891:7920   */\n      tag_59\n      jump\t// in\n    tag_169:\n        /* \"#utility.yul\":7881:7889   */\n      dup2\n        /* \"#utility.yul\":7877:7921   */\n      add\n        /* \"#utility.yul\":8074:8076   */\n      0x20\n        /* \"#utility.yul\":8062:8072   */\n      dup6\n        /* \"#utility.yul\":8059:8077   */\n      lt\n        /* \"#utility.yul\":8056:8105   */\n      iszero\n      tag_170\n      jumpi\n        /* \"#utility.yul\":8095:8103   */\n      dup2\n        /* \"#utility.yul\":8080:8103   */\n      swap1\n      pop\n        /* \"#utility.yul\":8056:8105   */\n    tag_170:\n        /* \"#utility.yul\":8118:8198   */\n      tag_171\n        /* \"#utility.yul\":8174:8196   */\n      tag_172\n        /* \"#utility.yul\":8192:8195   */\n      dup6\n        /* \"#utility.yul\":8174:8196   */\n      tag_59\n      jump\t// in\n    tag_172:\n        /* \"#utility.yul\":8164:8172   */\n      dup4\n        /* \"#utility.yul\":8160:8197   */\n      add\n        /* \"#utility.yul\":8147:8158   */\n      dup3\n        /* \"#utility.yul\":8118:8198   */\n      tag_68\n      jump\t// in\n    tag_171:\n        /* \"#utility.yul\":7777:8208   */\n      pop\n      pop\n        /* \"#utility.yul\":7762:8208   */\n    tag_167:\n        /* \"#utility.yul\":7672:8215   */\n      pop\n      pop\n      pop\n      jump\t// out\n        /* \"#utility.yul\":8221:8338   */\n    tag_70:\n        /* \"#utility.yul\":8275:8283   */\n      0x00\n        /* \"#utility.yul\":8325:8330   */\n      dup3\n        /* \"#utility.yul\":8319:8323   */\n      dup3\n        /* \"#utility.yul\":8315:8331   */\n      shr\n        /* \"#utility.yul\":8294:8331   */\n      swap1\n      pop\n        /* \"#utility.yul\":8221:8338   */\n      swap3\n      swap2\n      pop\n      pop\n      jump\t// out\n        /* \"#utility.yul\":8344:8513   */\n    tag_71:\n        /* \"#utility.yul\":8388:8394   */\n      0x00\n        /* \"#utility.yul\":8421:8472   */\n      tag_175\n        /* \"#utility.yul\":8469:8470   */\n      0x00\n        /* \"#utility.yul\":8465:8471   */\n      not\n        /* \"#utility.yul\":8457:8462   */\n      dup5\n        /* \"#utility.yul\":8454:8455   */\n      0x08\n        /* \"#utility.yul\":8450:8463   */\n      mul\n        /* \"#utility.yul\":8421:8472   */\n      tag_70\n      jump\t// in\n    tag_175:\n        /* \"#utility.yul\":8417:8473   */\n      not\n        /* \"#utility.yul\":8502:8506   */\n      dup1\n        /* \"#utility.yul\":8496:8500   */\n      dup4\n        /* \"#utility.yul\":8492:8507   */\n      and\n        /* \"#utility.yul\":8482:8507   */\n      swap2\n      pop\n        /* \"#utility.yul\":8395:8513   */\n      pop\n        /* \"#utility.yul\":8344:8513   */\n      swap3\n      swap2\n      pop\n      pop\n      jump\t// out\n        /* \"#utility.yul\":8518:8813   */\n    tag_72:\n        /* \"#utility.yul\":8594:8598   */\n      0x00\n        /* \"#utility.yul\":8740:8769   */\n      tag_177\n        /* \"#utility.yul\":8765:8768   */\n      dup4\n        /* \"#utility.yul\":8759:8763   */\n      dup4\n        /* \"#utility.yul\":8740:8769   */\n      tag_71\n      jump\t// in\n    tag_177:\n        /* \"#utility.yul\":8732:8769   */\n      swap2\n      pop\n        /* \"#utility.yul\":8802:8805   */\n      dup3\n        /* \"#utility.yul\":8799:8800   */\n      0x02\n        /* \"#utility.yul\":8795:8806   */\n      mul\n        /* \"#utility.yul\":8789:8793   */\n      dup3\n        /* \"#utility.yul\":8786:8807   */\n      or\n        /* \"#utility.yul\":8778:8807   */\n      swap1\n      pop\n        /* \"#utility.yul\":8518:8813   */\n      swap3\n      swap2\n      pop\n      pop\n      jump\t// out\n        /* \"#utility.yul\":8818:10213   */\n    tag_26:\n        /* \"#utility.yul\":8935:8972   */\n      tag_179\n        /* \"#utility.yul\":8968:8971   */\n      dup3\n        /* \"#utility.yul\":8935:8972   */\n      tag_50\n      jump\t// in\n    tag_179:\n        /* \"#utility.yul\":9037:9055   */\n      0xffffffffffffffff\n        /* \"#utility.yul\":9029:9035   */\n      dup2\n        /* \"#utility.yul\":9026:9056   */\n      gt\n        /* \"#utility.yul\":9023:9079   */\n      iszero\n      tag_180\n      jumpi\n        /* \"#utility.yul\":9059:9077   */\n      tag_181\n      tag_43\n      jump\t// in\n    tag_181:\n        /* \"#utility.yul\":9023:9079   */\n    tag_180:\n        /* \"#utility.yul\":9103:9141   */\n      tag_182\n        /* \"#utility.yul\":9135:9139   */\n      dup3\n        /* \"#utility.yul\":9129:9140   */\n      sload\n        /* \"#utility.yul\":9103:9141   */\n      tag_30\n      jump\t// in\n    tag_182:\n        /* \"#utility.yul\":9188:9255   */\n      tag_183\n        /* \"#utility.yul\":9248:9254   */\n      dup3\n        /* \"#utility.yul\":9240:9246   */\n      dup3\n        /* \"#utility.yul\":9234:9238   */\n      dup6\n        /* \"#utility.yul\":9188:9255   */\n      tag_69\n      jump\t// in\n    tag_183:\n        /* \"#utility.yul\":9282:9283   */\n      0x00\n        /* \"#utility.yul\":9306:9310   */\n      0x20\n        /* \"#utility.yul\":9293:9310   */\n      swap1\n      pop\n        /* \"#utility.yul\":9338:9340   */\n      0x1f\n        /* \"#utility.yul\":9330:9336   */\n      dup4\n        /* \"#utility.yul\":9327:9341   */\n      gt\n        /* \"#utility.yul\":9355:9356   */\n      0x01\n        /* \"#utility.yul\":9350:9968   */\n      dup2\n      eq\n      tag_185\n      jumpi\n        /* \"#utility.yul\":10012:10013   */\n      0x00\n        /* \"#utility.yul\":10029:10035   */\n      dup5\n        /* \"#utility.yul\":10026:10103   */\n      iszero\n      tag_186\n      jumpi\n        /* \"#utility.yul\":10078:10087   */\n      dup3\n        /* \"#utility.yul\":10073:10076   */\n      dup8\n        /* \"#utility.yul\":10069:10088   */\n      add\n        /* \"#utility.yul\":10063:10089   */\n      mload\n        /* \"#utility.yul\":10054:10089   */\n      swap1\n      pop\n        /* \"#utility.yul\":10026:10103   */\n    tag_186:\n        /* \"#utility.yul\":10129:10196   */\n      tag_187\n        /* \"#utility.yul\":10189:10195   */\n      dup6\n        /* \"#utility.yul\":10182:10187   */\n      dup3\n        /* \"#utility.yul\":10129:10196   */\n      tag_72\n      jump\t// in\n    tag_187:\n        /* \"#utility.yul\":10123:10127   */\n      dup7\n        /* \"#utility.yul\":10116:10197   */\n      sstore\n        /* \"#utility.yul\":9985:10207   */\n      pop\n        /* \"#utility.yul\":9320:10207   */\n      jump(tag_184)\n        /* \"#utility.yul\":9350:9968   */\n    tag_185:\n        /* \"#utility.yul\":9402:9406   */\n      0x1f\n        /* \"#utility.yul\":9398:9407   */\n      not\n        /* \"#utility.yul\":9390:9396   */\n      dup5\n        /* \"#utility.yul\":9386:9408   */\n      and\n        /* \"#utility.yul\":9436:9473   */\n      tag_188\n        /* \"#utility.yul\":9468:9472   */\n      dup7\n        /* \"#utility.yul\":9436:9473   */\n      tag_58\n      jump\t// in\n    tag_188:\n        /* \"#utility.yul\":9495:9496   */\n      0x00\n        /* \"#utility.yul\":9509:9717   */\n    tag_189:\n        /* \"#utility.yul\":9523:9530   */\n      dup3\n        /* \"#utility.yul\":9520:9521   */\n      dup2\n        /* \"#utility.yul\":9517:9531   */\n      lt\n        /* \"#utility.yul\":9509:9717   */\n      iszero\n      tag_191\n      jumpi\n        /* \"#utility.yul\":9602:9611   */\n      dup5\n        /* \"#utility.yul\":9597:9600   */\n      dup10\n        /* \"#utility.yul\":9593:9612   */\n      add\n        /* \"#utility.yul\":9587:9613   */\n      mload\n        /* \"#utility.yul\":9579:9585   */\n      dup3\n        /* \"#utility.yul\":9572:9614   */\n      sstore\n        /* \"#utility.yul\":9653:9654   */\n      0x01\n        /* \"#utility.yul\":9645:9651   */\n      dup3\n        /* \"#utility.yul\":9641:9655   */\n      add\n        /* \"#utility.yul\":9631:9655   */\n      swap2\n      pop\n        /* \"#utility.yul\":9700:9702   */\n      0x20\n        /* \"#utility.yul\":9689:9698   */\n      dup6\n        /* \"#utility.yul\":9685:9703   */\n      add\n        /* \"#utility.yul\":9672:9703   */\n      swap5\n      pop\n        /* \"#utility.yul\":9546:9550   */\n      0x20\n        /* \"#utility.yul\":9543:9544   */\n      dup2\n        /* \"#utility.yul\":9539:9551   */\n      add\n        /* \"#utility.yul\":9534:9551   */\n      swap1\n      pop\n        /* \"#utility.yul\":9509:9717   */\n      jump(tag_189)\n    tag_191:\n        /* \"#utility.yul\":9745:9751   */\n      dup7\n        /* \"#utility.yul\":9736:9743   */\n      dup4\n        /* \"#utility.yul\":9733:9752   */\n      lt\n        /* \"#utility.yul\":9730:9909   */\n      iszero\n      tag_192\n      jumpi\n        /* \"#utility.yul\":9803:9812   */\n      dup5\n        /* \"#utility.yul\":9798:9801   */\n      dup10\n        /* \"#utility.yul\":9794:9813   */\n      add\n        /* \"#utility.yul\":9788:9814   */\n      mload\n        /* \"#utility.yul\":9846:9894   */\n      tag_193\n        /* \"#utility.yul\":9888:9892   */\n      0x1f\n        /* \"#utility.yul\":9880:9886   */\n      dup10\n        /* \"#utility.yul\":9876:9893   */\n      and\n        /* \"#utility.yul\":9865:9874   */\n      dup3\n        /* \"#utility.yul\":9846:9894   */\n      tag_71\n      jump\t// in\n    tag_193:\n        /* \"#utility.yul\":9838:9844   */\n      dup4\n        /* \"#utility.yul\":9831:9895   */\n      sstore\n        /* \"#utility.yul\":9753:9909   */\n      pop\n        /* \"#utility.yul\":9730:9909   */\n    tag_192:\n        /* \"#utility.yul\":9955:9956   */\n      0x01\n        /* \"#utility.yul\":9951:9952   */\n      0x02\n        /* \"#utility.yul\":9943:9949   */\n      dup9\n        /* \"#utility.yul\":9939:9953   */\n      mul\n        /* \"#utility.yul\":9935:9957   */\n      add\n        /* \"#utility.yul\":9929:9933   */\n      dup9\n        /* \"#utility.yul\":9922:9958   */\n      sstore\n        /* \"#utility.yul\":9357:9968   */\n      pop\n      pop\n      pop\n        /* \"#utility.yul\":9320:10207   */\n    tag_184:\n      pop\n        /* \"#utility.yul\":8910:10213   */\n      pop\n      pop\n      pop\n        /* \"#utility.yul\":8818:10213   */\n      pop\n      pop\n      jump\t// out\n        /* \"#utility.yul\":10219:10399   */\n    tag_73:\n        /* \"#utility.yul\":10267:10344   */\n      0x4e487b7100000000000000000000000000000000000000000000000000000000\n        /* \"#utility.yul\":10264:10265   */\n      0x00\n        /* \"#utility.yul\":10257:10345   */\n      mstore\n        /* \"#utility.yul\":10364:10368   */\n      0x11\n        /* \"#utility.yul\":10361:10362   */\n      0x04\n        /* \"#utility.yul\":10354:10369   */\n      mstore\n        /* \"#utility.yul\":10388:10392   */\n      0x24\n        /* \"#utility.yul\":10385:10386   */\n      0x00\n        /* \"#utility.yul\":10378:10393   */\n      revert\n        /* \"#utility.yul\":10405:10710   */\n    tag_28:\n        /* \"#utility.yul\":10445:10448   */\n      0x00\n        /* \"#utility.yul\":10464:10484   */\n      tag_196\n        /* \"#utility.yul\":10482:10483   */\n      dup3\n        /* \"#utility.yul\":10464:10484   */\n      tag_35\n      jump\t// in\n    tag_196:\n        /* \"#utility.yul\":10459:10484   */\n      swap2\n      pop\n        /* \"#utility.yul\":10498:10518   */\n      tag_197\n        /* \"#utility.yul\":10516:10517   */\n      dup4\n        /* \"#utility.yul\":10498:10518   */\n      tag_35\n      jump\t// in\n    tag_197:\n        /* \"#utility.yul\":10493:10518   */\n      swap3\n      pop\n        /* \"#utility.yul\":10652:10653   */\n      dup3\n        /* \"#utility.yul\":10584:10650   */\n      0xffffffffffffffffffffffffffffffffffffffffffffffffffffffffffffffff\n        /* \"#utility.yul\":10580:10654   */\n      sub\n        /* \"#utility.yul\":10577:10578   */\n      dup3\n        /* \"#utility.yul\":10574:10655   */\n      gt\n        /* \"#utility.yul\":10571:10678   */\n      iszero\n      tag_198\n      jumpi\n        /* \"#utility.yul\":10658:10676   */\n      tag_199\n      tag_73\n      jump\t// in\n    tag_199:\n        /* \"#utility.yul\":10571:10678   */\n    tag_198:\n        /* \"#utility.yul\":10702:10703   */\n      dup3\n        /* \"#utility.yul\":10699:10700   */\n      dup3\n        /* \"#utility.yul\":10695:10704   */\n      add\n        /* \"#utility.yul\":10688:10704   */\n      swap1\n      pop\n        /* \"#utility.yul\":10405:10710   */\n      swap3\n      swap2\n      pop\n      pop\n      jump\t// out\n\n    auxdata: 0xa26469706673582212208ce91c3d8d81c65292e35287f857d47d1c80da79690c0bfbc6037c201d69076664736f6c634300080f0033\n}\n",
				"bytecode": {
					"linkReferences": {},
					"object": "60806040526040518060400160405280600a81526020017f626c6f636b636861696e00000000000000000000000000000000000000000000815250600090816200004a91906200031f565b5060006002553480156200005d57600080fd5b5033600160006101000a81548173ffffffffffffffffffffffffffffffffffffffff021916908373ffffffffffffffffffffffffffffffffffffffff16021790555062000406565b600081519050919050565b7f4e487b7100000000000000000000000000000000000000000000000000000000600052604160045260246000fd5b7f4e487b7100000000000000000000000000000000000000000000000000000000600052602260045260246000fd5b600060028204905060018216806200012757607f821691505b6020821081036200013d576200013c620000df565b5b50919050565b60008190508160005260206000209050919050565b60006020601f8301049050919050565b600082821b905092915050565b600060088302620001a77fffffffffffffffffffffffffffffffffffffffffffffffffffffffffffffffff8262000168565b620001b3868362000168565b95508019841693508086168417925050509392505050565b6000819050919050565b6000819050919050565b600062000200620001fa620001f484620001cb565b620001d5565b620001cb565b9050919050565b6000819050919050565b6200021c83620001df565b620002346200022b8262000207565b84845462000175565b825550505050565b600090565b6200024b6200023c565b6200025881848462000211565b505050565b5b8181101562000280576200027460008262000241565b6001810190506200025e565b5050565b601f821115620002cf57620002998162000143565b620002a48462000158565b81016020851015620002b4578190505b620002cc620002c38562000158565b8301826200025d565b50505b505050565b600082821c905092915050565b6000620002f460001984600802620002d4565b1980831691505092915050565b60006200030f8383620002e1565b9150826002028217905092915050565b6200032a82620000a5565b67ffffffffffffffff811115620003465762000345620000b0565b5b6200035282546200010e565b6200035f82828562000284565b600060209050601f83116001811462000397576000841562000382578287015190505b6200038e858262000301565b865550620003fe565b601f198416620003a78662000143565b60005b82811015620003d157848901518255600182019150602085019450602081019050620003aa565b86831015620003f15784890151620003ed601f891682620002e1565b8355505b6001600288020188555050505b505050505050565b61087580620004166000396000f3fe608060405234801561001057600080fd5b506004361061004c5760003560e01c806306661abd146100515780634795394c1461006f578063492bfa181461008b578063aaa48425146100a9575b600080fd5b6100596100c7565b6040516100669190610218565b60405180910390f35b6100896004803603810190610084919061038d565b6100cd565b005b61009361014b565b6040516100a0919061045e565b60405180910390f35b6100b16101d9565b6040516100be91906104c1565b60405180910390f35b60025481565b3373ffffffffffffffffffffffffffffffffffffffff16600160009054906101000a900473ffffffffffffffffffffffffffffffffffffffff1673ffffffffffffffffffffffffffffffffffffffff160361014857806000908161013191906106e8565b50600160025461014191906107e9565b6002819055505b50565b600080546101589061050b565b80601f01602080910402602001604051908101604052809291908181526020018280546101849061050b565b80156101d15780601f106101a6576101008083540402835291602001916101d1565b820191906000526020600020905b8154815290600101906020018083116101b457829003601f168201915b505050505081565b600160009054906101000a900473ffffffffffffffffffffffffffffffffffffffff1681565b6000819050919050565b610212816101ff565b82525050565b600060208201905061022d6000830184610209565b92915050565b6000604051905090565b600080fd5b600080fd5b600080fd5b600080fd5b6000601f19601f8301169050919050565b7f4e487b7100000000000000000000000000000000000000000000000000000000600052604160045260246000fd5b61029a82610251565b810181811067ffffffffffffffff821117156102b9576102b8610262565b5b80604052505050565b60006102cc610233565b90506102d88282610291565b919050565b600067ffffffffffffffff8211156102f8576102f7610262565b5b61030182610251565b9050602081019050919050565b82818337600083830152505050565b600061033061032b846102dd565b6102c2565b90508281526020810184848401111561034c5761034b61024c565b5b61035784828561030e565b509392505050565b600082601f83011261037457610373610247565b5b813561038484826020860161031d565b91505092915050565b6000602082840312156103a3576103a261023d565b5b600082013567ffffffffffffffff8111156103c1576103c0610242565b5b6103cd8482850161035f565b91505092915050565b600081519050919050565b600082825260208201905092915050565b60005b838110156104105780820151818401526020810190506103f5565b8381111561041f576000848401525b50505050565b6000610430826103d6565b61043a81856103e1565b935061044a8185602086016103f2565b61045381610251565b840191505092915050565b600060208201905081810360008301526104788184610425565b905092915050565b600073ffffffffffffffffffffffffffffffffffffffff82169050919050565b60006104ab82610480565b9050919050565b6104bb816104a0565b82525050565b60006020820190506104d660008301846104b2565b92915050565b7f4e487b7100000000000000000000000000000000000000000000000000000000600052602260045260246000fd5b6000600282049050600182168061052357607f821691505b602082108103610536576105356104dc565b5b50919050565b60008190508160005260206000209050919050565b60006020601f8301049050919050565b600082821b905092915050565b60006008830261059e7fffffffffffffffffffffffffffffffffffffffffffffffffffffffffffffffff82610561565b6105a88683610561565b95508019841693508086168417925050509392505050565b6000819050919050565b60006105e56105e06105db846101ff565b6105c0565b6101ff565b9050919050565b6000819050919050565b6105ff836105ca565b61061361060b826105ec565b84845461056e565b825550505050565b600090565b61062861061b565b6106338184846105f6565b505050565b5b818110156106575761064c600082610620565b600181019050610639565b5050565b601f82111561069c5761066d8161053c565b61067684610551565b81016020851015610685578190505b61069961069185610551565b830182610638565b50505b505050565b600082821c905092915050565b60006106bf600019846008026106a1565b1980831691505092915050565b60006106d883836106ae565b9150826002028217905092915050565b6106f1826103d6565b67ffffffffffffffff81111561070a57610709610262565b5b610714825461050b565b61071f82828561065b565b600060209050601f8311600181146107525760008415610740578287015190505b61074a85826106cc565b8655506107b2565b601f1984166107608661053c565b60005b8281101561078857848901518255600182019150602085019450602081019050610763565b868310156107a557848901516107a1601f8916826106ae565b8355505b6001600288020188555050505b505050505050565b7f4e487b7100000000000000000000000000000000000000000000000000000000600052601160045260246000fd5b60006107f4826101ff565b91506107ff836101ff565b9250827fffffffffffffffffffffffffffffffffffffffffffffffffffffffffffffffff03821115610834576108336107ba565b5b82820190509291505056fea26469706673582212208ce91c3d8d81c65292e35287f857d47d1c80da79690c0bfbc6037c201d69076664736f6c634300080f0033",
					"opcodes": "PUSH1 0x80 PUSH1 0x40 MSTORE PUSH1 0x40 MLOAD DUP1 PUSH1 0x40 ADD PUSH1 0x40 MSTORE DUP1 PUSH1 0xA DUP2 MSTORE PUSH1 0x20 ADD PUSH32 0x626C6F636B636861696E00000000000000000000000000000000000000000000 DUP2 MSTORE POP PUSH1 0x0 SWAP1 DUP2 PUSH3 0x4A SWAP2 SWAP1 PUSH3 0x31F JUMP JUMPDEST POP PUSH1 0x0 PUSH1 0x2 SSTORE CALLVALUE DUP1 ISZERO PUSH3 0x5D JUMPI PUSH1 0x0 DUP1 REVERT JUMPDEST POP CALLER PUSH1 0x1 PUSH1 0x0 PUSH2 0x100 EXP DUP2 SLOAD DUP2 PUSH20 0xFFFFFFFFFFFFFFFFFFFFFFFFFFFFFFFFFFFFFFFF MUL NOT AND SWAP1 DUP4 PUSH20 0xFFFFFFFFFFFFFFFFFFFFFFFFFFFFFFFFFFFFFFFF AND MUL OR SWAP1 SSTORE POP PUSH3 0x406 JUMP JUMPDEST PUSH1 0x0 DUP2 MLOAD SWAP1 POP SWAP2 SWAP1 POP JUMP JUMPDEST PUSH32 0x4E487B7100000000000000000000000000000000000000000000000000000000 PUSH1 0x0 MSTORE PUSH1 0x41 PUSH1 0x4 MSTORE PUSH1 0x24 PUSH1 0x0 REVERT JUMPDEST PUSH32 0x4E487B7100000000000000000000000000000000000000000000000000000000 PUSH1 0x0 MSTORE PUSH1 0x22 PUSH1 0x4 MSTORE PUSH1 0x24 PUSH1 0x0 REVERT JUMPDEST PUSH1 0x0 PUSH1 0x2 DUP3 DIV SWAP1 POP PUSH1 0x1 DUP3 AND DUP1 PUSH3 0x127 JUMPI PUSH1 0x7F DUP3 AND SWAP2 POP JUMPDEST PUSH1 0x20 DUP3 LT DUP2 SUB PUSH3 0x13D JUMPI PUSH3 0x13C PUSH3 0xDF JUMP JUMPDEST JUMPDEST POP SWAP2 SWAP1 POP JUMP JUMPDEST PUSH1 0x0 DUP2 SWAP1 POP DUP2 PUSH1 0x0 MSTORE PUSH1 0x20 PUSH1 0x0 KECCAK256 SWAP1 POP SWAP2 SWAP1 POP JUMP JUMPDEST PUSH1 0x0 PUSH1 0x20 PUSH1 0x1F DUP4 ADD DIV SWAP1 POP SWAP2 SWAP1 POP JUMP JUMPDEST PUSH1 0x0 DUP3 DUP3 SHL SWAP1 POP SWAP3 SWAP2 POP POP JUMP JUMPDEST PUSH1 0x0 PUSH1 0x8 DUP4 MUL PUSH3 0x1A7 PUSH32 0xFFFFFFFFFFFFFFFFFFFFFFFFFFFFFFFFFFFFFFFFFFFFFFFFFFFFFFFFFFFFFFFF DUP3 PUSH3 0x168 JUMP JUMPDEST PUSH3 0x1B3 DUP7 DUP4 PUSH3 0x168 JUMP JUMPDEST SWAP6 POP DUP1 NOT DUP5 AND SWAP4 POP DUP1 DUP7 AND DUP5 OR SWAP3 POP POP POP SWAP4 SWAP3 POP POP POP JUMP JUMPDEST PUSH1 0x0 DUP2 SWAP1 POP SWAP2 SWAP1 POP JUMP JUMPDEST PUSH1 0x0 DUP2 SWAP1 POP SWAP2 SWAP1 POP JUMP JUMPDEST PUSH1 0x0 PUSH3 0x200 PUSH3 0x1FA PUSH3 0x1F4 DUP5 PUSH3 0x1CB JUMP JUMPDEST PUSH3 0x1D5 JUMP JUMPDEST PUSH3 0x1CB JUMP JUMPDEST SWAP1 POP SWAP2 SWAP1 POP JUMP JUMPDEST PUSH1 0x0 DUP2 SWAP1 POP SWAP2 SWAP1 POP JUMP JUMPDEST PUSH3 0x21C DUP4 PUSH3 0x1DF JUMP JUMPDEST PUSH3 0x234 PUSH3 0x22B DUP3 PUSH3 0x207 JUMP JUMPDEST DUP5 DUP5 SLOAD PUSH3 0x175 JUMP JUMPDEST DUP3 SSTORE POP POP POP POP JUMP JUMPDEST PUSH1 0x0 SWAP1 JUMP JUMPDEST PUSH3 0x24B PUSH3 0x23C JUMP JUMPDEST PUSH3 0x258 DUP2 DUP5 DUP5 PUSH3 0x211 JUMP JUMPDEST POP POP POP JUMP JUMPDEST JUMPDEST DUP2 DUP2 LT ISZERO PUSH3 0x280 JUMPI PUSH3 0x274 PUSH1 0x0 DUP3 PUSH3 0x241 JUMP JUMPDEST PUSH1 0x1 DUP2 ADD SWAP1 POP PUSH3 0x25E JUMP JUMPDEST POP POP JUMP JUMPDEST PUSH1 0x1F DUP3 GT ISZERO PUSH3 0x2CF JUMPI PUSH3 0x299 DUP2 PUSH3 0x143 JUMP JUMPDEST PUSH3 0x2A4 DUP5 PUSH3 0x158 JUMP JUMPDEST DUP2 ADD PUSH1 0x20 DUP6 LT ISZERO PUSH3 0x2B4 JUMPI DUP2 SWAP1 POP JUMPDEST PUSH3 0x2CC PUSH3 0x2C3 DUP6 PUSH3 0x158 JUMP JUMPDEST DUP4 ADD DUP3 PUSH3 0x25D JUMP JUMPDEST POP POP JUMPDEST POP POP POP JUMP JUMPDEST PUSH1 0x0 DUP3 DUP3 SHR SWAP1 POP SWAP3 SWAP2 POP POP JUMP JUMPDEST PUSH1 0x0 PUSH3 0x2F4 PUSH1 0x0 NOT DUP5 PUSH1 0x8 MUL PUSH3 0x2D4 JUMP JUMPDEST NOT DUP1 DUP4 AND SWAP2 POP POP SWAP3 SWAP2 POP POP JUMP JUMPDEST PUSH1 0x0 PUSH3 0x30F DUP4 DUP4 PUSH3 0x2E1 JUMP JUMPDEST SWAP2 POP DUP3 PUSH1 0x2 MUL DUP3 OR SWAP1 POP SWAP3 SWAP2 POP POP JUMP JUMPDEST PUSH3 0x32A DUP3 PUSH3 0xA5 JUMP JUMPDEST PUSH8 0xFFFFFFFFFFFFFFFF DUP2 GT ISZERO PUSH3 0x346 JUMPI PUSH3 0x345 PUSH3 0xB0 JUMP JUMPDEST JUMPDEST PUSH3 0x352 DUP3 SLOAD PUSH3 0x10E JUMP JUMPDEST PUSH3 0x35F DUP3 DUP3 DUP6 PUSH3 0x284 JUMP JUMPDEST PUSH1 0x0 PUSH1 0x20 SWAP1 POP PUSH1 0x1F DUP4 GT PUSH1 0x1 DUP2 EQ PUSH3 0x397 JUMPI PUSH1 0x0 DUP5 ISZERO PUSH3 0x382 JUMPI DUP3 DUP8 ADD MLOAD SWAP1 POP JUMPDEST PUSH3 0x38E DUP6 DUP3 PUSH3 0x301 JUMP JUMPDEST DUP7 SSTORE POP PUSH3 0x3FE JUMP JUMPDEST PUSH1 0x1F NOT DUP5 AND PUSH3 0x3A7 DUP7 PUSH3 0x143 JUMP JUMPDEST PUSH1 0x0 JUMPDEST DUP3 DUP2 LT ISZERO PUSH3 0x3D1 JUMPI DUP5 DUP10 ADD MLOAD DUP3 SSTORE PUSH1 0x1 DUP3 ADD SWAP2 POP PUSH1 0x20 DUP6 ADD SWAP5 POP PUSH1 0x20 DUP2 ADD SWAP1 POP PUSH3 0x3AA JUMP JUMPDEST DUP7 DUP4 LT ISZERO PUSH3 0x3F1 JUMPI DUP5 DUP10 ADD MLOAD PUSH3 0x3ED PUSH1 0x1F DUP10 AND DUP3 PUSH3 0x2E1 JUMP JUMPDEST DUP4 SSTORE POP JUMPDEST PUSH1 0x1 PUSH1 0x2 DUP9 MUL ADD DUP9 SSTORE POP POP POP JUMPDEST POP POP POP POP POP POP JUMP JUMPDEST PUSH2 0x875 DUP1 PUSH3 0x416 PUSH1 0x0 CODECOPY PUSH1 0x0 RETURN INVALID PUSH1 0x80 PUSH1 0x40 MSTORE CALLVALUE DUP1 ISZERO PUSH2 0x10 JUMPI PUSH1 0x0 DUP1 REVERT JUMPDEST POP PUSH1 0x4 CALLDATASIZE LT PUSH2 0x4C JUMPI PUSH1 0x0 CALLDATALOAD PUSH1 0xE0 SHR DUP1 PUSH4 0x6661ABD EQ PUSH2 0x51 JUMPI DUP1 PUSH4 0x4795394C EQ PUSH2 0x6F JUMPI DUP1 PUSH4 0x492BFA18 EQ PUSH2 0x8B JUMPI DUP1 PUSH4 0xAAA48425 EQ PUSH2 0xA9 JUMPI JUMPDEST PUSH1 0x0 DUP1 REVERT JUMPDEST PUSH2 0x59 PUSH2 0xC7 JUMP JUMPDEST PUSH1 0x40 MLOAD PUSH2 0x66 SWAP2 SWAP1 PUSH2 0x218 JUMP JUMPDEST PUSH1 0x40 MLOAD DUP1 SWAP2 SUB SWAP1 RETURN JUMPDEST PUSH2 0x89 PUSH1 0x4 DUP1 CALLDATASIZE SUB DUP2 ADD SWAP1 PUSH2 0x84 SWAP2 SWAP1 PUSH2 0x38D JUMP JUMPDEST PUSH2 0xCD JUMP JUMPDEST STOP JUMPDEST PUSH2 0x93 PUSH2 0x14B JUMP JUMPDEST PUSH1 0x40 MLOAD PUSH2 0xA0 SWAP2 SWAP1 PUSH2 0x45E JUMP JUMPDEST PUSH1 0x40 MLOAD DUP1 SWAP2 SUB SWAP1 RETURN JUMPDEST PUSH2 0xB1 PUSH2 0x1D9 JUMP JUMPDEST PUSH1 0x40 MLOAD PUSH2 0xBE SWAP2 SWAP1 PUSH2 0x4C1 JUMP JUMPDEST PUSH1 0x40 MLOAD DUP1 SWAP2 SUB SWAP1 RETURN JUMPDEST PUSH1 0x2 SLOAD DUP2 JUMP JUMPDEST CALLER PUSH20 0xFFFFFFFFFFFFFFFFFFFFFFFFFFFFFFFFFFFFFFFF AND PUSH1 0x1 PUSH1 0x0 SWAP1 SLOAD SWAP1 PUSH2 0x100 EXP SWAP1 DIV PUSH20 0xFFFFFFFFFFFFFFFFFFFFFFFFFFFFFFFFFFFFFFFF AND PUSH20 0xFFFFFFFFFFFFFFFFFFFFFFFFFFFFFFFFFFFFFFFF AND SUB PUSH2 0x148 JUMPI DUP1 PUSH1 0x0 SWAP1 DUP2 PUSH2 0x131 SWAP2 SWAP1 PUSH2 0x6E8 JUMP JUMPDEST POP PUSH1 0x1 PUSH1 0x2 SLOAD PUSH2 0x141 SWAP2 SWAP1 PUSH2 0x7E9 JUMP JUMPDEST PUSH1 0x2 DUP2 SWAP1 SSTORE POP JUMPDEST POP JUMP JUMPDEST PUSH1 0x0 DUP1 SLOAD PUSH2 0x158 SWAP1 PUSH2 0x50B JUMP JUMPDEST DUP1 PUSH1 0x1F ADD PUSH1 0x20 DUP1 SWAP2 DIV MUL PUSH1 0x20 ADD PUSH1 0x40 MLOAD SWAP1 DUP2 ADD PUSH1 0x40 MSTORE DUP1 SWAP3 SWAP2 SWAP1 DUP2 DUP2 MSTORE PUSH1 0x20 ADD DUP3 DUP1 SLOAD PUSH2 0x184 SWAP1 PUSH2 0x50B JUMP JUMPDEST DUP1 ISZERO PUSH2 0x1D1 JUMPI DUP1 PUSH1 0x1F LT PUSH2 0x1A6 JUMPI PUSH2 0x100 DUP1 DUP4 SLOAD DIV MUL DUP4 MSTORE SWAP2 PUSH1 0x20 ADD SWAP2 PUSH2 0x1D1 JUMP JUMPDEST DUP3 ADD SWAP2 SWAP1 PUSH1 0x0 MSTORE PUSH1 0x20 PUSH1 0x0 KECCAK256 SWAP1 JUMPDEST DUP2 SLOAD DUP2 MSTORE SWAP1 PUSH1 0x1 ADD SWAP1 PUSH1 0x20 ADD DUP1 DUP4 GT PUSH2 0x1B4 JUMPI DUP3 SWAP1 SUB PUSH1 0x1F AND DUP3 ADD SWAP2 JUMPDEST POP POP POP POP POP DUP2 JUMP JUMPDEST PUSH1 0x1 PUSH1 0x0 SWAP1 SLOAD SWAP1 PUSH2 0x100 EXP SWAP1 DIV PUSH20 0xFFFFFFFFFFFFFFFFFFFFFFFFFFFFFFFFFFFFFFFF AND DUP2 JUMP JUMPDEST PUSH1 0x0 DUP2 SWAP1 POP SWAP2 SWAP1 POP JUMP JUMPDEST PUSH2 0x212 DUP2 PUSH2 0x1FF JUMP JUMPDEST DUP3 MSTORE POP POP JUMP JUMPDEST PUSH1 0x0 PUSH1 0x20 DUP3 ADD SWAP1 POP PUSH2 0x22D PUSH1 0x0 DUP4 ADD DUP5 PUSH2 0x209 JUMP JUMPDEST SWAP3 SWAP2 POP POP JUMP JUMPDEST PUSH1 0x0 PUSH1 0x40 MLOAD SWAP1 POP SWAP1 JUMP JUMPDEST PUSH1 0x0 DUP1 REVERT JUMPDEST PUSH1 0x0 DUP1 REVERT JUMPDEST PUSH1 0x0 DUP1 REVERT JUMPDEST PUSH1 0x0 DUP1 REVERT JUMPDEST PUSH1 0x0 PUSH1 0x1F NOT PUSH1 0x1F DUP4 ADD AND SWAP1 POP SWAP2 SWAP1 POP JUMP JUMPDEST PUSH32 0x4E487B7100000000000000000000000000000000000000000000000000000000 PUSH1 0x0 MSTORE PUSH1 0x41 PUSH1 0x4 MSTORE PUSH1 0x24 PUSH1 0x0 REVERT JUMPDEST PUSH2 0x29A DUP3 PUSH2 0x251 JUMP JUMPDEST DUP2 ADD DUP2 DUP2 LT PUSH8 0xFFFFFFFFFFFFFFFF DUP3 GT OR ISZERO PUSH2 0x2B9 JUMPI PUSH2 0x2B8 PUSH2 0x262 JUMP JUMPDEST JUMPDEST DUP1 PUSH1 0x40 MSTORE POP POP POP JUMP JUMPDEST PUSH1 0x0 PUSH2 0x2CC PUSH2 0x233 JUMP JUMPDEST SWAP1 POP PUSH2 0x2D8 DUP3 DUP3 PUSH2 0x291 JUMP JUMPDEST SWAP2 SWAP1 POP JUMP JUMPDEST PUSH1 0x0 PUSH8 0xFFFFFFFFFFFFFFFF DUP3 GT ISZERO PUSH2 0x2F8 JUMPI PUSH2 0x2F7 PUSH2 0x262 JUMP JUMPDEST JUMPDEST PUSH2 0x301 DUP3 PUSH2 0x251 JUMP JUMPDEST SWAP1 POP PUSH1 0x20 DUP2 ADD SWAP1 POP SWAP2 SWAP1 POP JUMP JUMPDEST DUP3 DUP2 DUP4 CALLDATACOPY PUSH1 0x0 DUP4 DUP4 ADD MSTORE POP POP POP JUMP JUMPDEST PUSH1 0x0 PUSH2 0x330 PUSH2 0x32B DUP5 PUSH2 0x2DD JUMP JUMPDEST PUSH2 0x2C2 JUMP JUMPDEST SWAP1 POP DUP3 DUP2 MSTORE PUSH1 0x20 DUP2 ADD DUP5 DUP5 DUP5 ADD GT ISZERO PUSH2 0x34C JUMPI PUSH2 0x34B PUSH2 0x24C JUMP JUMPDEST JUMPDEST PUSH2 0x357 DUP5 DUP3 DUP6 PUSH2 0x30E JUMP JUMPDEST POP SWAP4 SWAP3 POP POP POP JUMP JUMPDEST PUSH1 0x0 DUP3 PUSH1 0x1F DUP4 ADD SLT PUSH2 0x374 JUMPI PUSH2 0x373 PUSH2 0x247 JUMP JUMPDEST JUMPDEST DUP2 CALLDATALOAD PUSH2 0x384 DUP5 DUP3 PUSH1 0x20 DUP7 ADD PUSH2 0x31D JUMP JUMPDEST SWAP2 POP POP SWAP3 SWAP2 POP POP JUMP JUMPDEST PUSH1 0x0 PUSH1 0x20 DUP3 DUP5 SUB SLT ISZERO PUSH2 0x3A3 JUMPI PUSH2 0x3A2 PUSH2 0x23D JUMP JUMPDEST JUMPDEST PUSH1 0x0 DUP3 ADD CALLDATALOAD PUSH8 0xFFFFFFFFFFFFFFFF DUP2 GT ISZERO PUSH2 0x3C1 JUMPI PUSH2 0x3C0 PUSH2 0x242 JUMP JUMPDEST JUMPDEST PUSH2 0x3CD DUP5 DUP3 DUP6 ADD PUSH2 0x35F JUMP JUMPDEST SWAP2 POP POP SWAP3 SWAP2 POP POP JUMP JUMPDEST PUSH1 0x0 DUP2 MLOAD SWAP1 POP SWAP2 SWAP1 POP JUMP JUMPDEST PUSH1 0x0 DUP3 DUP3 MSTORE PUSH1 0x20 DUP3 ADD SWAP1 POP SWAP3 SWAP2 POP POP JUMP JUMPDEST PUSH1 0x0 JUMPDEST DUP4 DUP2 LT ISZERO PUSH2 0x410 JUMPI DUP1 DUP3 ADD MLOAD DUP2 DUP5 ADD MSTORE PUSH1 0x20 DUP2 ADD SWAP1 POP PUSH2 0x3F5 JUMP JUMPDEST DUP4 DUP2 GT ISZERO PUSH2 0x41F JUMPI PUSH1 0x0 DUP5 DUP5 ADD MSTORE JUMPDEST POP POP POP POP JUMP JUMPDEST PUSH1 0x0 PUSH2 0x430 DUP3 PUSH2 0x3D6 JUMP JUMPDEST PUSH2 0x43A DUP2 DUP6 PUSH2 0x3E1 JUMP JUMPDEST SWAP4 POP PUSH2 0x44A DUP2 DUP6 PUSH1 0x20 DUP7 ADD PUSH2 0x3F2 JUMP JUMPDEST PUSH2 0x453 DUP2 PUSH2 0x251 JUMP JUMPDEST DUP5 ADD SWAP2 POP POP SWAP3 SWAP2 POP POP JUMP JUMPDEST PUSH1 0x0 PUSH1 0x20 DUP3 ADD SWAP1 POP DUP2 DUP2 SUB PUSH1 0x0 DUP4 ADD MSTORE PUSH2 0x478 DUP2 DUP5 PUSH2 0x425 JUMP JUMPDEST SWAP1 POP SWAP3 SWAP2 POP POP JUMP JUMPDEST PUSH1 0x0 PUSH20 0xFFFFFFFFFFFFFFFFFFFFFFFFFFFFFFFFFFFFFFFF DUP3 AND SWAP1 POP SWAP2 SWAP1 POP JUMP JUMPDEST PUSH1 0x0 PUSH2 0x4AB DUP3 PUSH2 0x480 JUMP JUMPDEST SWAP1 POP SWAP2 SWAP1 POP JUMP JUMPDEST PUSH2 0x4BB DUP2 PUSH2 0x4A0 JUMP JUMPDEST DUP3 MSTORE POP POP JUMP JUMPDEST PUSH1 0x0 PUSH1 0x20 DUP3 ADD SWAP1 POP PUSH2 0x4D6 PUSH1 0x0 DUP4 ADD DUP5 PUSH2 0x4B2 JUMP JUMPDEST SWAP3 SWAP2 POP POP JUMP JUMPDEST PUSH32 0x4E487B7100000000000000000000000000000000000000000000000000000000 PUSH1 0x0 MSTORE PUSH1 0x22 PUSH1 0x4 MSTORE PUSH1 0x24 PUSH1 0x0 REVERT JUMPDEST PUSH1 0x0 PUSH1 0x2 DUP3 DIV SWAP1 POP PUSH1 0x1 DUP3 AND DUP1 PUSH2 0x523 JUMPI PUSH1 0x7F DUP3 AND SWAP2 POP JUMPDEST PUSH1 0x20 DUP3 LT DUP2 SUB PUSH2 0x536 JUMPI PUSH2 0x535 PUSH2 0x4DC JUMP JUMPDEST JUMPDEST POP SWAP2 SWAP1 POP JUMP JUMPDEST PUSH1 0x0 DUP2 SWAP1 POP DUP2 PUSH1 0x0 MSTORE PUSH1 0x20 PUSH1 0x0 KECCAK256 SWAP1 POP SWAP2 SWAP1 POP JUMP JUMPDEST PUSH1 0x0 PUSH1 0x20 PUSH1 0x1F DUP4 ADD DIV SWAP1 POP SWAP2 SWAP1 POP JUMP JUMPDEST PUSH1 0x0 DUP3 DUP3 SHL SWAP1 POP SWAP3 SWAP2 POP POP JUMP JUMPDEST PUSH1 0x0 PUSH1 0x8 DUP4 MUL PUSH2 0x59E PUSH32 0xFFFFFFFFFFFFFFFFFFFFFFFFFFFFFFFFFFFFFFFFFFFFFFFFFFFFFFFFFFFFFFFF DUP3 PUSH2 0x561 JUMP JUMPDEST PUSH2 0x5A8 DUP7 DUP4 PUSH2 0x561 JUMP JUMPDEST SWAP6 POP DUP1 NOT DUP5 AND SWAP4 POP DUP1 DUP7 AND DUP5 OR SWAP3 POP POP POP SWAP4 SWAP3 POP POP POP JUMP JUMPDEST PUSH1 0x0 DUP2 SWAP1 POP SWAP2 SWAP1 POP JUMP JUMPDEST PUSH1 0x0 PUSH2 0x5E5 PUSH2 0x5E0 PUSH2 0x5DB DUP5 PUSH2 0x1FF JUMP JUMPDEST PUSH2 0x5C0 JUMP JUMPDEST PUSH2 0x1FF JUMP JUMPDEST SWAP1 POP SWAP2 SWAP1 POP JUMP JUMPDEST PUSH1 0x0 DUP2 SWAP1 POP SWAP2 SWAP1 POP JUMP JUMPDEST PUSH2 0x5FF DUP4 PUSH2 0x5CA JUMP JUMPDEST PUSH2 0x613 PUSH2 0x60B DUP3 PUSH2 0x5EC JUMP JUMPDEST DUP5 DUP5 SLOAD PUSH2 0x56E JUMP JUMPDEST DUP3 SSTORE POP POP POP POP JUMP JUMPDEST PUSH1 0x0 SWAP1 JUMP JUMPDEST PUSH2 0x628 PUSH2 0x61B JUMP JUMPDEST PUSH2 0x633 DUP2 DUP5 DUP5 PUSH2 0x5F6 JUMP JUMPDEST POP POP POP JUMP JUMPDEST JUMPDEST DUP2 DUP2 LT ISZERO PUSH2 0x657 JUMPI PUSH2 0x64C PUSH1 0x0 DUP3 PUSH2 0x620 JUMP JUMPDEST PUSH1 0x1 DUP2 ADD SWAP1 POP PUSH2 0x639 JUMP JUMPDEST POP POP JUMP JUMPDEST PUSH1 0x1F DUP3 GT ISZERO PUSH2 0x69C JUMPI PUSH2 0x66D DUP2 PUSH2 0x53C JUMP JUMPDEST PUSH2 0x676 DUP5 PUSH2 0x551 JUMP JUMPDEST DUP2 ADD PUSH1 0x20 DUP6 LT ISZERO PUSH2 0x685 JUMPI DUP2 SWAP1 POP JUMPDEST PUSH2 0x699 PUSH2 0x691 DUP6 PUSH2 0x551 JUMP JUMPDEST DUP4 ADD DUP3 PUSH2 0x638 JUMP JUMPDEST POP POP JUMPDEST POP POP POP JUMP JUMPDEST PUSH1 0x0 DUP3 DUP3 SHR SWAP1 POP SWAP3 SWAP2 POP POP JUMP JUMPDEST PUSH1 0x0 PUSH2 0x6BF PUSH1 0x0 NOT DUP5 PUSH1 0x8 MUL PUSH2 0x6A1 JUMP JUMPDEST NOT DUP1 DUP4 AND SWAP2 POP POP SWAP3 SWAP2 POP POP JUMP JUMPDEST PUSH1 0x0 PUSH2 0x6D8 DUP4 DUP4 PUSH2 0x6AE JUMP JUMPDEST SWAP2 POP DUP3 PUSH1 0x2 MUL DUP3 OR SWAP1 POP SWAP3 SWAP2 POP POP JUMP JUMPDEST PUSH2 0x6F1 DUP3 PUSH2 0x3D6 JUMP JUMPDEST PUSH8 0xFFFFFFFFFFFFFFFF DUP2 GT ISZERO PUSH2 0x70A JUMPI PUSH2 0x709 PUSH2 0x262 JUMP JUMPDEST JUMPDEST PUSH2 0x714 DUP3 SLOAD PUSH2 0x50B JUMP JUMPDEST PUSH2 0x71F DUP3 DUP3 DUP6 PUSH2 0x65B JUMP JUMPDEST PUSH1 0x0 PUSH1 0x20 SWAP1 POP PUSH1 0x1F DUP4 GT PUSH1 0x1 DUP2 EQ PUSH2 0x752 JUMPI PUSH1 0x0 DUP5 ISZERO PUSH2 0x740 JUMPI DUP3 DUP8 ADD MLOAD SWAP1 POP JUMPDEST PUSH2 0x74A DUP6 DUP3 PUSH2 0x6CC JUMP JUMPDEST DUP7 SSTORE POP PUSH2 0x7B2 JUMP JUMPDEST PUSH1 0x1F NOT DUP5 AND PUSH2 0x760 DUP7 PUSH2 0x53C JUMP JUMPDEST PUSH1 0x0 JUMPDEST DUP3 DUP2 LT ISZERO PUSH2 0x788 JUMPI DUP5 DUP10 ADD MLOAD DUP3 SSTORE PUSH1 0x1 DUP3 ADD SWAP2 POP PUSH1 0x20 DUP6 ADD SWAP5 POP PUSH1 0x20 DUP2 ADD SWAP1 POP PUSH2 0x763 JUMP JUMPDEST DUP7 DUP4 LT ISZERO PUSH2 0x7A5 JUMPI DUP5 DUP10 ADD MLOAD PUSH2 0x7A1 PUSH1 0x1F DUP10 AND DUP3 PUSH2 0x6AE JUMP JUMPDEST DUP4 SSTORE POP JUMPDEST PUSH1 0x1 PUSH1 0x2 DUP9 MUL ADD DUP9 SSTORE POP POP POP JUMPDEST POP POP POP POP POP POP JUMP JUMPDEST PUSH32 0x4E487B7100000000000000000000000000000000000000000000000000000000 PUSH1 0x0 MSTORE PUSH1 0x11 PUSH1 0x4 MSTORE PUSH1 0x24 PUSH1 0x0 REVERT JUMPDEST PUSH1 0x0 PUSH2 0x7F4 DUP3 PUSH2 0x1FF JUMP JUMPDEST SWAP2 POP PUSH2 0x7FF DUP4 PUSH2 0x1FF JUMP JUMPDEST SWAP3 POP DUP3 PUSH32 0xFFFFFFFFFFFFFFFFFFFFFFFFFFFFFFFFFFFFFFFFFFFFFFFFFFFFFFFFFFFFFFFF SUB DUP3 GT ISZERO PUSH2 0x834 JUMPI PUSH2 0x833 PUSH2 0x7BA JUMP JUMPDEST JUMPDEST DUP3 DUP3 ADD SWAP1 POP SWAP3 SWAP2 POP POP JUMP INVALID LOG2 PUSH5 0x6970667358 0x22 SLT KECCAK256 DUP13 0xE9 SHR RETURNDATASIZE DUP14 DUP2 0xC6 MSTORE SWAP3 0xE3 MSTORE DUP8 0xF8 JUMPI 0xD4 PUSH30 0x1C80DA79690C0BFBC6037C201D69076664736F6C634300080F0033000000 "
				},
				"gasEstimates": {
					"creation": {
						"codeDepositCost": "433000",
						"executionCost": "infinite",
						"totalCost": "infinite"
					},
					"external": {
						"Update(string)": "infinite",
						"count()": "2407",
						"myString()": "infinite",
						"owneraddress()": "2558"
					}
				},
				"methodIdentifiers": {
					"Update(string)": "4795394c",
					"count()": "06661abd",
					"myString()": "492bfa18",
					"owneraddress()": "aaa48425"
				}
			},
			"storageLayout": {
				"storage": [
					{
						"astId": 4,
						"contract": "message.sol:message",
						"label": "myString",
						"offset": 0,
						"slot": "0",
						"type": "t_string_storage"
					},
					{
						"astId": 6,
						"contract": "message.sol:message",
						"label": "owneraddress",
						"offset": 0,
						"slot": "1",
						"type": "t_address"
					},
					{
						"astId": 9,
						"contract": "message.sol:message",
						"label": "count",
						"offset": 0,
						"slot": "2",
						"type": "t_uint256"
					}
				],
				"types": {
					"t_address": {
						"encoding": "inplace",
						"label": "address",
						"numberOfBytes": "20"
					},
					"t_string_storage": {
						"encoding": "bytes",
						"label": "string",
						"numberOfBytes": "32"
					},
					"t_uint256": {
						"encoding": "inplace",
						"label": "uint256",
						"numberOfBytes": "32"
					}
				}
			},
			"userdoc": {
				"kind": "user",
				"methods": {},
				"version": 1
			}
		}
	}
}